:020000040808EA
:100000000000080838860808000006000A000501FC
:0800100004027C050000000061
:04001800007B080859
:1000200009480A4908B5884205D0094A824202D0E7
:10003000121A07F0A3F80748074A0021121A07F01E
:10004000A8F8064808BD00BF00000020BC840808CE
:1000500054010020580100204C0900204C090020C8
:1000600070B504F01BFA074B074C1E46E41AA408AF
:100070000025A54204D056F8253098470135F8E709
:1000800070BD00BF70840808A884080801F07CBD1A
:1000900008B501F045FBBDE8084004F0C1B902F025
:1000A00039BD02F03FBD0078B0FA80F040097047DA
:1000B00001230370704748B1836C3BB1C36C2BB113
:1000C000006DB0FA80F04009404270474FF0FF30B9
:1000D000704773B5024608460C46FFF7ECFF05462D
:1000E00050BB12F0800FCA7814BF002310239A422D
:1000F00022D0CB708E6C01230DF10702F3216078C2
:10010000B04784F8540010B16FF0010514E0E378B3
:10011000E66C03F010029DF80730732123F0100302
:1001200013438DF807300DF1070201236078B047C3
:1001300084F854000028E7D1284602B070BD73B59A
:100140000446FFF7B8FF054688B9A66C01230DF1F8
:100150000702F3216078B04784F8540028B99DF86D
:10016000073003F01003E37001E06FF0010528464B
:1001700002B070BD40B103788B4208D9017013788A
:1001800043F00203137002E04FF0FF30704700208D
:1001900070472DE9F84306461846884691461D46A5
:1001A000FFF789FF0446A8B9AB783BB9294630462A
:1001B000FFF78FFF044608B946F08006AF6C4B4648
:1001C000424631466878B847002885F8540018BF81
:1001D0006FF001042046BDE8F8832DE9F04F1E467C
:1001E0008BB083468A46144600212822684606F0D2
:1001F000D0FF3046FFF75FFF0546A8BB631E122BFA
:1002000030D80DF101085F46C1460AF1FF3AA4B2A9
:10021000CBEB07039BB29C4213D9B37843B9314669
:100220003878FFF756FF3B78054603F07F0300E080
:100230003B7808F8013C1AF8013F013708F8023B07
:10024000E6E78DB96300013BF46C9BB24A469DF82A
:1002500000107078A047002886F8540018BF6FF08F
:10026000010501E06FF0030528460BB0BDE8F08FF3
:1002700037B5E0238DF80630B62305468DF80730F4
:10028000FFF719FF0446D8B9AB786BB12B460122B2
:100290000DF107010DF10600FFF79FFF04462B6DDE
:1002A0000A20984734B10BE02846FFF748FF044680
:1002B00030B9EBE7AB781BB92846FFF740FF04469F
:1002C000204603B030BD30B58DB00446FFF7F3FED5
:1002D0000546002840F0D5802046FFF7C9FF0546B7
:1002E000002840F0CE80234601222146D020FFF78F
:1002F00050FF0546002840F0C4802378612B40F071
:10030000BE800146292201A806F043FF20468DF851
:100310000350FFF7D0FE0546002840F0B280234688
:10032000192201A98920FFF734FF054638B9234671
:1003300010220DF11D01E120FFF72BFF05469DF86E
:1003400026209DF8253043EA0223E3829DF806200B
:100350009DF8053043EA022323839DF807309DF87A
:100360000A20A3769DF8093043EA0223A3839DF86F
:100370000C209DF80B3043EA0223E3839DF80D30F7
:100380009DF8102084F820309DF80F3043EA0223B6
:1003900063849DF812209DF8113043EA0223A38460
:1003A0009DF814309DF8182084F826309DF81330FD
:1003B00084F827309DF8173043EA022323859DF8FF
:1003C0001A209DF8193043EA022363859DF81B30FB
:1003D0009DF81F1084F82C309DF81E3003F00F029A
:1003E00042EA011222819DF81D201B0943EA0213F3
:1003F00063819DF820309DF8282023739DF82130DB
:1004000063739DF82230A3739DF82330E3739DF846
:10041000243023749DF8293063749DF8273043EA13
:10042000022363829DF82A30237515BB23460122DF
:100430000DF103010220FFF7ACFE9DF803300546E5
:10044000C3F3011384F8343098B9234601220DF127
:100450000301FFF79EFE9DF80330054684F8353012
:1004600038B9234601220DF103010420FFF791FE64
:1004700005469DF903301B1184F8363001E06FF01A
:10048000020528460DB030BD37B5742304468DF8FB
:100490000730FFF710FEA0BB0546234601220DF1F1
:1004A00006017420FFF775FEA0B99DF8063013F021
:1004B000030511D023F003038DF8063001222346F3
:1004C0000DF106010DF10700FFF787FE236D0A20ED
:1004D0009847E2E7002DE0D194F844308BB19DF8C5
:1004E000062003F0030322F0030213438DF80630C5
:1004F00038B9234601220DF106010DF10700FFF77F
:100500006CFE03B030BD2DE9F041002388B00646F3
:1005100008460C468DF807300493ADF81430069366
:10052000ADF81C30FFF7C7FD002840F05F813207AF
:1005300091F8447065D5012FADF80800ADF80C00B6
:100540005ED15A23B1F840508DF80830B1F912301D
:10055000B5F5C87F03F5163303F2991328BF4FF49E
:10056000C8755D43142395FBF3F505F548130A257B
:1005700093FBF5F591F9112091F9043002F54472DD
:100580006A4391F914505D434FF47A7395FBF3F38A
:100590001B0203EB620194F83430043391FBF3F255
:1005A00094F9351083234B4303F5803392FBF3F327
:1005B0002222FA3B53436422323393FBF2F38DF849
:1005C0000C30B4F842308DF80920B3F57C6F0AD2B4
:1005D0003F2BC2B200F1010001D99B08F8E703EB01
:1005E0008213DBB200E0FF238DF80D30002384F886
:1005F0003C300222234603A902A8FFF7EEFD00E0EB
:100600000120002384F8443010B92046FFF73CFF56
:1006100006F01005ADB205B304F14602072104F15E
:100620003B00FFF7A7FD30B9234601220DF107017A
:100630007520FFF7AEFD94F83B3001259B0003F0D9
:100640001C029DF8073023F01C03134375228DF81C
:1006500007308DF810208DF81830B30622D504F13C
:100660004602082104F13D00FFF784FD30B923461E
:1006700001220DF107017020FFF78BFD9DF8073077
:10068000702123F0080294F83D3003F0080313436F
:1006900008AA2A4401358DF8073002F8101C02F828
:1006A000083CEDB2B10733D004F14602052104F154
:1006B0003900FFF75FFD30B9234601220DF1070134
:1006C0007420FFF766FDF20709D59DF8073094F80E
:1006D000392003F01F0343EA42138DF80730B307B4
:1006E0000BD594F83A309B0003F01C029DF80730BC
:1006F00023F01C0313438DF8073008AB2B447422FE
:1007000003F8102C9DF80720013503F8082CEDB2F2
:10071000710722D504F14602052104F13800FFF7E4
:1007200029FD30B9234601220DF107017220FFF7A0
:1007300030FD9DF80730722123F0070294F838301D
:1007400003F00703134308AA2A4401358DF8073044
:1007500002F8101C02F8083CEDB216F0C00F3CD0B5
:1007600004F146084246012104F13E00FFF702FD74
:1007700068B942460A2104F13C00FFF7FBFC30B99E
:10078000234601220DF107017120FFF702FD7206D9
:100790000BD594F83E301B0103F010029DF8073092
:1007A00023F0100313438DF8073033060AD59DF864
:1007B000073023F00F0294F83C3003F00F0313438B
:1007C0008DF8073008AB2B44712203F8102C9DF8EC
:1007D0000720013503F8082CEDB228B923462A4634
:1007E00006A904A8FFF7F9FC84F8447008B0BDE836
:1007F000F081000013B5184B044618689B8802AAC4
:10080000ADF8043091F839300090134491F83A2053
:1008100002A8024412F8082C13F8083C134491F87B
:100820003820024412F8082C134440F2AB725343B0
:1008300003F595534FF47A721933B3FBF2F3013396
:100840009BB2238091F83E201AB1B1F842201344A4
:10085000238002B010BD00BF147B08082DE9F04FC3
:100860008046A9B008460C46FFF725FC054600283F
:1008700040F0858104AF01460F22384606F089FC1E
:100880002046FFF718FC05460A26002D40F071812E
:1008900023460F2239461D20FFF77BFC05469DF8B5
:1008A00010009DF81EE000F00F0388F801309DF85D
:1008B000113020F07F0088F802309DF812309DF84A
:1008C000139000939DF818309DF814C001939DF883
:1008D00019309DF815B002939DF81D309DF8161043
:1008E00003934FFA8EF303F0200A40EA0A0003F064
:1008F0001003184340B200289DF8172088F8000024
:1009000080F23481120942EA011141EA0B3BE18A8B
:10091000B4F918004900C1EBDB010A46CB175B10A4
:100920004FEA320202FB03F6A2FB02234FEA123A1D
:1009300094F91A2003EB46034AEA035A4FEA233B91
:100940001301DF170AFB07F680FB010103FB0B66AF
:10095000AAFB0323C00A3344920B40EA415042EA07
:1009600083428318236303EB830380331B12A8F8AD
:100970000430236B94F926105B10A3F57A4398108A
:100980004043C2125143B4F9242040135A43520049
:1009900002EBA102B4F91E104FEA1C1C4B4394F960
:1009A00020104CEA091949014143C91001EB6303C6
:1009B0009B14A18B03F500434B43D913009BB4F95F
:1009C000280049EA0339B4F92230C9F580191B041B
:1009D00003EBA20240F63543A9EB22325A43B2F1AF
:1009E000804FADBF92FBF1F3520092FBF1F35B003D
:1009F000D9104943B4F92A2049134A439910414375
:100A00001E12491301EB223106FB06F2564394F8FD
:100A10002C2008AF724301EB624294F92710019E2B
:100A200002EBC11203EB2213C8F80830236B94F9D0
:100A30000E1003EB830380331B125943642291FB96
:100A4000F2F194F90D0059435843891190FBF2F0EB
:100A500091FBF2F10144608901F580414143029824
:100A6000891240EA06262089A6EB001694F90C00AC
:100A7000584390FBF2F0A6EB6000484394F9101045
:100A8000414E4B4393FBF2F2E37B02EBC312831321
:100A90005B4312119B12534300EB63034FF47A72D2
:100AA0009B125343394A1B1323EAE3739342D4BF87
:100AB000C8F80C30C8F80C2094F936C00FCE0FC718
:100AC0000FCE0FC70FCE0FC796E80F00103687E87E
:100AD0000F000FCE18AF0FC70FCE0FC70FCE0FC727
:100AE00096E80F0087E80F0040F23C5005230021F4
:100AF000CCFB03010EF00F0628AB03EB860656F87D
:100B0000807C4FEA9E1EA0FB072307FB0133100CDD
:100B100040EA03401914039B4EEA830E4FEACE329B
:100B200056F840EC12F17F42AEFB00670EFB0177F6
:100B30004FF0000343F1FF3312184B41700A40EAB3
:100B4000C75079125F104FEA32068019794106F0DA
:100B500007F8C8F8100095B998F90030002BBABF13
:100B6000012384F8453084F8455008E0236D0A20BD
:100B70009847013E16F0FF067FF487AE022528460F
:100B800029B0BDE8F08F00BF1C7B0808A0860100DB
:100B9000014B01221A7070479802002008B50449E1
:100BA00003F08BF918B1034B03221A70012008BD22
:100BB000837F08080802002001F030BD01F036BD37
:100BC00037B505469DF8184023438DF800303C2387
:100BD00002F0BAFA284603B030BD000030B58FB03D
:100BE000104904A802F04CF804A802F09CF804464E
:100BF00004A802F0F7F8054604A802F0DBF805F0B7
:100C000061F9CDE90201284605F05CF9CDE9000162
:100C1000054B064A53F824304021054801F0A2FF55
:100C20000FB030BD2403002078000020DC7B0808D2
:100C3000400200202DE9D0431A4800231A461946E5
:100C4000406801F037FF40F2E73601F0CBFE4FF489
:100C500096740027002001F001FD80464FF0000946
:100C6000002001F0FBFCB0EB080061EB09018F42B2
:100C700008BF864205D301F0C5FE10B901F0AAFEF7
:100C8000EEE701F0BFFE18B1BDE8D04301F0BABEF7
:100C900001F0ACFC044B186001F09CFE013CF3D069
:100CA000D8E700BF240300201008002008B501F099
:100CB000A1FE064800231A461946406801F002FFCB
:100CC0004FF47A7001F06EFF012008BD240300206C
:100CD0001FB51F4802F088FD1D4802F032FF1D4B72
:100CE0001C781D4BBCB1142241F2E82118481A604F
:100CF00002F0FCFD4FF46171154802F081FE002204
:100D000011460292019200920123114802F0C0FEA6
:100D100041F2700116E01E2241F270010C481A6087
:100D200002F0E4FD40F2DC51094802F069FE0123C3
:100D300021460294019400941A46054802F0A8FE48
:100D400041F21001024804B0BDE8104002F0D3BEE9
:100D500009020020FC0200206C01002000000000BD
:100D60002DE9F84F0D4605F0ADF87FA3D3E9002338
:100D700005F0FCF800227E4B04F046FF05F0A6FBD0
:100D80007C49044605F0F6FB7B4905F0FDFC7B49F8
:100D90000646204605F0F0FB0146304605F0ECFB28
:100DA00077490646284605F0EFFC0146304605F037
:100DB000E3FB4FF07C5105F0E7FC05F083F80022DF
:100DC0006B4B04F01FFF68A3D3E9002305F0F8F98B
:100DD00005F07CFB01460646204605F0CDFB4FF0B2
:100DE0007C5105F0D1FC674905F08AFE002800F02F
:100DF000B3806549204605F0C7FC644905F0BCFB9B
:100E0000214605F0C1FC624905F0B4FB6149074683
:100E1000204605F0B9FC604905F0ACFB214605F021
:100E2000B3FC5E4905F0A8FB294605F0ADFC5C4922
:100E30008246204605F0A8FC5A4905F09DFB214654
:100E400005F0A2FC584905F095FB294605F09CFCED
:100E5000294605F099FC4B498346204605F050FE93
:100E6000002835D05149204605F02CFE002876D0C8
:100E70004F49284605F026FE002870D04D492046EF
:100E800005F078FB05F046FE0028B8BF404205F0AB
:100E900027FC0146484805F06DFB474905F028FD51
:100EA00005F010F803F00CFF8046894640482946BB
:100EB00005F060FB4FF07A5105F066FC05F002F892
:100EC00042464B4605F052F805F000FB064605E0A9
:100ED0002C49204605F014FE0026F0B13749204683
:100EE00005F0F0FDD8B13649284605F009FEB0B14D
:100EF0003349284605F03EFB324905F0F9FC21460E
:100F000005462E4805F036FB2F4905F0F1FC014659
:100F1000284605F039FC044602E0344600E000248F
:100F20005146384605F028FB594605F025FB314669
:100F300005F020FB214605F01FFB04F0C3FF002253
:100F40000B4B04F05FFE08A3D3E9002305F038F94A
:100F500005F0BCFABDE8F88F3046BDE8F88F0026F2
:100F6000BCE700BFAFF30080CDCCCCCCCCCCFC3FF9
:100F700000004040000088429A99993F0000744266
:100F80001283C03D0000A042E00FE0BB11230340EC
:100F900019842942AC0DA13A4826663E164B2241DF
:100FA000F18B05B6C88F5F3AF887603D0000E042DC
:100FB000000050410000BE42000088410000AE42E7
:100FC0000000AA42000020410000A04073B5962214
:100FD0004FF4A071414801F077FA404801F040FA1F
:100FE0003F4B00221146586801F05CFD08B1FFF745
:100FF000F5FD3A4C3B4D206804F064FF3A4AC5E9E0
:101000000001CDE900011021384801F0ABFDA068D6
:1010100004F058FF364ECDE90001C6E90001354A1B
:101020001021354801F09EFD606804F04BFF00225E
:10103000324B05F0C5F8324B324AC3E90001CDE925
:1010400000011021304801F08DFDE06804F03AFF06
:1010500000222E4B05F0B4F82D4B2E4AC3E90001B7
:10106000CDE9000110212C4801F07CFD2B492046E0
:1010700001F0FAF904F026FF294B2A4AC3E90001DE
:10108000CDE900011021284801F06CFD274802F04D
:1010900029FA05F03FFD264A034610601021254A33
:1010A000254801F05FFDD6E9000105F00FFA04467E
:1010B000D5E9000105F00AFA2146FFF751FE1F4B62
:1010C000186004F0FFFE084ACDE9000110211C4819
:1010D00001F048FD012002B070BD00BF8C0100206E
:1010E00024030020E0020020F57B08085C010020BA
:1010F00038020020FD7B0808EC0200200000594067
:1011000088020020057C0808A002002000408F40D3
:10111000100200200E7C0808B002002000507D4420
:1011200010030020187C0808C8020020800100205D
:10113000300200201F7C0808FD02002094020020DD
:101140002002002008B501F051FA044B1B68C01AB8
:10115000B0F57A7F34BF0020012008BD18020020BE
:1011600008B5FFF7EFFF18B1BDE80840FFF7EABF89
:1011700001F030FCF5E7000037B501F03BFC01F071
:1011800035FA43F69725044601F03CFC40B101F0E6
:101190002DFA001BA84203D8642001F003FDF3E7F9
:1011A0000021094B47F23052084601F0E7F94FF4AD
:1011B0007A7001F0F7FC054B0A221B680121684692
:1011C00002F0AEFE03B030BD247C08081C030020F2
:1011D000074B1B68D3F8A820B3F8AC101183D3F8E1
:1011E000A820B3F8AC305383024B00221A7070472A
:1011F000C40200209802002038B5046805467CB17E
:101200006368013B63605BB9236820469B6898472D
:10121000A368013BA3601BB923682046DB6898479D
:10122000284638BD00B5274BD3B01B680E93264B1C
:101230001B680D93254B1B680C93254BD3E90023AA
:10124000CDE90A23234BD3E90023CDE90823224B20
:10125000186804F037FECDE90601204B4FF4807189
:10126000D3E90023CDE904231D4B12A8D3E90023C1
:10127000CDE902231B4BD3E90023CDE900231A4A11
:1012800001F070FC194B002219491B7810A88DF849
:10129000002012AAFFF794FC11A8FFF7ADFF02F09F
:1012A00009FF144B187002F019FF134B012218703C
:1012B000124B1A7001F09AF9114B186053B05DF897
:1012C00004FB00BF1C02002080020020300200202E
:1012D0001003002010020020940200208802002049
:1012E00038020020E0020020317C08087401002050
:1012F000CB7C0808900200200A0200207400002025
:1013000070010020F0B585B0084602AF0E4605F02A
:101310009EFF00F1080323F007036D46ADEB030DBC
:1013200002AC421C3146204605F0AEFF9DF8086035
:101330004EB901F067FB00283BD0204B204A1B78B8
:101340008DF800602EE0204605F00EFEC83801281A
:101350001FD801F057FB60B1184B00221B783846AC
:101360008DF800201749184AFFF72AFC381DFFF7AF
:1013700043FF01F03BF9154B186003F01DF902F033
:1013800092FEC1B20520FFF719FC114B00221A7022
:101390000FE001F037FB60B1084B00221B788DF89D
:1013A0000020224638460B49FFF70AFC381DFFF79C
:1013B00023FFAD460C37BD46F0BD00BF74010020D1
:1013C000DE7C0808057D0808F37C08081802002068
:1013D00074000020E67C080830B5244985B0054635
:1013E00002F06BFD0446D0B1214B01241C7003F0C8
:1013F000E3F80420FFF7E0FB1E4D40F004002870E6
:1014000003F0DAF829780420FFF7D8FBFFF760FC37
:10141000194B00221B788DF80020184A1CE018494F
:10142000284602F04AFDF8B1114B124D1C7003F032
:10143000C3F80420FFF7C0FB20F00400287003F07D
:10144000BBF829780420FFF7B9FBFFF741FC0A4BF2
:101450000C4A1B788DF800400B4902A8FFF7B0FB3F
:1014600003A8FFF7C9FE012005B030BD837F08083F
:10147000FC0200200D030020740100200B7D0808F1
:10148000227D0808247D08083A7D080830B52249E5
:1014900085B0054602F011FD0446C0B11F4B012482
:1014A0001C7003F089F80420FFF786FB1C4D40F008
:1014B0000800287003F080F829780420FFF77EFBED
:1014C000184B00221B788DF80020174A1AE01749A4
:1014D000284602F0F2FCE8B1104B114D1C7003F0ED
:1014E0006BF80420FFF768FB20F00800287003F079
:1014F00063F829780420FFF761FB0A4B0C4A1B783C
:101500008DF800400B4902A8FFF75AFB03A8FFF72C
:1015100073FE012005B030BD837F08088A010020DA
:101520000D030020740100203F7D0808227D08087B
:10153000507D08083A7D080870B5CCB00A2205A98C
:10154000006805F03BFFC5B205F10C03DBB2182BB8
:101550003DD844B2204605F0C3F802F045FD03F043
:101560002BF829460320FFF729FB02F09CFD194EBA
:10157000194D23463060194A4FF4807100240CA89D
:1015800001F0F0FA2B780CAA154908A88DF8004054
:10159000FFF716FB09A8FFF72FFE4FF47A7001F052
:1015A00001FB316808A802F03BFD089B0C4903933E
:1015B000039A2B7806A88DF80040FFF701FB07A8D7
:1015C000FFF71AFE08A802F004FC012000E000204A
:1015D0004CB070BD7C01002074010020657D0808BE
:1015E000797D08087FB52649054602F066FC28B9D2
:1015F0002449284602F061FC00283FD002F0DCFFBD
:101600000420FFF7D9FA204C1D492070284602F02B
:1016100054FC0646A0B11D4B00221B781C498DF8D6
:10162000002002A81B4AFFF7CBFA03A8FFF7E4FD4E
:101630002378012243F001032370174B1A7016E040
:101640001049284602F039FC88B1104B134A1B7828
:101650000F4902A88DF80060FFF7B2FA03A8FFF760
:10166000CBFD237803F07E0323700B4B1E7002F03A
:10167000A3FF04202178FFF7A1FA012004B070BD78
:10168000837F0808227D08080D03002074010020D4
:101690003A7D08087E7D0808C0020020887D080881
:1016A00030B5184D18492A780E2303FB0212174C47
:1016B0008FB02078009203FB0013154A282104A85C
:1016C00001F050FA2B78237001F09CF990B1FFF7EC
:1016D00047FD104B00221B780F498DF8002002A80F
:1016E00004AAFFF76DFA03A8FFF786FD00F07EFF5E
:1016F0000A4B186002F0F4FD04A902F06EFA0FB074
:1017000030BD00BF08020020000000208901002039
:101710009A7D080874010020A87D0808180200209E
:101720007FB5A04C2378013B062B00F2E881DFE86F
:1017300013F06D010700330060008100B700FD0069
:10174000994B1B782BB1994B1B78022B01D0FFF7DB
:10175000A7FF974B1B780BB1FFF73AFD954B1B7812
:101760004BB100F043FF944B1B68C01A934B1B68AE
:10177000984200F2C18102F09DFC914B1B78984287
:101780001CBF032323708F4B1A688F4B1B689A4230
:1017900000F3B58107232AE0834B1A781D462AB14E
:1017A000824B1B78032B01D0FFF77AFFFFF70EFC6B
:1017B0000646D8B90123237000F018FF834B186048
:1017C0002B78002B00F09B81FFF7CAFC804B814AED
:1017D0001B78814902A88DF80060FFF7F1F903A892
:1017E000FFF70AFD00F002FF7C4B21E00423237089
:1017F00085E16D4B1B782BB16C4B1B78042B01D012
:10180000FFF74EFF01F0FEF868B102F053FC0C2820
:1018100005D101F0F7F810B1002001F013F9FFF73E
:1018200001FD0523E3E70123237000F0DFFE674B92
:10183000186064E15C4B1B782BB15C4B1B78052B6B
:1018400001D0FFF72DFF664B1B7843B902232370AD
:10185000644A5A4B1A6000F0C9FE574BE8E700F0A3
:10186000C5FE614B1B68C01A4AF6C873984240F225
:10187000468100F0BBFE554D554B00221B78286079
:101880005A498DF8002002A8594AFFF799F903A890
:10189000FFF7B2FC0123237000F0A8FE28602EE1C0
:1018A000414B1A781C462AB1404B1B78062B01D0BD
:1018B000FFF7F6FE4F4B1D781E465DBB01F0A2F808
:1018C000C8B123788BB1FFF74BFC414B4A4A1B78D8
:1018D000414902A88DF80050FFF772F903A8FFF7FD
:1018E0008BFC00F083FE3D4B18604FF47A7001F0E2
:1018F00059F9FFF7DBF902F05FFE404B022019783F
:10190000FFF75CF93E4B00210720197002F027FE1B
:1019100001233370FFF75CFC02F0D6FB394BC0F1BA
:101920003C003C221B684243022136E01E4B1A78E1
:101930001C462AB11D4B1B78072B01D0FFF7B0FEC8
:1019400001F060F8D0B1237893B1FFF709FC204B88
:1019500000221B7820498DF8002002A82A4AFFF7B0
:101960002FF903A8FFF748FC00F040FE1B4B18605E
:101970004FF47A7001F016F9FFF798F9204B002127
:101980000720197002F0EBFD02F09EFB3C22C0F133
:101990003C001C4B42431B68012102A802F0C0FA24
:1019A000ADE000BF080200208A010020890100206C
:1019B00098020020C0020020D80200209C020020D3
:1019C00090020020300200206C010020E80200207C
:1019D00074010020B97D0808057D08081802002060
:1019E00074000020905F010070010020D37D080882
:1019F000307C080818030020EC7D080880020020D5
:101A0000880100201C030020FB7D08083D4B1B784B
:101A10002BB13D4B1B78012B01D0FFF741FE00F0AD
:101A2000E5FD3A4B1B6803F5922303F57873984262
:101A300065D9374B1B68032B16DC00F0E3FF60B160
:101A4000344B00221B7802A88DF800203249334A1B
:101A5000FFF7B6F803A8FFF7CFFB4FF4FA6001F0E9
:101A6000A1F802F059FA4AE002F01DFB044602F028
:101A7000A3FD0520FFF7A0F8201AB0F5E15F1EDDF9
:101A800000F0C0FF60B1234B00221B7802A88DF844
:101A900000202149224AFFF793F803A8FFF7ACFB87
:101AA0004FF4FA6001F07EF802F086FD002102207A
:101AB000FFF784F80121042002F051FD1FE000F03F
:101AC000A1FF60B1134B00221B7802A88DF8002003
:101AD0001149144AFFF774F803A8FFF78DFB4FF480
:101AE000FA6001F05FF802F067FD00210220FFF7C5
:101AF00065F8FFF741FB02E0062323703BE604B0E4
:101B000070BD00BF8A01002089010020E80200208A
:101B10008002002074010020057D0808127E08085C
:101B2000267E0808407E08081FB50F4902F0C5F957
:101B3000B8B100F067FF58B10C4B00221B7802A827
:101B40008DF800200A49FFF73BF803A8FFF754FB84
:101B50004FF47A7001F026F80420012102F0FFFC16
:101B6000012005B05DF804FB837F080874010020A4
:101B70005F7E08080023042200F01CBF02460148D3
:101B800001F0BBB9CF2E08082DE9F043B9B008AA7F
:101B90001646B84B03F11005144618685968083307
:101BA00003C4AB422246F7D119889B782D22A3703B
:101BB00021800DF133000021AF4F05F0EAFA022534
:101BC000012107203D7002F0B9FC0021052002F040
:101BD000B5FCAA4B01211B680620D3F8A820B3F856
:101BE000AC300024538302F0A9FC0021112002F044
:101BF000A5FC0121042002F0A1FCFFF7E9FA04A8EA
:101C000000F008FF00237D2218A904A802F067F95C
:101C1000234622469A490194009418A800F00AFF2E
:101C200098499948FFF7A6FF23462A4697499848BE
:101C300000F0C0FE9749234604220968964800F048
:101C4000B9FE96499648FFF795FF2346012295492C
:101C5000954800F0AFFE95499548FFF78BFF9549F1
:101C60009548FFF787FF95499548FFF783FF95490A
:101C70009548FFF77FFF95499548FFF77BFF95490A
:101C80009548FFF777FF95499548FFF777FF954906
:101C90009548FFF773FF95499548FFF76FFF954902
:101CA0009548FFF76BFF95499548FFF767FF954902
:101CB0009548FFF763FF02F07FFC2046FEF77CFFAC
:101CC000012819D102F078FC0220FEF775FF6F4C55
:101CD00000222060114602A8029200F077FC029BCD
:101CE000142B1ED123680133236002F065FC217898
:101CF0000220FEF763FF14E002F05EFC01250422DF
:101D000002A92046029500F099FC02F055FC2846F5
:101D1000042202A90135029400F090FC0A2DF4D1AE
:101D2000D0E72368052B07DD02F046FC04210220E2
:101D3000FEF744FFFFF720FA02F03EFC0320FEF717
:101D40003BFF00F10C03DBB2182B03D840B204F0C8
:101D5000C7FC00E0002002F047F902F02DFC04204F
:101D6000FEF72AFFDFF83C8100F00103674C88F89A
:101D70000030674D674BC0F380022070C0F3C00095
:101D80001A702870FEF7A4FF01227721624800F044
:101D90004FFAC14678B900F029FCDFF88C815F4921
:101DA000C8F80000304605F02FFA01233B7000F020
:101DB0001DFCC8F800000421574800F099FB0221DF
:101DC000554800F0A2FB0321534800F0ABFB022171
:101DD000514800F0B4FB96224FF4A0714E4800F039
:101DE00073FBFFF7F3F8052002F0D2FB58B9237814
:101DF00089F8000023F00103237002F0DDFB0421C9
:101E00002078FEF7DBFE464B1A68464B1B689A4269
:101E100002DC07233B700CE0FEF70CFF48B90123FE
:101E20003B7000F0E3FB404B40491860304605F042
:101E3000EBF900244FF0FF33009401223C491120BC
:101E400001F0EEFB2B785BB13A4B02A81B783246CF
:101E50008DF800403849FEF7B3FE03A8FFF7CCF930
:101E600000F0C4FB354B186004A801F0B2FF39B094
:101E7000BDE8F0839C7B080808020020C402002013
:101E800005130808400200206A7E0808800200202E
:101E9000717E0808700000207C7E0808FD0200208A
:101EA000847E0808C00200208F7E08085C010020A4
:101EB0009C7E0808EC020020A87E0808A0020020F2
:101EC000B17E0808B0020020BA7E0808C8020020CF
:101ED000BE7E080820020020C77E08089D0B080867
:101EE000D27E0808291B0808DE7E0808E5150808C8
:101EF000E87E0808D9130808F57E08088D1408083C
:101F0000007F0808391508080D7F08080D03002018
:101F10008A010020FC0200208C010020197F0808A3
:101F2000300200206C010020E8020020377F080802
:101F3000910B080874010020497F0808180200204E
:101F40001B4B70B500241C601A4B01251D7000F05E
:101F50008DFB194B4FF0FF311860184800F050F915
:101F60004FF6FF72164B02201C705C809A8000F0C6
:101F7000D5FC2146284600F0E9FC2946114D0420F5
:101F800000F014FB104E2146284601F06BFA28465B
:101F90000E4D32460E4902F0A9FB2146284601F0BB
:101FA0003AFC32462846BDE870400A4902F09EBB22
:101FB0001C03002074010020C40200208C010020BA
:101FC0007601002080010020580100200902002035
:101FD000833408083538080800F0E4BDF8B5074632
:101FE00014461D460E4602F0FBFA394601F0F3FA9C
:101FF00002F0F6FA036831469B6898472544AC42E4
:1020000007D002F0EDFA036814F8011B9B689847AB
:10201000F5E702F0E5FA01F0E9FA0020F8BD00006A
:102020002DE9F0471B4D804695F90030013305D16D
:102030000146BDE8F047184801F0C2BEDFF85C90E9
:10204000DFF85CA00726002495F90000002180B28B
:1020500002F085FA012799F9000007FA06F101EA72
:10206000080180B202F07BFA95F90000394680B28F
:1020700002F075FA9AF90000640080B2E4B202F04E
:1020800087FA00B13C4316F1FF36DDD22046BDE8A9
:10209000F08700BF21030020540800202203002005
:1020A000200300202DE9F0411F461B4B164693F9F3
:1020B00000200546013288461C460ED1174801F023
:1020C00017FE4021154801F067FE0121134801F079
:1020D00014FE0021114801F013FEADB20021284684
:1020E00002F03DFA4046FFF79BFF3744BE4204D062
:1020F00016F8010BFFF794FFF8E70121284602F0DC
:102100002EFA94F90030013302D1044801F0FBFDAE
:102110000020BDE8F08100BF21030020540800200A
:102120002DE9F0411F461C4B164693F90020054649
:10213000013288461C460ED1184801F0D9FD4021D5
:10214000164801F029FE0121144801F0D6FD0021B6
:10215000124801F0D5FDADB20021284602F0FFF98A
:1021600048F08000FFF75CFF3744BE4205D00020F6
:10217000FFF756FF06F8010BF7E70121284602F0AA
:10218000EEF994F90030013302D1044801F0BBFDAF
:102190000020BDE8F08100BF21030020540800208A
:1021A000F8B5044615461E460F4602F019FA2146B8
:1021B00001F011FA02F014FA036839469B68984757
:1021C00002F00EFA01F012FA02F00AFA2146F2B217
:1021D00001F0F9F984B2A6420DD14FF6FF76013C29
:1021E000A4B2B44209D002F0FBF903685B699847D6
:1021F00005F8010BF3E70120F8BD0020F8BD000051
:1022000010B5084C0177FF212170074C0022217086
:10221000064C026221700275C274827442740274A8
:1022200010BD00BF22030020200300202103002056
:1022300070B50446617590F91C001546421C0E46A7
:102240000CD102F0CDF901F0AFF9012384F826306A
:10225000344B84F82560E366334B2DE0012180B2D6
:1022600002F07DF994F91C00012180B202F066F9B8
:102270002E4B93F90000431C03D12D4801F038FD8B
:1022800011E0012180B202F059F92A4B012193F9A2
:10229000000080B202F052F9274B002193F90000B0
:1022A00080B202F04BF9237F84F82530002384F8B4
:1022B0002630224BE366224B2367224B04F1240095
:1022C0006367FEF700F858BBE5B10222042384F8E7
:1022D0005C2084F85F204FF4A07284F85D30032105
:1022E0000123A4F8642096226374A37484F85E101A
:1022F000E3742374A4F8662084F8610084F86230E3
:10230000237509E00823A4F86450A4F8665084F803
:10231000613084F862502575012084F8680070BD32
:10232000002070BDA1210808DD1F0808210300203E
:102330005408002022030020200300202121080847
:10234000A5200808D91F080873B5056A044645BBCF
:10235000012380F86830A37C407C0BB140F004007E
:10236000E37C0BB140F00200237C0BB140F0100085
:10237000237D0BB140F0C80004F124063146FEF77E
:10238000C2F870B93046FEF77FF850B931460DF10A
:102390000600FEF72FFA00F029F9BDF806500544B3
:1023A0002562284602B070BD30B587B00546FFF7FC
:1023B000CBFF0446002849D000F018F9844203D925
:1023C000201A400000F0EEFB00242C6205F12401ED
:1023D00001A8FEF743FA002838D16B7C5BB1BDF948
:1023E000080003F05DFD00221A4B03F0E9FE04F043
:1023F0006DF8286001E0184B2B60AB7C53B104985A
:1024000003F03EFD0022154B03F0DAFE04F05EF807
:10241000A86001E0104BAB60EB7C23B1039804F0A3
:102420005BF9686001E00C4B6B602C7D5CB19DF842
:102430000430DB0604D5059804F04EF9E86005E0A9
:102440000023EB6002E0044B0124EB60204607B060
:1024500030BD00BF000059400000C07F00408F40E9
:10246000FFF7A2BF0000000038B505460C46FFF795
:10247000F7FF6868124904F03BFA214604F038FA85
:1024800003F020FD0AA3D3E9002302F081FA0246FB
:102490000B4600200B4903F0B5FB07A3D3E900234B
:1024A00003F064FD04F012F838BD00BFAFF3008004
:1024B000EBE2361AC05BC83F0000000040A5E540D3
:1024C0000000C8420000F03FA0F86410A0F86620A9
:1024D00001B122B9082380F86130002303E0002312
:1024E00080F86130012380F8623003750120704765
:1024F0000529034607D880F85D10012009B95974F1
:10250000704758747047002070470529034607D864
:1025100080F85C10012009B999747047987470476D
:10252000002070470529034607D880F85E10012077
:1025300009B9D9747047D8747047002070470729CB
:10254000034607D880F85F10012009B91974704755
:10255000187470470020704700F088B808B5024B27
:102560001B68DB6B019308BD2000060808B5024B11
:102570001B685B6C019308BD2000060808B5024B80
:102580001B689B6C019308BD2000060808B5024B30
:102590001B681B6B019308BDD001040808B5024BF2
:1025A0001B681B6C019308BDD001040808B5024BE1
:1025B0001B685B6E019308BDB801040808B5024BA7
:1025C0001B689B6E019308BDB801040808B5024B57
:1025D0001B68DB6E019308BDB801040808B5024B07
:1025E0001B685B68019308BD9C01040808B5024B99
:1025F0001B685B69019308BD9C01040808B5024B88
:102600001B68DB69019308BD9C01040808B5024BF7
:102610001B689B6A019308BD9C01040808B5024B26
:102620001B68DB6A019308BD9C01040808B5024BD6
:102630001B681B6B019308BD9C01040808B5024B85
:102640001B689B6C019308BD9C01040808B5024BF4
:102650001B689B6D019308BD9C01040808B5024BE3
:102660001B68DB6D019308BD9C01040808B5024B93
:102670001B681B68019308BDB001040808B5024B34
:102680001B689B68019308BDB001040808B5024BA4
:102690001B68DB68019308BDB001040808B5024B54
:1026A0001B681B69019308BDB001040808B5024B03
:1026B0001B685B69019308BDB001040808B5024BB3
:1026C0001B689B69019308BDB001040808B5024B63
:1026D0001B68DB69019308BDB001040808B5024B13
:1026E0001B68DB68019308BDAC01040808B5024B08
:1026F0001B685B69019308BDAC01040808B5024B77
:102700001B689B69019308BDAC01040808B5024B26
:102710001B68DB69019308BDAC01040808B5024BD6
:102720001B681B6A019308BDAC01040808B5024B85
:102730001B685B6A019308BDAC01040808B5024B35
:102740001B689B6A019308BDAC01040808B5024BE5
:102750001B68DB6A019308BDAC01040808B5024B95
:102760001B681B6B019308BDAC01040808B5024B44
:102770001B685B6B019308BDAC01040808B5024BF4
:102780001B681B6C019308BDAC01040808B5024B23
:102790001B689B6C019308BDAC01040808B5024B93
:1027A0001B68DB6C019308BDAC01040808B5024B43
:1027B0001B681B68019308BDB401040808B5024BEF
:1027C0001B689B68019308BDB401040808B5024B5F
:1027D0001B68DB68019308BDB401040808B5024B0F
:1027E0001B681B69019308BDB401040808B5024BBE
:1027F0001B685B69019308BDB401040808B5024B6E
:102800001B68DB69019308BDB401040808B5024BDD
:102810001B681B6A019308BDB401040808B5024B8C
:102820001B685B6A019308BDB401040808B5024B3C
:102830001B689B69019308BDC401040808B5024BDD
:102840001B685B6A019308BDC401040808B5024B0C
:102850001B689B6A019308BDC401040808B5024BBC
:102860001B68DB6A019308BDC401040808B5024B6C
:102870001B681B6B019308BDC401040808B5024B1B
:102880001B685B6B019308BDC401040808B5024BCB
:102890001B689B6B019308BDC401040808B5024B7B
:1028A0001B681B6C019308BDC401040808B5024BEA
:1028B0001B681B68019308BD1C00060808B5024B85
:1028C0001B681B69019308BD1C00060808B5024B74
:1028D0001B685B69019308BD1C00060808B5024B24
:1028E0001B689B69019308BD1C00060808B5024BD4
:1028F0001B68DB69019308BD1C00060808B5024B84
:102900001B681B6A019308BD1C00060808B5024B32
:102910001B681B68019308BDA401040808B5024B9D
:102920001B685B68019308BDA401040808B5024B4D
:102930001B685B69019308BDA401040808B5024B3C
:102940001B689B69019308BDA401040808B5024BEC
:102950001B68DB6A019308BDA401040808B5024B9B
:102960001B68DB6C019308BDA401040808B5024B89
:102970001B685B6D019308BDA401040808B5024BF8
:102980001B689B6D019308BDA401040808B5034BA7
:102990001B68D3F89030019308BD0000A40104081F
:1029A00008B5034B1B68D3F89C30019308BD0000A9
:1029B000A401040808B5024B1B681B68019308BDFD
:1029C000CC01040808B5024B1B685B68019308BD85
:1029D000CC01040808B5024B1B689B68019308BD35
:1029E000CC01040808B5024B1B68DB68019308BDE5
:1029F000CC01040808B5024B1B681B69019308BD94
:102A0000CC01040808B5024B1B685B69019308BD43
:102A1000CC01040808B5024B1B68DB69019308BDB3
:102A2000CC01040808B5024B1B681B6A019308BD62
:102A3000CC01040808B5024B1B685B6A019308BD12
:102A4000CC01040808B5024B1B68DB6A019308BD82
:102A5000CC01040808B5024B1B681B6B019308BD31
:102A6000CC01040808B5024B1B68DB6B019308BD61
:102A7000CC01040808B5024B1B685B68019308BDD4
:102A8000C801040808B5024B1B689B68019308BD88
:102A9000C801040808B5024B1B68DB68019308BD38
:102AA000C801040808B5024B1B681B69019308BDE7
:102AB000C801040808B5024B1B685B69019308BD97
:102AC000C801040808B5024B1B689B69019308BD47
:102AD000C801040808B5024B1B68DB69019308BDF7
:102AE000C801040808B5024B1B681B6A019308BDA6
:102AF000C801040808B5024B1B681B6B019308BD95
:102B0000C801040808B5024B1B685B6B019308BD44
:102B1000C801040808B5024B1B681B68019308BD77
:102B2000A001040808B5024B1B685B68019308BD4F
:102B3000A001040808B5024B1B689B68019308BDFF
:102B4000A001040808B5024B1B681B69019308BD6E
:102B5000A001040808B5024B1B689B69019308BDDE
:102B6000A001040808B5024B1B68DB69019308BD8E
:102B7000A001040808B5024B1B68DB6A019308BD7D
:102B8000A001040808B5024B1B681B6B019308BD2C
:102B9000A001040808B5024B1B68DB6B019308BD5C
:102BA000A00104080021FFF7C1BE10B583680446E8
:102BB0000BB901F0A2FDC3689847A3681BB10322BB
:102BC0002146204698472046BDE81040102101F0DC
:102BD00092BD002211464068FFF764BF2DE9FF4116
:102BE000002604AC054610468846174644F8046D96
:102BF00004F02DFB009681B2D8F804302246384606
:102C0000FFF7ACFC20B13146284600F063FD03E03D
:102C10002146284600F056FD284604B0BDE8F08164
:102C2000002211464068FFF75DBF00221146406850
:102C3000FFF768BF00224068FFF75CBF002281F009
:102C400001014068FFF746BF00231A461946406855
:102C5000FFF738BF00231A4619464068FFF72ABF1E
:102C6000002211464068FFF70DBF00220221406894
:102C7000FFF710BF00231A464068FFF7FBBE0000B5
:102C8000F0B50F461A4B002503601826283389B08B
:102C900043608560C560324629460446103004F022
:102CA00078FA2A4629467868FFF7FCFE08B9A06042
:102CB0001BE02946324602A80095019504F069FA06
:102CC00002A96846ADF80860FFF750FC10B1012377
:102CD000A3600AE0009B019AA360E2600BB90223A3
:102CE000A36002A9204600F095F8204609B0F0BD87
:102CF000C47F080838B5084C28252A4600212046FC
:102D000004F047FA4FF0FF336360044B04225A602B
:102D1000034A25801A6038BD2C03002024030020BC
:102D2000907F08087047007D7047000008B5037D5C
:102D30001BB18069B0F1004F01D1002008BD03F044
:102D4000CFFC024903F0D4FD08BD00BF0000C8421B
:102D500008B5037D1BB1006AB0F1004F01D100201E
:102D600008BD03F0BDFC024903F0C2FD08BD00BF71
:102D70000000C84270B50D4606460A228168284602
:102D800000F083FF2C210446284600F017FF0A229A
:102D90000444F168284600F078FF204470BDA0F19B
:102DA0000400FFF7E7BF10B50446282101F0A3FC9B
:102DB000204610BD08B5037D5BB1406A002808DBE2
:102DC00003F08EFC044903F093FD044903F0DCFC9E
:102DD00008BD034808BD00BF00FF7F470000C84290
:102DE000000080BF08B5037D5BB1C069002808DB27
:102DF00003F076FC044903F07BFD044903F0C4FCB6
:102E000008BD034808BD00BF00FF7F470000C8425F
:102E1000000080BF30B50D4600F110040FCD0FC487
:102E200095E8030084E80300012030BD70470020CE
:102E3000704710B50446102101F05DFC204610BD1E
:102E400008B508B1FFF7F5FF08BD10B58368044663
:102E500013B1032201469847204610BD00220260AC
:102E60004FF69C72828010B5B1F9044084808A804C
:102E700002680C6804600A6010BD10B50446006862
:102E8000FFF750FE204610BD38B5C468F4B1237872
:102E9000022B03D104F10C00FFF7EFFF656835B199
:102EA0002846FFF7D2FF1021284601F024FCA56830
:102EB00035B12846FFF7C9FF1021284601F01BFC59
:102EC0002046BDE83840142101F015BC38BD10B5CE
:102ED00088B00446684600F0C3FF694604A800F0C5
:102EE000E1FF04A8A047044604A800F072FF68466A
:102EF00000F06FFF204608B010BDF0B507460E4643
:102F0000154685B0102422460021684604F041F998
:102F1000002269461046ADF80040029703960195DD
:102F2000FFF750FD05B0F0BD13B5044691E805006C
:102F300000234B600B602060626001A80193009346
:102F4000FEF75AF9204602B010BD0B68036013B1BA
:102F50005A6801325A607047F7B50C4606460F466C
:102F600054F8043B02AD45F8083D214601A8FFF79F
:102F7000ECFF29463046FFF7D7FF01A8FEF73CF9E2
:102F80002046FEF739F93846082101F0B4FB3046F7
:102F900003B0F0BD13B50B46044603C88DE803002B
:102FA00093E8030084E803009DE8030083E803003E
:102FB00002B010BD38B500230446036010200D4652
:102FC000FDF76DF828B1012343608360024BC560B3
:102FD00003602060204638BDF87F0808826810B57D
:102FE0000AB901F08AFBC368BDE81040184708B56C
:102FF000006800F11001FFF7F1FF08BD826810B50D
:103000000AB901F07AFBC368BDE81040184708B55B
:10301000006800F11001FFF7F1FF08BD38B500238B
:1030200083608B6804460D462BB102229847EB68FB
:10303000E360AB68A360204638BD0000F0B589B0FE
:1030400004686846FFF70AFF4FF0020200238DF87C
:103050000830D4E84F3F002B03D1C4E8412F0029AA
:10306000F7D102D08DF8083063E014F10C0503D0DD
:1030700069462846FFF7F2FEBFF35F8F01236370B6
:10308000BFF35F8F04F10803002053E8006F43E8AB
:103090000002002AF9D1BFF35F8F002E49D0FFF75D
:1030A0005DFC20B129463046FFF798FF3AE03146F3
:1030B00002A8FFF7B3FFE068B4F9105008B104F0BC
:1030C000ABF806901020ADF81C50FCF7E8FF054661
:1030D000E8B1002787601820FCF7E1FF044688B1BB
:1030E0000146876002A8FFF755FF049BA268A36012
:1030F000059B0492E26806A9E36004F110000592C2
:10310000FFF7ACFE0D4B2C60EB600D4BAB6006A8DF
:10311000FFF7B3FE02A8FFF798FE002229460948F0
:10312000FFF724FC3046FFF790FE1021304601F0F7
:10313000E2FA6846FFF7A1FE09B0F0BDEF2F0808DC
:1031400065320808AB2B08082DE9F04F8BB0064616
:103150000F46904699469DF850A0FFF753FC07ADE7
:10316000834630BB4FF62E73059005A92846ADF86F
:103170001830FFF773FE1420FCF791FF044658B196
:103180000223037001234370C0F804B0C0F808B0F4
:1031900029460C30FFF762FE3046214640F8044BCA
:1031A000FFF708FF2846FFF768FE05A8FFF765FE52
:1031B00052E000240C2314206C60AC600793FCF7F1
:1031C0006EFF014618B1047044704460846004A826
:1031D0000391FFF7EFFE224B08200893FCF75FFFF7
:1031E000044628B1039B04A940F8043BFFF7ADFE59
:1031F00000955FFA8AF34A46414638460994FFF73C
:1032000011FC20B9039B5B7803F0FF0283B1039BA1
:1032100004A906A80593FFF798FE05A93046FFF715
:1032200083FE06A8FDF7E8FF04A8FDF7E5FF13E01D
:103230004FF69C7305A903A80592ADF81830FFF767
:10324000FDFE05A8FFF719FE05A80999FFF784FE02
:1032500006A8FDF7D1FFDAE730460BB0BDE8F08FE6
:10326000D5330808022AF8B5044606D0032A17D039
:10327000012A22D10B6803601FE018200E68FCF7BA
:103280000EFF054650B13146FFF7C8FE3069B6F96A
:10329000147008B103F0C0FF2861AF8225600CE014
:1032A000046854B104F11000FFF7E7FD2046FFF772
:1032B000CCFD1821204601F01EFA0020F8BD38B5DB
:1032C000002383608B6804460D462BB10222984789
:1032D000EB68E360AB68A360204638BD022A70B596
:1032E000044606D0032A11D0012A18D10B680360C6
:1032F00015E014200E68FCF7D2FE054620B13146D9
:10330000FFF7DDFF337C2B74256008E0046834B1DF
:103310002046FFF79AFD1421204601F0ECF9002029
:1033200070BD0000F0B50C46BFF35F8F87B000237F
:1033300050E8006F40E80032002AF9D1BFF35F8FF8
:10334000002E3FD01846FFF709FB074620B1214663
:103350003046FFF753FE2EE0314601A8FFF7AFFFDE
:10336000237810208DF81430FCF799FE0546D0B173
:1033700087601420FCF793FE044678B1876001460D
:1033800001A8FFF707FE039BA268A360049B0392BA
:10339000E268E3609DF81430049223740A4B2C60B9
:1033A000EB600A4BAB6001A8FFF74FFD00222946F6
:1033B0000748FFF7DBFA3046FFF747FD102130469C
:1033C00001F099F907B0F0BD0F300808DD320808A8
:1033D000AB2B080830B5044685B00D46684611464B
:1033E000FFF7BAFD7CB124B228460DB103F014FFFB
:1033F000029002A96846ADF80C40FFF71FFE02A834
:10340000FFF73BFD1DE04FF0010200988DF80840EA
:10341000D0E84F3FA34203D1C0E8412F0029F7D1A4
:1034200002D08DF808300CE010F10C014FF00103D0
:1034300018BF0373BFF35F8F043000F8033CFFF73E
:1034400071FF01A8FDF7D8FE05B030BD006800F09F
:10345000D4B810B50446016002710AB1FFF7F6FF57
:10346000204610BD38B504460D4601F0D9F82A466D
:1034700001462046FFF7EDFF204638BD006800F00A
:10348000C5B810B5037904460BB1FFF7F7FF204626
:1034900010BDF8B504460F4616461D46FFF7D6FF89
:1034A0002068362100F09BF82068394603689B6845
:1034B00098470121206800F095F802223621012367
:1034C000206800F083F8206803685B6998473070D3
:1034D000206803685B69984728702046BDE8F8407B
:1034E000FFF7CCBF13B5002202AB03F8012D8DF816
:1034F000062004210DF10602FFF7CBFF9DF807001F
:1035000002F0CEFC0022084B02F030FD02F0DEFF9C
:1035100004469DF8060003F0E3F80146204603F058
:103520002BF802B010BD00BF0000703F7047F8B527
:10353000064615460C468F18BC4206D0336814F870
:10354000011B9B6830469847F6E72846F8BD0022E5
:10355000007CFFF7E3B80021007CFFF7E7B800210B
:10356000007CFFF7EBB80021007CFFF7EFB80021EB
:10357000007CFFF7F3B810B50446142101F0BBF846
:10358000204610BD10B5044608464FF47A73A36078
:10359000044B0021207461602360FFF7EFF82046A0
:1035A00010BD00BF1480080800231A461946007C8D
:1035B000FFF794B813B50024007C0094FFF796F849
:1035C000C0B202B010BD0123FFF7F4BFDBB2D2B22C
:1035D000C9B2FFF7EFBF0022007CFFF78FB8C9B276
:1035E000FFF7F9BF0022007CFFF790B80121FFF739
:1035F000F9BF0021007CFFF7B9B808B50021007CB5
:10360000FFF7C4F8B0FA80F0400908BD08B5002102
:10361000007CFFF7C3F8B0FA80F0400908BD00470E
:10362000F0B51C4685B00E4617460546FFF74EF826
:10363000002084424FF0040303908DF80C30B4BF97
:1036400003469DF828303246A4BF8DF80E3003ABF8
:10365000009306493B462846A8BF8DF80D40FFF76A
:103660002DF8B0FA80F0400905B0F0BD1F3608080B
:10367000704710B50446082101F03DF8204610BD02
:10368000F8B50F4600F10806051D002416F8011DC7
:103690000A22384600F0D5FAAE42044407D0002C86
:1036A000F4D02E21384600F089FA0444EEE7204693
:1036B000F8BD0000024A026000224260704700BF6D
:1036C0003C800808024A02600A684260704700BFF6
:1036D0003C800808014A4160026070473C8008084D
:1036E00010B59DF8084044EA032343EA024242EA47
:1036F0000161416010BD000037B5044D05609DF8C3
:1037000018500095FFF7ECFF03B030BD3C8008086F
:10371000014A024B1A607047BE800808540300201B
:1037200000231A464068FFF7A5B90022022140682D
:10373000FFF7B0B9002211464068FFF7A3B9002295
:1037400011464068FFF7AEB900231A461946406893
:10375000FFF7B0B900231A4619464068FFF7B2B91F
:10376000002281F001014068FFF7B4B900224068EF
:10377000FFF7C0B9002211464068FFF7C3B9002225
:1037800011464068FFF7AEB9F0B5174687B0054659
:1037900004A8FFF78FFF002606AC384644F80C6DEE
:1037A00003F055FD0A4B009681B25B68224638460D
:1037B000FEF7D4FE20B131462846FFF78BFF03E029
:1037C00021462846FFF77EFF284607B0F0BD00BF20
:1037D00024030020024B034A1A6000225A607047FB
:1037E000580300203081080808B500F019FFFFF7E2
:1037F00000FF18B900F014FFFFF7D6FE00F010FF2D
:10380000BDE80840FFF7F5BE08B500F009FFBDE8C8
:103810000840FFF7F2BE10B50446017009B1FFF78A
:10382000F3FF204610BD08B500F0FAFEBDE80840E1
:10383000FFF7ECBE10B5037804460BB1FFF7F3FFBA
:10384000204610BD10B504460068FFF7ECFF204687
:1038500010BD37B502AC0D4644F8040DFFF7D4FF98
:1038600000F0DEFE6B21FFF7BAFE00F0D9FE036820
:1038700029469B68984700F0D3FE0121FFF7B2FE6E
:1038800000F0CEFE01231A466B21FFF79FFE00F0E9
:10389000C7FE03685B69984705462046FFF7D2FFDD
:1038A000E8B203B030BD73B502AC15460E4644F81D
:1038B000040DFFF7A9FF00F0B3FE6B21FFF78FFEA9
:1038C00000F0AEFE036831469B68984700F0A8FE02
:1038D000036829469B68984700F0A2FE0121FFF784
:1038E00081FE2046FFF7AEFF02B070BD37B504463B
:1038F0000D460190FFF788FF00212046FFF7A9FF42
:1039000041F258139D4200F087025BD020D841F26B
:1039100018039D424DD00CD840F678739D4242D09A
:1039200040F6C8739D4241D040F628739D4260D155
:1039300059E041F2B8039D423ED041F208139D4246
:103940003DD041F268039D4253D142F020024AE04B
:1039500041F298239D423ED00ED841F2F8139D4289
:1039600033D041F248239D4232D041F2A8139D4208
:103970003FD142F0400236E041F238339D422DD033
:1039800006D841F2E8239D4233D142F060022AE09A
:1039900041F288339D4224D041F2D8339D4228D150
:1039A00042F078021FE042F008021CE042F01002F0
:1039B00019E042F0180216E042F0280213E042F04B
:1039C000300210E042F038020DE042F048020AE016
:1039D00042F0500207E042F0580204E042F0680270
:1039E00001E042F0700220460021FFF75CFF012455
:1039F00000E0002401A8FFF725FF204603B030BDFA
:103A000037B504460D460190FFF7FEFE0021204623
:103A1000FFF71FFFB5F5617F00F0F80223D007D84C
:103A2000962D1AD0B5F5FA7F1AD0642D29D122E04F
:103A300040F2DC539D4219D005D8B5F5966F20D1E0
:103A400042F0040217E0B5F5FA6F12D040F6B83331
:103A50009D4216D142F007020DE042F001020AE059
:103A600042F0020207E042F0030204E042F00502E5
:103A700001E042F0060220460021FFF714FF012476
:103A800000E0002401A8FFF7DDFE204603B030BDB2
:103A9000F7B50C46174605461E460190FFF7B4FEE3
:103AA000002C0CBF0024802417B144F04004E4B281
:103AB0000EB144F020049DF820300BB144F0100406
:103AC0009DF824300BB144F008049DF828300BB168
:103AD00044F0040402212846FFF7BBFE00F0010277
:103AE000224302212846FFF7DEFE01A8FFF7AAFEC7
:103AF000012003B0F0BD37B504460D460190FFF735
:103B000083FE04212046FFF7A4FE41F210039D42EC
:103B100000F0030206D041F270039D420AD142F048
:103B2000B00201E042F0980220460421FFF7BBFEFC
:103B3000012400E0002401A8FFF784FE204603B022
:103B400030BD37B5054602AC44F8040DFFF75CFE06
:103B500005212846FFF77DFE052100F0CE0228460C
:103B6000FFF7A1FE2046FFF76DFE012003B030BD38
:103B7000F8B506460D468F180024BD420CD03368B8
:103B800015F8011B9B6830469847002801DB044468
:103B9000F3E7002C08BF04462046F8BD70B5054683
:103BA0000C46084649B103F052FB2B6802462146F9
:103BB0002846BDE87040DB68184770BD03689B6805
:103BC000184738B50D210546FFF7F8FF0A210446CE
:103BD0002846FFF7F3FF204438BD38B50546FFF708
:103BE000DDFF04462846FFF7ECFF204438BD012ADC
:103BF00098BF0A2230B50B468BB000218DF82410F7
:103C00000DF12304B3FBF2F505FB1233DBB2092BF4
:103C100094BF30333733DBB2214604F801392B46E9
:103C2000002DEFD1FFF7BAFF0BB030BD10B422B9B1
:103C30000368C9B29B6810BC1847D2B210BCFFF72A
:103C4000D6BFFFF7F3BF2DE9F04107460E461546F4
:103C50002AB9BDE8F0410368C9B29B6818470A2A2F
:103C600002D1002901DA04E0D2B2BDE8F041FFF749
:103C7000BEBF2D21FFF7A2FF2A46044671423846F7
:103C8000FFF7B5FF2044BDE8F081FFF7DCBF10B5BA
:103C90000446FFF7DAF8204610BD00000348002371
:103CA0008360034A034900F021BD00BF6003002088
:103CB000580100208F3C0808704710B504461021B9
:103CC00000F019FD204610BD70B504460E46074BA6
:103CD0000025036040F80C5FFEF758FC3046267163
:103CE000FEF78CFDA560204670BD00BF648108080A
:103CF0004FF6FF710079FEF759BD0079FEF75EBD02
:103D00000079FEF763BDC068FEF748BC054A002392
:103D1000995C814202D00133082BF9D1581CC0B202
:103D2000704700BF6C810808400830B51860002457
:103D30001868E5B2884206D90134082C02D0400840
:103D40001860F5E70725024B5B5D137030BD00BFBF
:103D50006C81080870B5044602FB01F588B006794D
:103D60001422002103A803F014FA0B2303A9304600
:103D70000022ADF80C30FEF751FD02AB0DF1070249
:103D800029460498FFF7D0FF20799DF80710FEF729
:103D900025FD029808B070BD38B50446A5680846F0
:103DA0004DB1FFF7B3FF012225FA00F12046BDE82F
:103DB0003840FFF7CFBF2079BDE83840FEF70EBD91
:103DC00008B50079FEF712FDC0B208BD0079FEF714
:103DD0001DBD10B504460068FEF7A4FE204610BDC8
:103DE00010B50446006808B1FEF79CFE002323606E
:103DF000A360636010BD38B504460D46006801310C
:103E0000FEF798FE10B184E82100012038BD10B5FE
:103E10000368044613B143688B4207D22046FFF77C
:103E2000EAFF20B1A3680BB922681370012010BD0E
:103E300070B50E46114604461546FFF7E8FF18B95F
:103E40002046FFF7CDFF09E02A463146A5602068ED
:103E500003F094F92268A3680021D154204670BD74
:103E600038B50023044603604360836003730D4646
:103E700039B1084603F0EBF9294602462046FFF720
:103E8000D7FF204638BD884210B50B46044607D000
:103E9000096819B19A68FFF7CBFF01E0FFF7A0FFAF
:103EA000204610BD10B504460023036043608360C4
:103EB0000373FFF7E8FF204610BD08B582680B4684
:103EC00012B919B9012008BD11B90368187802E0C8
:103ED000006803F08FF9B0FA80F0400908BD70B5B2
:103EE0000E469AB191B185689D4202D800230B70AD
:103EF00070BD541EED1AAC4228BF2C460168224604
:103F00001944304603F0C0F90023335570BD014613
:103F100000228C20FEF752BB0020FFF7F8BF000004
:103F200010B50446084611461A460023FEF706FD62
:103F3000064B00221A704FF6FF7258809A801A685A
:103F40009B882260A380204610BD00BF7003002024
:103F50004FF6FF72034B0020187058809A80FEF7CE
:103F6000DDBC00BF70030020F0B5144B144F1E6879
:103F7000144B064418683B6806449E428BB01BD025
:103F80000AA840F8286D03F001F80446436901AD22
:103F900003F26C7343610FCC0FC50FCC0FC5D4F87F
:103FA00000E0094CC5F800E001AD0FCD0FC40FCD06
:103FB0000FC43E60C4F800E00BB0F0BDA8030020C1
:103FC000A4030020A00300207803002008B50020EF
:103FD000FEF740FD28B1FEF715FD80F00100C0B2EC
:103FE00008BD012008BD000010B50949044602F0D3
:103FF00069FD60B90749204602F082FD38B90649DB
:10400000204602F0C1FB02F085FD044B186010BD94
:10401000000040C10000604100006145A80300208D
:1040200037B50E4B04461B6802A819440C4B1B689D
:10403000194440F8041D02F0A9FF02F059FF05469B
:1040400003F005F90023284400F8013C29462046E6
:10405000FFF706FF204603B030BD00BFA8030020D5
:10406000A003002010B50020FEF7F0FA044668B95E
:10407000FEF74CFC01280BD12046FEF77FFC38B937
:10408000FFF7A4FF30B9FEF7A5FCF9E7012010BD4A
:10409000002010BDFFF79AFF0020FEF7D7FA00308E
:1040A00018BF012010BD08B5FFF7DCFFBDE80840D0
:1040B000FEF7A4BA08B5FFF7F6FFFFF755FF014B6F
:1040C000986808BD7803002008B5FFF7ECFFFFF7FC
:1040D0004BFF014B586808BD7803002008B5FFF777
:1040E000E2FFFFF741FF014BD86808BD78030020CD
:1040F000024B1A68024B1A60704700BF98000020FC
:104100009C03002070474174704708B5007CFEF79F
:10411000C5FB20EAE07008BD08B5007CFEF796FB01
:1041200020EAE07008BD08B5007CFEF79FFB30EA8E
:10413000200028BF4FF0FF3008BD08B5007CFEF717
:104140008DFB30EA200028BF4FF0FF3008BD007C17
:10415000FEF794BB10B50446142100F0CCFA2046BB
:1041600010BD70B5457C04460E4625B9007CFEF7AF
:1041700095FB002805DD3146207CBDE87040FEF748
:104180005DBB284670BD000010B5044608461146C8
:10419000002262604FF47A72A260054A20742260A5
:1041A000012262741A46FEF741FB204610BD00BF93
:1041B000A4810808007CFEF769BB000038B50C4DEF
:1041C000296811F0010411D12846FBF76CFF68B192
:1041D000084A2146084B0948FFF7D6FF2846FBF757
:1041E00067FF074A0749054800F080FA034838BDD1
:1041F0004404002048040020C0030020AC03002039
:10420000580100200541080841747047704708B5FF
:104210000021007CFEF762FB30EA200028BF4FF04F
:10422000FF3008BD08B50121007CFEF757FB30EADE
:10423000200028BF4FF0FF3008BD08B5007CFEF716
:1042400045FB20EAE07008BD08B5007CFEF736FBB0
:1042500020EAE07008BD007CFEF750BB10B50446B4
:10426000142100F048FA204610BD38B50446007C01
:104270000D46FEF72BFB002801DC607C28B12946A7
:10428000207CFEF733FB20EAE07038BD10B5044611
:10429000002363604FF47A73A360054B08462360E4
:1042A0000123217463741146FEF700FB204610BD04
:1042B000D481080810B504461422002102F069FFD9
:1042C000054B20466360054BE36040F201132381F8
:1042D0008123238210BD00BF51050020D00400209F
:1042E00030B50E4D87B001A8FFF7E4FF296811F043
:1042F000010410D12846FBF7D6FE60B101AA214681
:104300000748FFF7C3FF2846FBF7D2FE054A0649D8
:10431000034800F0EBF9024807B030BDCC040020A0
:1043200054060020580100200D42080810B504462C
:104330001422002102F02DFF054B20466360054B3F
:10434000E36040F2011323818123238210BD00BF6B
:10435000040700206C06002010B50E4C86B001A8A2
:10436000FFF7E4FF2368DB0710D42046FBF79BFE32
:1043700060B101AA01210848FFF788FF2046FBF73A
:1043800097FE064A0649044800F0B0F9024806B014
:1043900010BD00BF68060020F00600205801002074
:1043A0000D42080808B5184B33B1FFF799FF0368B1
:1043B0001B69984700281EDC144B33B1FFF7FEFE43
:1043C00003681B699847002818DC114B0BB1AFF349
:1043D0000080104B0BB1AFF300800F4B0BB1AFF36C
:1043E00000800E4B7BB1FFF7B7FF03681B6998474E
:1043F000002806DC08BDAFF30080DDE7AFF30080E6
:10440000E3E7AFF3008008BD0000000000000000FB
:10441000000000000000000000000000000000009C
:1044200008B5FFF7BFFFFEF7E1F8014B186008BDC4
:10443000100800200248034A0349121A02F09EBEE7
:104440000040024004400240B884080807B5002339
:1044500000931A466FF07701FEF7A2FA03B05DF8F9
:1044600004FB000007B543880A2B08D0502B09D164
:10447000094B1B683BB103B05DF804EB1847FFF72D
:10448000E5FF06E0002300931A466FF07701FEF780
:1044900087FA03B05DF804FB0808002038B5104C1B
:1044A000104D2368AB42104B0CBF012200221A7042
:1044B00002D0FFF7BFFF2560FEF790F8044602F038
:1044C00071FE0A4B13B12046AFF30080002107486C
:1044D000FEF7C8FABDE8384000210548FEF756BA95
:1044E000004002401E1C279A0C080020000000001B
:1044F0006544080810B504460F48FFF767FC28B16B
:10450000A4F10D03022B01D8002010BD00F068F8C3
:10451000FFF76FF808B1012CF6D9FFF74FFEFFF750
:1045200049FE18B1A4F11203012BEDD92E2C8CBF3A
:104530000020012010BD00BF540800202E2838B5EF
:1045400004460D460AD8FF2908D0FFF7D3FF28B14B
:1045500029462046BDE83840FEF790B838BD38B54A
:1045600004460D46FEF792F8FF2810D0062804D81E
:104570004D2323FA00F0C30709D42046FFF7BAFF02
:1045800028B129462046BDE83840FEF787B838BD37
:1045900010B50446FEF77AF80438C0B2012808D9ED
:1045A0002046FFF7A7FF20B12046BDE81040FEF7E8
:1045B0007DB8002010BD000010B5074C2368DB0754
:1045C00008D42046FBF76FFD20B1FEF71FF8204608
:1045D000FBF76EFD014810BD1408002018080020EC
:1045E00038B50B4D296811F001040FD12846FBF7AF
:1045F0005AFD58B121460748FEF7C4FF2846FBF78D
:1046000057FD054A0549034800F070F8014838BDD8
:104610001C08002034080020580100202D3508080F
:1046200010B50B4C2368DB070FD42046FBF73BFD8E
:1046300058B102210748FEF7A5FF2046FBF738FDD9
:10464000054A0649034800F051F8024810BD00BF72
:104650004808002020080020580100202D350808B7
:1046600013B5084C00231A46194600932046FFF75D
:1046700043F82046044A054902B0BDE8104000F066
:1046800035B800BF4C0800205801002071360808DA
:1046900070B5114E114D124C00213046FFF714FB3E
:1046A0003046104E2A46214600F020F801213046BF
:1046B000FFF70AFB30460C4E2A46214600F016F85A
:1046C00002213046FFF700FB2A4621463046BDE86E
:1046D000704000F00BB800BF5408002058010020C3
:1046E000B93C080864080020740800200B46014605
:1046F000184602F03DBCFBF7D4BC08B5FEF73AFA09
:10470000244B1A68D0075CBF01221A60224B1A683A
:10471000D1075CBF01221A60204B1A68D2075CBF28
:1047200001221A601E4B1A68D0075CBF01221A6072
:104730001C4B1A68D1075CBF01221A601A4B1A6819
:10474000D2075CBF01221A60184B1A68D0075CBF01
:1047500001221A60164B1A68D1075CBF01221A6049
:10476000144B1A68D2075CBF01221A60124B1A68F8
:10477000D0075CBF01221A60104B1A68D1075CBFDA
:1047800001221A600E4B1A68D2075CBF01221A6020
:10479000704700BFB0080020AC080020A808002027
:1047A000A4080020A00800209C08002098080020F1
:1047B00094080020900800208C0800208808002021
:1047C00084080020184B1A68D1075CBF01221A60C8
:1047D000164B1A68D2075CBF01221A60144B1A6884
:1047E000D0075CBF01221A60124B1A68D1075CBF68
:1047F00001221A60104B1A68D2075CBF01221A60AE
:104800000E4B1A68D0075CBF01221A600C4B1A6865
:10481000D1075CBF01221A600A4B1A68D2075CBF3D
:1048200001221A60704700BFD0080020CC08002089
:10483000C8080020C4080020C0080020BC080020D0
:10484000B8080020B4080020184B1A68D1075CBFD4
:1048500001221A60164B1A68D2075CBF01221A6047
:10486000144B1A68D0075CBF01221A60124B1A68F9
:10487000D1075CBF01221A60104B1A68D2075CBFD7
:1048800001221A600E4B1A68D0075CBF01221A6021
:104890000C4B1A68D1075CBF01221A600A4B1A68D8
:1048A000D2075CBF01221A60704700BFF0080020E9
:1048B000EC080020E8080020E4080020E0080020C0
:1048C000DC080020D8080020D4080020244B1A68F7
:1048D000D0075CBF01221A60224B1A68D1075CBF67
:1048E00001221A60204B1A68D2075CBF01221A60AD
:1048F0001E4B1A68D0075CBF01221A601C4B1A6855
:10490000D1075CBF01221A601A4B1A68D2075CBF3C
:1049100001221A60184B1A68D0075CBF01221A6086
:10492000164B1A68D1075CBF01221A60144B1A6833
:10493000D2075CBF01221A60124B1A68D0075CBF15
:1049400001221A60104B1A68D1075CBF01221A605D
:104950000E4B1A68D2075CBF01221A60704700BF75
:10496000200900201C09002018090020140900203B
:10497000100900200C09002008090020040900206B
:1049800000090020FC080020F8080020F40800209E
:104990002DE9F04F8DB006460F4614461D4600F037
:1049A000EBF9DFF81093CDE9000199F90080B8F137
:1049B000FF3F46D022462B462046294601F070FD97
:1049C000834600283DD132463B463046394601F009
:1049D00067FD8246002874D1304639460022002304
:1049E00001F02CFD002833D0002200232046294668
:1049F00001F024FD8346B8B1A94A0123002000211B
:104A0000CDF828A0CDE90467CDE90645CDE9080138
:104A100003920293B8F1000F6CD0A24B0022104613
:104A200019460DB0BDE8F08F2046294600F0CEFFB4
:104A300038B1002200232046294601F009FD002854
:104A40006AD1DDE90023104619460DB0BDE8F08FAC
:104A5000DDE9000100F0BAFF804600287DD0DDE9E5
:104A600000014FF0000A4FF0000B52465B4601F088
:104A7000E5FC0028E5D03046394600F0A7FF0028C5
:104A8000DFD02046294600F0A1FF0028D9D099F9AF
:104A90000030834804210022022BCDE90467CDE9D0
:104AA0000645CDE908AB039002910A9204D002A812
:104AB00000F092FF002847D1FEF76CF82223036034
:104AC00042E0002200232046294601F0B7FC0028DE
:104AD000B7D0744B724800220121B8F1020FCDF813
:104AE00028B0CDE90467CDE90645CDE90823039058
:104AF0000291A8D002A800F06FFF00287ED00A9B88
:104B000043B3FEF747F8DDE908230A990160104630
:104B100019460DB0BDE8F08F614999F900300122C6
:104B2000CDF828B0CDE90467CDE90645039102929E
:104B3000002B68D05C490020022BCDE9080166D12A
:104B4000FEF728F8212303600A9B1BB1FEF722F829
:104B50000A9B0360DDE9082375E73046394600F01B
:104B600035FF00283FF47BAF2046294600F02EFF9A
:104B700000283FF474AFDDE900231046194601F028
:104B80008FFC00286FD1464B99F9008003930323D3
:104B90000A90CDE90467CDE906450293B8F1000F0C
:104BA0003BD1DFF814B14FF0604A002200233046B9
:104BB0003946CDE908AB01F04BFC00283FF477AF54
:104BC00000223A4B2046294601F0D0F904460D4612
:104BD00000F00AFF02460B462046294601F02EFC53
:104BE00000283DD1324B4FF06042CDE9082399F9BE
:104BF0000080B8F1020F7FF45AAF5DE7FDF7CAFFFE
:104C0000212303607BE700230024CDE9083402A8B8
:104C100000F0E2FE002897D192E7DFF8A0B04FF055
:104C2000000A0022002330463946CDE908AB01F0E6
:104C30000FFC0028DDD000221C4B2046294601F045
:104C400095F904460D4600F0CFFE02460B4620467D
:104C5000294601F0F3FB18B9134B0022CDE90823D4
:104C600099F90080C5E70E4A99F900900123CDF823
:104C70002880CDE90467CDE9064503920293B9F196
:104C8000000FC0D0002200231046194601F098FA08
:104C9000B9F1020FCDE908013FF452AFB7E700BF09
:104CA000FC8108080000F03F0000F0FF0000E03F3A
:104CB000FFFFEFC79C000020FFFFEF470000F07FE1
:104CC0002DE9F04F8BB004460D4600F0B7FD284BA0
:104CD000064693F900A00F46BAF1FF3F12D02246D4
:104CE0002B462046294601F0DBFB834650B94FF0A6
:104CF00000084FF000092046294642464B4601F085
:104D0000A7FB20B9304639460BB0BDE8F08F194AF1
:104D10000123CDF820B0CDE90445CDE9024501924B
:104D20000093BAF1000F15D042464B464046494623
:104D300001F046FABAF1020FCDE906010CD1FDF7F8
:104D400029FF21230360089B63B9DDE906010BB04D
:104D5000BDE8F08FCDE90689684600F03DFE0028E9
:104D6000F1D1ECE7FDF716FF089B0360EDE700BF0C
:104D70009C000020008208082DE9F04F23F0004835
:104D800058EA020993B03CD0714C21F00046A6428B
:104D900083460D460CDD06F1404606F5801656EAC0
:104DA0000B0038D183466B49584613B0BDE8F08FED
:104DB0009A4696462BD0A045EDDC654CA04578D0B0
:104DC000002D0F468146CDE9002376DB0024BEF19D
:104DD000000F27D15E4B984500F08B805D4B9845C6
:104DE00052D0BAF1804F00F0C9835B4B9A4519D17C
:104DF000002D17DB4846394613B0BDE8F04F00F0F0
:104E00001DBDCB465846534913B0BDE8F08F00286E
:104E1000C1D1B045D1DD514813B0BDE8F04F00F02D
:104E2000DDBD00244846394600F0CCFDBBF1000F43
:104E30001CD0ED0F013D54EA050370D0484B984556
:104E400040F3948003F10473984540F30D84454B7F
:104E50009E4270DDBAF1000F70DD3BA3D3E9002361
:104E60001046194601F082F883469DE726B1394B7A
:104E700025F040429A42DCD1BAF1000FC0F2B7836C
:104E8000002D08DB83468FE7BAF1000FC0F25E8485
:104E9000CB46394688E706F1404606F5801656EAC5
:104EA000040300F08384012CECD101F1004183461E
:104EB0007AE7BEF1000F83D06DE72B4B98452CDCD1
:104EC000A3F15473984581DD4FEA2853A3F2FF33D1
:104ED000142B40F35384C3F134032EFA03F202FA85
:104EE00003F39E457FF472AF02F00102C2F10204A7
:104EF0006DE706F1404303F5801353EA0B0300F01E
:104F00003A83184B9E4240F36783BAF1000F15DBDA
:104F1000DDE900349B46214646E7022457E74A462E
:104F200048463B46394600F06DFE02460B4601F00E
:104F300047F9834638E7BAF1000F8EDB4FF0000BDC
:104F4000594631E7AFF300809C7500883CE4377E1A
:104F50000000F07F0000F03F0000E03F04820808FE
:104F60000000E041FFFFEF3FFFFF3F43B6F5801F2A
:104F70004FF0000205DAD04B00F0F8FF0E466FF05C
:104F80003402DFF844E33315C6F31306A3F2FF330C
:104F900046F07F57764503EB020A47F4401740F38B
:104FA000C983C64B00229E4240F304840023CDE90E
:104FB0000823CDE90C23C24B0022CDE906230AF1D8
:104FC000010AA7F5801700263946DDE90623CDE959
:104FD0000A0100F017FEDDE9062380468946DDE977
:104FE0000A0100F011FE02460B460020B44901F010
:104FF000E7F80A4601461346CDE90E120246494635
:10500000404600F0B3FF8C4683467B1043F00053CC
:1050100003F5002399190020CDE904BC06460F468C
:105020004FF0000B6146584632463B46CDE910BC76
:10503000CDE9020100F09AFF02460B464046494680
:1050400000F0E0FDDDE9062380468946304639461A
:1050500000F0D8FD02460B46DDE90A0100F0D2FD62
:10506000DDE9022300F082FF02460B464046494636
:1050700000F0C8FDDDE90E2300F078FFDDE90478DB
:10508000CDE906013A4643463846414600F06EFFF8
:1050900077A3D3E9002306460F4600F067FF76A307
:1050A000D3E9002300F0B0FD32463B4600F05EFF3E
:1050B00073A3D3E9002300F0A7FD32463B4600F07E
:1050C00055FF71A3D3E9002300F09EFD32463B4615
:1050D00000F04CFF6EA3D3E9002300F095FD3246AB
:1050E0003B4600F043FF6CA3D3E9002300F08CFDA6
:1050F0003246804689463B463046394600F036FF08
:1051000002460B464046494600F030FFDDE90223E7
:1051100006460F46DDE9040100F076FDDDE90623D1
:1051200000F024FF32463B4600F06EFDDDE90267E9
:105130008046894632463B463046394600F016FFE7
:105140000022604BCDE90A0100F05EFD42464B466D
:1051500000F05AFDDDE910BC0F46DDE902015A46B8
:105160003B46CDE90EBC5E4600F000FF0022CDE9D3
:105170000201544B3046394600F044FDDDE90A2374
:1051800000F040FD02460B464046494600F03AFD1D
:10519000DDE9042300F0EAFE324680468946DDE977
:1051A00006013B4600F0E2FE02460B4640464946F9
:1051B00000F02AFD8046894602460B46DDE90201E1
:1051C00000F022FDDDE90EBC35A3D3E900235846EB
:1051D000CDE906BC5E460F4600F0C8FEDDE90223BD
:1051E000CDE904013046394600F00CFD02460B467D
:1051F0004046494600F006FD2BA3D3E9002300F00A
:10520000B5FE2BA3D3E900238046894630463946B4
:1052100000F0ACFE02460B464046494600F0F4FC66
:10522000DDE90C2300F0F0FC80465046894600F092
:1052300037FE06460F46DDE9040142464B4600F0C4
:10524000E3FCDDE9082300F0DFFC32463B4600F0DA
:10525000DBFCDDE906BC324658463B46DA468B4667
:1052600000F0D0FCDDE9082330E000BFAFF30080A0
:10527000EF4E454A287ECA3F65DBC9934A86CD3F3B
:1052800001411DA96074D13F4D268F515555D53F21
:10529000FFAB6FDBB66DDB3F033333333333E33FB9
:1052A000000000E009C7EE3FFD033ADC09C7EE3F0E
:1052B000F5015B14E02F3EBE0000404379B60B00C1
:1052C0000000F03F000008408E98030000F09AFCB8
:1052D000DDE9042300F096FC02460B4640464946B1
:1052E00000F090FC80468946DDE90012013C54EA5A
:1052F000050314BFD64CD74C0023CDE904340B462C
:105300001446CDE9023400230293DDE90245084644
:105310002B461146224600F075FC52465B4600F0D3
:1053200025FEDDE9002306460F464046494600F0CB
:105330001DFE02460B463046394600F065FC064627
:105340000F4622462B4650465946CDE9006700F0ED
:105350000DFE0B460246804689463046394600F02F
:1053600053FCBD4B064699420D460C4640F30E8158
:1053700001F13F4303F5E003034340F0F081A0A3B4
:10538000D3E90023DDE9000100F03EFC42468246FD
:105390008B464B463046294600F034FC02460B460D
:1053A0005046594601F072F8002840F0D8812F4647
:1053B0003B154FF48012A3F2FE3342FA03F3234469
:1053C000C3F30A52A54EA2F2FF321641C3F3130BE8
:1053D0000020C2F1140523EA06014BF4801B0246AB
:1053E0000B46002C4BFA05FB40464946B8BFCBF1B3
:1053F000000B00F007FC02460B4680468946DDE9BB
:10540000000100F001FC4FEA0B5A00247EA3D3E90F
:10541000002320460D4600F0A9FD424606460F46F1
:105420004B462046294600F0EDFB02460B46DDE9DF
:10543000000100F0E7FB76A3D3E9002300F096FD1E
:1054400075A3D3E90023804689462046294600F00B
:105450008DFD02460B464046494600F0D5FB80468E
:10546000894602460B463046394600F0CDFB3246AF
:105470003B4604460D4600F0C5FB02460B4640463F
:10548000494600F0BFFB2246804689462B4620460F
:10549000294600F06BFD62A3D3E9002306460F46C0
:1054A00000F064FD60A3D3E9002300F0ABFB3246BB
:1054B0003B4600F05BFD5EA3D3E9002300F0A4FBB4
:1054C00032463B4600F052FD5BA3D3E9002300F0D7
:1054D00099FB32463B4600F049FD59A3D3E900232E
:1054E00000F092FB32463B4600F040FD02460B4680
:1054F0002046294600F086FB06460F4602460B462C
:105500002046294600F032FD0022CDE900014FF08F
:1055100080433046394600F075FB02460B46DDE914
:10552000000100F04DFE424606460F464B4620461F
:10553000294600F01BFD42464B4600F065FB024643
:105540000B463046394600F05DFB22462B4600F004
:1055500059FB02460B4600203D4900F053FB8A44AC
:10556000BAF5801FC0F237815146DDE9042300F00F
:10557000FDFC834618E4F346354915E44A4648469F
:105580003B46394600F0F2FC83460DE4344B21F0F3
:1055900000479F4240F30181324B0B4403430CD13F
:1055A00042464B4600F02EFB02460B46DDE9000169
:1055B00000F058FF00283FF4FBAE23A3D3E90023FB
:1055C000DDE9040100F0D2FC1FA3D3E9002300F0C1
:1055D000CDFC8346FFF7E8BBBAF1000FBFF6AEACD7
:1055E000DDE900349B4604F10041FFF7DDBB0246D4
:1055F0000B460020164900F0E3FD41E4AFF30080C4
:10560000FE822B654715973C00000000432EE63FC5
:10561000EF39FAFE422EE63F396CA80C615C20BEE1
:10562000D0A4BE726937663EF16BD2C541BDBB3EA8
:105630002CDE25AF6A56113F93BDBE166CC1663F86
:105640003E5555555555C53F59F3F8C21F6EA50136
:105650000000F03F0000F0BFFFFF8F40FFFF0F0092
:10566000FFCB904000346F3F6F4B9E427FF763AC9F
:105670006E4B9E423FF7EEAB00226C4B00F0C2FA3D
:105680005BA3D3E9002306460F4600F06FFC5AA344
:10569000D3E90023804689463046394600F066FC4F
:1056A000002282468B46624B3046394600F05EFC53
:1056B00002460B4652A1D1E9000100F0A3FA32469E
:1056C0003B4600F053FC02460B460020594900F0CF
:1056D00099FA3246CDE902013B463046394600F0A0
:1056E00045FC02460B46DDE9020100F03FFC46A303
:1056F000D3E9002300F03AFC02460B4650465946D7
:1057000000F080FA02460B4606460F4640464946E0
:1057100000F07AFA42464B46002082468B4600F063
:1057200071FA02460B463046394600F06BFA804665
:105730008946D9E500220023CDE90823CDE90C23D1
:105740003A4B00220026CDE906233DE44A463B467B
:105750000020364900F034FD8346FFF725BB2CA31B
:10576000D3E90023DDE9040100F000FC28A3D3E91C
:10577000002300F0FBFB8346FFF716BBBEF1000FD2
:105780007FF44FABC3F1140348FA03F202FA03F3B8
:10579000984524D07446FFF721BB264B9F423FF724
:1057A00007AEDDE902349A469B462EE602460B46DA
:1057B000FFF7B9BB204B4FF48026CDE9062316A393
:1057C000D3E90023CDE9082315A3D3E90023CDE9CC
:1057D0000C23FFF7F9BB5A4600F096F9C5E602F034
:1057E0000102C2F10204FFF7F9BA00BFAFF3008073
:1057F000000000604715F73F44DF5DF80BAE543EF4
:10580000555555555555D53FFE822B654715F73FE4
:105810009C7500883CE4377E0000004003B8E23FFE
:1058200006D0CF43EBFD4C3EFEFFEF3F0000F03FC4
:105830000000D03F0000E03F0000F83F2DE9F041BC
:105840005F4E0C46B6460E407645054600F0988001
:1058500000290B46024674DD5FEA215E7FD0AEF27E
:10586000FF3EC3F313031EF0010F43F4801363D113
:1058700000273E4603EBD2710B444FEA6E0E5200F6
:1058800016204FF4001174189C424FEAD2754FEA6B
:10589000420202DC1B1B66180F44013805EB430370
:1058A0004FEA5101EFD1844620244FF0004109E036
:1058B00020D003EBD275013C4FEA51012B444FEA53
:1058C000420220D09E4201EB0C05F1DA002D05EBDF
:1058D000010C09DBB0469542A3EB060300D9013B5E
:1058E0004646521B0844E4E7BCF1000FF2DB06F128
:1058F0000108F0E7954217D8002D05EB010C49DBB4
:1059000098460023ECE7134310D140087B1003F1C5
:105910007F5303F50013FA0703EB0E57394648BFD0
:1059200040F00040BDE8F0813346C2E7411C35D06D
:1059300000F001031844E8E75B0003EBD273520068
:1059400096E721F000460643ECD079BB8E46D30A99
:10595000AEF1150E5205002BF9D0DD0221D4002145
:1059600000E001465B00DC0201F10100F9D5C0F165
:10597000200422FA04F42343C1EB0E0E82406EE7AA
:1059800002460B4600F0F2FA2A46234600F03CF9A4
:10599000BDE8F081BCF1000FA9DAB1E7013720467C
:1059A000B4E720244FF0FF310020E2E702460B4627
:1059B00000F028F902460B4600F002FCB2E700BFF7
:1059C0000000F07F21F00041704700BF41F000412E
:1059D00001F58010C00F704700207047002001497A
:1059E000704700BF0000F87FF0B5C1F30A5EAEF269
:1059F000FF36132E83B002460B460C464FEAD17594
:105A000007462EDC002E49DB3D49314103EA010007
:105A100010432BD049080B4053EA02070CD04FF437
:105A20008023132E24EA010143FA06F444EA010418
:105A30000CBF4FF000470027324B214603EBC50552
:105A4000D5E90045384622462B4600F0DDF8CDE981
:105A50000001DDE9000122462B4600F0D3F803B037
:105A6000F0BD332E06DDB6F5806F45D010461946E1
:105A700003B0F0BDAEF2134E4FF0FF3121FA0EF13C
:105A80000842F3D049080842D6D04FF0804320EABC
:105A9000010143FA0EFE4EEA0107CDE721F0004175
:105AA00001431946E4D0C3F3130343EA000CCCF1DD
:105AB000000343EA0C0C134B640C4FEA1C3C0CF43F
:105AC000002C03EBC5036404D3E900674CEA04012E
:105AD00032463B4600F098F8CDE90001DDE90001CF
