:020000040808EA
:1000000000000808E8810808000006000A00050151
:0800100004024E040000000090
:100018008077080809480A4908B5884205D0094A7E
:10002800824202D0121A06F0E5FE0748074A00216C
:10003800121A06F0EAFE064808BD00BF00040020B8
:10004800CC800808F4040020F8040020080D0020E3
:10005800080D002070B504F05DF8074B074C1E46EC
:10006800E41AA4080025A54204D056F8253098477C
:100078000135F8E770BD00BF88800808C08008080F
:1000880001F076BC08B501F02DF9BDE8084004F090
:1000980003B802F0FBBB02F001BC0078B0FA80F0B4
:1000A8004009704701230370704748B1836C3BB126
:1000B800C36C2BB1006DB0FA80F040094042704724
:1000C8004FF0FF30704773B5024608460C46FFF7FD
:1000D800ECFF054650BB12F0800FCA7814BF00230E
:1000E80010239A4222D0CB708E6C01230DF10702A7
:1000F800F3216078B04784F8540010B16FF001051F
:1001080014E0E378E66C03F010029DF807307321E1
:1001180023F0100313438DF807300DF10702012374
:100128006078B04784F854000028E7D1284602B028
:1001380070BD73B50446FFF7B8FF054688B9A66CCD
:1001480001230DF10702F3216078B04784F85400C9
:1001580028B99DF8073003F01003E37001E06FF051
:100168000105284602B070BD40B103788B4208D91A
:100178000170137843F00203137002E04FF0FF3070
:100188007047002070472DE9F84306461846884610
:1001980091461D46FFF789FF0446A8B9AB783BB9DD
:1001A80029463046FFF78FFF044608B946F0800617
:1001B800AF6C4B46424631466878B847002885F808
:1001C800540018BF6FF001042046BDE8F8832DE9FC
:1001D800F04F1E468BB083468A46144600212822DB
:1001E800684606F012FE3046FFF75FFF0546A8BBDB
:1001F800631E122B30D80DF101085F46C1460AF183
:10020800FF3AA4B2CBEB07039BB29C4213D9B37855
:1002180043B931463878FFF756FF3B78054603F077
:100228007F0300E03B7808F8013C1AF8013F0137EA
:1002380008F8023BE6E78DB96300013BF46C9BB21A
:100248004A469DF800107078A047002886F85400A8
:1002580018BF6FF0010501E06FF0030528460BB0E9
:10026800BDE8F08F37B5E0238DF80630B623054694
:100278008DF80730FFF719FF0446D8B9AB786BB192
:100288002B4601220DF107010DF10600FFF79FFF34
:1002980004462B6D0A20984734B10BE02846FFF737
:1002A80048FF044630B9EBE7AB781BB92846FFF79F
:1002B80040FF0446204603B030BD30B58DB004463B
:1002C800FFF7F3FE0546002840F0D5802046FFF7EB
:1002D800C9FF0546002840F0CE802346012221466A
:1002E800D020FFF750FF0546002840F0C48023784F
:1002F800612B40F0BE800146292201A806F085FD49
:1003080020468DF80350FFF7D0FE0546002840F040
:10031800B2802346192201A98920FFF734FF054638
:1003280038B9234610220DF11D01E120FFF72BFFFC
:1003380005469DF826209DF8253043EA0223E382EE
:100348009DF806209DF8053043EA022323839DF893
:1003580007309DF80A20A3769DF8093043EA022366
:10036800A3839DF80C209DF80B3043EA0223E38316
:100378009DF80D309DF8102084F820309DF80F303E
:1003880043EA022363849DF812209DF8113043EA62
:100398000223A3849DF814309DF8182084F8263091
:1003A8009DF8133084F827309DF8173043EA02236C
:1003B80023859DF81A209DF8193043EA02236385A6
:1003C8009DF81B309DF81F1084F82C309DF81E30C6
:1003D80003F00F0242EA011222819DF81D201B0939
:1003E80043EA021363819DF820309DF82820237387
:1003F8009DF8213063739DF82230A3739DF8233054
:10040800E3739DF8243023749DF8293063749DF8B4
:10041800273043EA022363829DF82A30237515BBEF
:10042800234601220DF103010220FFF7ACFE9DF8DF
:1004380003300546C3F3011384F8343098B92346D2
:1004480001220DF10301FFF79EFE9DF803300546DA
:1004580084F8353038B9234601220DF10301042010
:10046800FFF791FE05469DF903301B1184F83630DD
:1004780001E06FF0020528460DB030BD37B5742392
:1004880004468DF80730FFF710FEA0BB054623464B
:1004980001220DF106017420FFF775FEA0B99DF841
:1004A800063013F0030511D023F003038DF806304E
:1004B800012223460DF106010DF10700FFF787FE23
:1004C800236D0A209847E2E7002DE0D194F84430E4
:1004D8008BB19DF8062003F0030322F003021343B7
:1004E8008DF8063038B9234601220DF106010DF1C9
:1004F8000700FFF76CFE03B030BD2DE9F041002383
:1005080088B0064608460C468DF807300493ADF8C7
:1005180014300693ADF81C30FFF7C7FD002840F0F3
:100528005F81320791F8447065D5012FADF8080056
:10053800ADF80C005ED15A23B1F840508DF8083060
:10054800B1F91230B5F5C87F03F5163303F29913E4
:1005580028BF4FF4C8755D43142395FBF3F505F5E3
:1005680048130A2593FBF5F591F9112091F9043008
:1005780002F544726A4391F914505D434FF47A735B
:1005880095FBF3F31B0203EB620194F83430043358
:1005980091FBF3F294F9351083234B4303F5803331
:1005A80092FBF3F32222FA3B53436422323393FB48
:1005B800F2F38DF80C30B4F842308DF80920B3F519
:1005C8007C6F0AD23F2BC2B200F1010001D99B080F
:1005D800F8E703EB8213DBB200E0FF238DF80D3060
:1005E800002384F83C300222234603A902A8FFF71F
:1005F800EEFD00E00120002384F8443010B92046C5
:10060800FFF73CFF06F01005ADB205B304F1460252
:10061800072104F13B00FFF7A7FD30B9234601226B
:100628000DF107017520FFF7AEFD94F83B30012569
:100638009B0003F01C029DF8073023F01C031343B2
:1006480075228DF807308DF810208DF81830B30614
:1006580022D504F14602082104F13D00FFF784FD8C
:1006680030B9234601220DF107017020FFF78BFDF9
:100678009DF80730702123F0080294F83D3003F00C
:100688000803134308AA2A4401358DF8073002F8F5
:10069800101C02F8083CEDB2B10733D004F1460251
:1006A800052104F13900FFF75FFD30B92346012227
:1006B8000DF107017420FFF766FDF20709D59DF8D3
:1006C800073094F8392003F01F0343EA42138DF8EA
:1006D8000730B3070BD594F83A309B0003F01C029F
:1006E8009DF8073023F01C0313438DF8073008AB3F
:1006F8002B44742203F8102C9DF80720013503F8C9
:10070800082CEDB2710722D504F14602052104F147
:100718003800FFF729FD30B9234601220DF1070102
:100728007220FFF730FD9DF80730722123F0070291
:1007380094F8383003F00703134308AA2A44013514
:100748008DF8073002F8101C02F8083CEDB216F0DC
:10075800C00F3CD004F146084246012104F13E0096
:10076800FFF702FD68B942460A2104F13C00FFF791
:10077800FBFC30B9234601220DF107017120FFF778
:1007880002FD72060BD594F83E301B0103F01002EF
:100798009DF8073023F0100313438DF80730330614
:1007A8000AD59DF8073023F00F0294F83C3003F087
:1007B8000F0313438DF8073008AB2B44712203F85D
:1007C800102C9DF80720013503F8082CEDB228B944
:1007D80023462A4606A904A8FFF7F9FC84F84470C2
:1007E80008B0BDE8F081000013B5184B044618683E
:1007F8009B8802AAADF8043091F839300090134470
:1008080091F83A2002A8024412F8082C13F8083C80
:10081800134491F83820024412F8082C134440F28B
:10082800AB72534303F595534FF47A721933B3FB04
:10083800F2F301339BB2238091F83E201AB1B1F84C
:1008480042201344238002B010BD00BF94770808EB
:100858002DE9F04F8046A9B008460C46FFF725FC65
:100868000546002840F0858104AF01460F2238462E
:1008780006F0CBFA2046FFF718FC05460A26002D9D
:1008880040F0718123460F2239461D20FFF77BFC7B
:1008980005469DF810009DF81EE000F00F0388F84B
:1008A80001309DF8113020F07F0088F802309DF863
:1008B80012309DF8139000939DF818309DF814C0DD
:1008C80001939DF819309DF815B002939DF81D30DD
:1008D8009DF8161003934FFA8EF303F0200A40EAAE
:1008E8000A0003F01003184340B200289DF81720AF
:1008F80088F8000080F23481120942EA011141EAC5
:100908000B3BE18AB4F918004900C1EBDB010A4648
:10091800CB175B104FEA320202FB03F6A2FB02235D
:100928004FEA123A94F91A2003EB46034AEA035AAB
:100938004FEA233B1301DF170AFB07F680FB01018F
:1009480003FB0B66AAFB0323C00A3344920B40EA5D
:10095800415042EA83428318236303EB83038033C5
:100968001B12A8F80430236B94F926105B10A3F52A
:100978007A4398104043C2125143B4F924204013DB
:100988005A43520002EBA102B4F91E104FEA1C1C94
:100998004B4394F920104CEA091949014143C91005
:1009A80001EB63039B14A18B03F500434B43D9135D
:1009B800009BB4F9280049EA0339B4F92230C9F593
:1009C80080191B0403EBA20240F63543A9EB22323F
:1009D8005A43B2F1804FADBF92FBF1F3520092FB44
:1009E800F1F35B00D9104943B4F92A2049134A436B
:1009F800991041431E12491301EB223106FB06F2FE
:100A0800564394F82C2008AF724301EB624294F9E4
:100A18002710019E02EBC11203EB2213C8F808301D
:100A2800236B94F90E1003EB830380331B12594395
:100A3800642291FBF2F194F90D005943584389114E
:100A480090FBF2F091FBF2F10144608901F58041DD
:100A580041430298891240EA06262089A6EB00162F
:100A680094F90C00584390FBF2F0A6EB6000484361
:100A780094F91010414E4B4393FBF2F2E37B02EBE7
:100A8800C31283135B4312119B12534300EB63039E
:100A98004FF47A729B125343394A1B1323EAE373C8
:100AA8009342D4BFC8F80C30C8F80C2094F936C06B
:100AB8000FCE0FC70FCE0FC70FCE0FC796E80F0088
:100AC800103687E80F000FCE18AF0FC70FCE0FC72D
:100AD8000FCE0FC796E80F0087E80F0040F23C5092
:100AE80005230021CCFB03010EF00F0628AB03EB16
:100AF800860656F8807C4FEA9E1EA0FB072307FB5C
:100B08000133100C40EA03401914039B4EEA830E8C
:100B18004FEACE3256F840EC12F17F42AEFB006746
:100B28000EFB01774FF0000343F1FF3312184B41DE
:100B3800700A40EAC75079125F104FEA32068019EE
:100B4800794105F049FEC8F8100095B998F90030C8
:100B5800002BBABF012384F8453084F8455008E0DB
:100B6800236D0A209847013E16F0FF067FF487AEF2
:100B78000225284629B0BDE8F08F00BF9C770808F9
:100B8800A0860100014B01221A70704779060020E7
:100B980008B5044902F0FDFF18B1034B03221A708F
:100BA800012008BDB07C0808AD05002001F0FABBA3
:100BB80001F000BC37B505469DF8184023438DF871
:100BC80000303C2302F060F9284603B030BD000035
:100BD80030B58FB0104904A801F00CFF04A801F04B
:100BE80064FF044604A801F0BFFF054604A801F00D
:100BF800A3FF04F0A3FFCDE90201284604F09EFFFD
:100C0800CDE90001054B064A53F824304021054838
:100C180001F064FE0FB030BDB406002018040020B7
:100C28005C780808D40500202DE9D0431A48002331
:100C38001A461946406801F0F9FD40F2E73601F01E
:100C480095FD4FF496740027002001F0CBFB8046F9
:100C58004FF00009002001F0C5FBB0EB080061EB84
:100C680009018F4208BF864205D301F08FFD10B9F4
:100C780001F074FDEEE701F089FD18B1BDE8D0433D
:100C880001F084BD01F076FB044B186001F066FDAD
:100C9800013CF3D0D8E700BFB4060020CC0B0020FD
:100CA80008B501F06BFD064800231A46194640684E
:100CB80001F0C4FD4FF47A7001F030FE012008BD48
:100CC800B40600201FB51F4802F010FC1D4802F0B2
:100CD800BAFD1D4B1C781D4BBCB1142241F2E82112
:100CE80018481A6002F084FC4FF46171154802F04C
:100CF80009FD002211460292019200920123114837
:100D080002F048FD41F2700116E01E2241F2700126
:100D18000C481A6002F06CFC40F2DC51094802F001
:100D2800F1FC012321460294019400941A460548D7
:100D380002F030FD41F21001024804B0BDE8104055
:100D480002F05BBDAE0500208A0600200C050020DD
:100D58002DE9F84F0D4604F0F1FE7FA3D3E90023F7
:100D680004F040FF00227E4B04F08AFD05F0EAF90A
:100D78007C49044605F03AFA7B4905F041FB7B497A
:100D88000646204605F034FA0146304605F030FAAA
:100D980077490646284605F033FB0146304605F0FC
:100DA80027FA4FF07C5105F02BFB04F0C7FE002218
:100DB8006B4B04F063FD68A3D3E9002305F03CF80E
:100DC80005F0C0F901460646204605F011FA4FF035
:100DD8007C5105F015FB674905F0CEFC002800F0B2
:100DE800B3806549204605F00BFB644905F000FA1D
:100DF800214605F005FB624905F0F8F96149074607
:100E0800204605F0FDFA604905F0F0F9214605F0A5
:100E1800F7FA5E4905F0ECF9294605F0F1FA5C4964
:100E28008246204605F0ECFA5A4905F0E1F92146D8
:100E380005F0E6FA584905F0D9F9294605F0E0FA2F
:100E4800294605F0DDFA4B498346204605F094FC17
:100E5800002835D05149204605F070FC002876D08E
:100E68004F49284605F06AFC002870D04D492046B5
:100E780005F0BCF905F08AFC0028B8BF404205F02F
:100E88006BFA0146484805F0B1F9474905F06CFB93
:100E980004F054FE03F04EFD80468946404829463A
:100EA80005F0A4F94FF07A5105F0AAFA04F046FECD
:100EB80042464B4604F096FE05F044F9064605E026
:100EC8002C49204605F058FC0026F0B13749204649
:100ED80005F034FCD8B13649284605F04DFCB0B1D0
:100EE8003349284605F082F9324905F03DFB214691
:100EF80005462E4805F07AF92F4905F035FB0146DD
:100F0800284605F07DFA044602E0344600E0002455
:100F18005146384605F06CF9594605F069F93146ED
:100F280005F064F9214605F063F904F007FE002294
:100F38000B4B04F0A3FC08A3D3E9002304F07CFFC7
:100F480005F000F9BDE8F88F3046BDE8F88F0026B7
:100F5800BCE700BFAFF30080CDCCCCCCCCCCFC3F01
:100F680000004040000088429A99993F000074426E
:100F78001283C03D0000A042E00FE0BB11230340F4
:100F880019842942AC0DA13A4826663E164B2241E7
:100F9800F18B05B6C88F5F3AF887603D0000E042E4
:100FA800000050410000BE42000088410000AE42EF
:100FB8000000AA42000020410000A04073B596221C
:100FC8004FF4A071414801F043F9404801F00CF991
:100FD8003F4B00221146586801F020FC08B1FFF78A
:100FE800F7FD3A4C3B4D206804F0A8FD3A4AC5E9A4
:100FF8000001CDE900011021384801F06FFCA0681C
:1010080004F09CFD364ECDE90001C6E90001354AE1
:101018001021354801F062FC606804F08FFD002261
:10102800324B04F009FF324B324AC3E90001CDE9E3
:1010380000011021304801F051FCE06804F07EFD09
:1010480000222E4B04F0F8FE2D4B2E4AC3E9000176
:10105800CDE9000110212C4801F040FC2B49204625
:1010680001F0C6F804F06AFD294B2A4AC3E90001D9
:10107800CDE900011021284801F030FC274802F092
:10108800B3F805F083FB264A034610601021254A71
:10109800254801F023FCD6E9000105F053F8044681
:1010A800D5E9000105F04EF82146FFF751FE1F4B28
:1010B800186004F043FD084ACDE9000110211C48DE
:1010C80001F00CFC012002B070BD00BF1405002027
:1010D800B40600206806002075780808FC04002083
:1010E800980500207D7808087A06002000005940FD
:1010F80018060020857808082806002000408F4040
:10110800B00500208E7808083806002000507D447D
:10111800A00600209878080851060020A4050020A1
:10112800D00500209F7808088B06002024060020A0
:10113800C005002008B501F01DF9054B1B68C01A51
:10114800044B1B68984234BF0020012008BD00BF33
:10115800B80500201004002008B5FFF7EBFF18B110
:10116800BDE80840FFF7E6BF01F0F8FAF5E7000030
:1011780037B501F003FB01F0FDF843F69725044667
:1011880001F004FB40B101F0F5F8001BA84203D8B8
:10119800642001F0C3FBF3E70021094B47F230520A
:1011A800084601F0AFF84FF47A7001F0B7FB054B31
:1011B8000A221B680121684602F01EFD03B030BDFB
:1011C800A4780808AC06002008B50121062003F021
:1011D80002F80021062002F0FEFF024B00221A70DE
:1011E80008BD00BF7906002038B5046805467CB103
:1011F8006368013B63605BB9236820469B68984736
:10120800A368013BA3601BB923682046DB689847A5
:10121800284638BD10B5244BD2B01B6800240E9365
:10122800224B1B680D93224B1B680C93214BD3E96F
:101238000023CDE90A23204BD3E90023CDE9082375
:101248001E4B186804F07AFCCDE906011C4B4FF4DC
:101258008071D3E90023CDE904231A4B12A8D3E9FE
:101268000023CDE90223184BD3E90023CDE900235D
:10127800164A01F033FB164B12AA1B78154910A821
:101288008DF80040FFF796FC11A8FFF7ADFF02F0BC
:101298007DFD114B187002F08DFD104B1870104B2E
:1012A8001C7052B010BD00BFBC0500201406002001
:1012B800D0050020A0060020B0050020240600204C
:1012C800180600209805002068060020B178080854
:1012D800900500204B79080820060020AF05002063
:1012E800000400207FB5A14C2378013B052B00F2B8
:1012F8008381DFE813F0190106002C0042007D000D
:10130800AF009B4B1B780BB1FFF75EFF994B1B7827
:1013180063B9994B1B784BB101F02CF8974B1A68BD
:10132800974B1B6813448342C0F0638102F02EFD83
:10133800944B1B7898421CBF03232370924B1A6866
:10134800924B1B689A4200F35781052313E0FFF77D
:1013580035FE054670B9012323708D4B1B78002B91
:1013680000F04A81FFF7F8FE8A4B8B4A1B788DF80C
:101378000050CEE0062323703EE1884B1C781D46C2
:1013880064BB01F003FAD0B1814B1B788BB1FFF736
:10139800E3FE804B824A1B78824902A88DF8004000
:1013A800FFF708FC03A8FFF71FFF00F0E3FF7E4BE1
:1013B80018604FF47A7001F0B1FAFFF771FC02F08F
:1013C80037FF7A4B02201978FFF7F2FB784B0021A0
:1013D8000720197002F0FFFE01232B7002F0E0FCD9
:1013E800744BC0F13C003C221B68424302212DE0B3
:1013F80001F0CCF9D8B1664B1B7893B1FFF7ACFE7E
:10140800644B00221B7867498DF8002002A86A4ABD
:10141800FFF7D0FB03A8FFF7E7FE00F0ABFF624B36
:1014280018604FF47A7001F079FAFFF739FC604BD5
:1014380000210720197002F0CEFE02F0B1FC3C2218
:10144800C0F13C005B4B42431B68012102A802F03B
:10145800D3FBD1E001F09AF910B9FFF7E5FBCBE037
:10146800444D2B78EBB94A4B1B788BB1FFF774FED0
:10147800484B524A1B784B498DF8003002A8FFF7B9
:1014880099FB03A8FFF7B0FE00F074FF464B186005
:1014980000F070FF4A4B186001232B70FFF7BAFE6B
:1014A800AAE0484B1E78F6B1394B1B7893B1FFF789
:1014B80053FE384B00221B783A498DF8002002A8C9
:1014C800414AFFF777FB03A8FFF78EFE00F052FFB3
:1014D800354B18600223237000232B7000F04AFF5D
:1014E800264B186088E000F045FF354B1A68374BEB
:1014F8001B68134498427FD301232370244B1B7825
:10150800002B79D0FFF728FE224B314A1B788DF843
:101518000060244902A8FFF74DFB03A8FFF764FE0B
:1015280000F028FF204BDCE700F024FF294B1A6865
:10153800294B1B68134498425ED9164B00241B782C
:10154800264A184902A88DF80040FFF733FB03A884
:10155800FFF74AFE4FF4FA6001F0E0F9134B1B68FD
:10156800032B3DDC02F044FB46E000BFAD05002044
:101578007906002078060020480600207006002022
:101588000C04002020060020D00500200C050020B7
:1015980050060020900500205E790808A806002063
:1015A8007E79080878790808B80500201406002014
:1015B800AC050020AC0600208D790808A47908083D
:1015C8001005002000040020AE790808140400204B
:1015D800B37908087406002004040020CF790808AD
:1015E80002F026FE21460220FFF7E2FAFFF7C0FDCF
:1015F80002E00423237099E604B070BDF0B585B00D
:10160800084602AF0D4605F05EFC00F1080323F022
:1016180007036E46ADEB030D02AC421C294620467B
:1016280005F06EFC9DF80820144D22B92B788DF832
:101638000020134A16E0204605F0D2FAC8380022E6
:1016480001282B788DF800200BD80E4A0E49384611
:10165800FFF7B0FA381DFFF7C7FD0C4B01221A70CF
:1016680007E0224638460A49FFF7A4FA381DFFF773
:10167800BBFDB5460C37BD46F0BD00BF9005002048
:10168800E7790808FC790808787908080004002038
:10169800EF79080830B5244985B0054602F079FA93
:1016A8000446D0B1214B01241C7002F0C1FD042076
:1016B800FFF77CFA1E4D40F00400287002F0B8FDD8
:1016C80029780420FFF774FAFFF7FCFA194B002277
:1016D8001B788DF80020184A1CE01849284602F0AB
:1016E80058FAF8B1114B124D1C7002F0A1FD0420FC
:1016F800FFF75CFA20F00400287002F099FD2978C1
:101708000420FFF755FAFFF7DDFA0A4B0C4A1B785D
:101718008DF800400B4902A8FFF74CFA03A8FFF721
:1017280063FD012005B030BDB07C08088A060020A2
:101738009B060020900500200E7A0808257A0808E4
:10174800277A08083D7A080830B5224985B0054649
:1017580002F01FFA0446C0B11F4B01241C7002F0AE
:1017680067FD0420FFF722FA1C4D40F0080028709E
:1017780002F05EFD29780420FFF71AFA184B0022C0
:101788001B788DF80020174A1AE01749284602F0FE
:1017980000FAE8B1104B114D1C7002F049FD04200D
:1017A800FFF704FA20F00800287002F041FD2978BC
:1017B8000420FFF7FDF90A4B0C4A1B788DF800400E
:1017C8000B4902A8FFF7F6F903A8FFF70DFD012062
:1017D80005B030BDB07C0808500600209B060020EC
:1017E80090050020427A0808257A0808537A0808E4
:1017F8003D7A080870B5CCB00A2205A9006805F042
:1018080019FCC5B205F10C03DBB2182B3DD844B264
:10181800204604F0A1FD02F053FA02F009FD294622
:101828000320FFF7C5F902F0AAFA194E194D23460D
:101838003060194A4FF4807100240CA801F04EF86A
:101848002B780CAA154908A88DF80040FFF7B2F9C3
:1018580009A8FFF7C9FC4FF47A7001F05FF8316806
:1018680008A802F049FA089B0C490393039A2B78BD
:1018780006A88DF80040FFF79DF907A8FFF7B4FC0C
:1018880008A802F012F9012000E000204CB070BD59
:10189800A005002090050020687A08087C7A0808CE
:1018A8007FB52649054602F074F928B92449284627
:1018B80002F06FF900283FD002F0BAFC0420FFF7CD
:1018C80075F9204C1D492070284602F062F9064639
:1018D800A0B11D4B00221B781C498DF8002002A8DE
:1018E8001B4AFFF767F903A8FFF77EFC237801225C
:1018F80043F001032370174B1A7016E0104928466D
:1019080002F047F988B1104B134A1B780F4902A817
:101918008DF80060FFF74EF903A8FFF765FC237800
:1019280003F07E0323700B4B1E7002F081FC042031
:101938002178FFF73DF9012004B070BDB07C08089C
:10194800257A08089B060020900500203D7A0808A3
:10195800817A0808480600208B7A080800230422A8
:1019680000F0ECBE0246014801F06EB9252C0808CB
:10197800F0B5B9B008AA1646A64B03F110051446EF
:1019880018685968083303C4AB422246F7D119884E
:101998009B782D22A37021809F4D00210DF13300EB
:1019A80005F033FA0227012107202F7002F002FC0C
:1019B8000021052002F0FEFB0121062002F0FAFBBF
:1019C8000021112002F0F6FB04A8002400F0E6FE36
:1019D80000237D2218A904A802F0EDF82346224628
:1019E8008E490194009418A800F0E8FE8C498D48AF
:1019F800FFF7B4FF3A4623468B498C4800F09EFE19
:101A08008B492346042209688A4800F097FE8A49D0
:101A18008A48FFF7A3FF234601228949894800F035
:101A28008DFE89498948FFF799FF89498948FFF759
:101A380095FF89498948FFF791FF89498948FFF748
:101A48008DFF89498948FFF789FF89498948FFF748
:101A580085FF89498948FFF785FF89498948FFF744
:101A680081FF89498948FFF77DFF89498948FFF740
:101A780079FF89498948FFF775FF02F0D9FB2046AD
:101A8800FFF794F801282F4610D1012277218448C6
:101A980000F092FAF8B900F06DFC824B82491860A8
:101AA800304605F0EDF901233B7014E002F0C0FB6D
:101AB8000125042202A92046029500F083FC02F0C9
:101AC800B7FB2846042202A90135029400F07AFCEB
:101AD8000A2DF4D1D9E70421714800F0CDFB022189
:101AE8006F4800F0D6FB03216D4800F0DFFB0221B0
:101AF8006B4800F0E8FB96224FF4A071684800F0AC
:101B0800A7FB02F095FB0220FFF750F8464C002295
:101B18002060114602A8029200F01CFC029B142BC4
:101B280008D123680133236002F082FB2178022068
:101B3800FFF73EF82368052B07DD02F079FB042147
:101B48000220FFF735F8FFF713FB02F071FB0320C3
:101B5800FFF72CF800F10C03DBB2182B03D840B2C6
:101B680004F0FAFB00E0002002F0AAF802F060FBA3
:101B78000420FFF71BF8324C00F001034B4F237091
:101B88004B4D4C4BC0F380023870C0F3C0001A7044
:101B98002870FFF797F8FFF711FA052002F034FBD9
:101BA80050B93B78207023F001033B7002F040FBF2
:101BB80004213878FEF7FCFF23783BB93E4B1A68BE
:101BC8003E4B1B689A4201DBFFF72EF80024FFF713
:101BD8002BF8FFF7F9FA4FF0FF3300940122384948
:101BE800112001F09FFB2B785BB1364B02A81B78C4
:101BF80032468DF800403449FEF7DCFF03A8FFF7B2
:101C0800F3FA00F0B7FB314B186004A801F04DFF60
:101C180039B0F0BD1C780808AD0500200516080885
:101C2800D40500209D7A080814060020A47A080824
:101C380008040020AF7A08088B060020B77A080845
:101C480048060020C27A0808FC040020CF7A080859
:101C58007A060020DB7A080828060020E47A0808BB
:101C680038060020ED7A080851060020F17A0808A5
:101C7800C0050020FA7A0808990B0808057B0808AF
:101C8800A9180808117B08089D1608081E7B080873
:101C980051170808297B0808FD170808367B08082B
:101CA8001405002074060020427B08089B060020CB
:101CB800500600208A060020D00500200C050020D0
:101CC8008D0B080890050020607B0808B8050020E7
:101CD8001A4B70B500241C60194B01251D7000F0CB
:101CE80089FB4FF0FF31174800F04EF94FF6FF72AD
:101CF800154B02201C705C809A8000F0D3FC2146B2
:101D0800284600F0E7FC2946104D042000F012FB9D
:101D18000F4E2146284601F027FA28460D4D324637
:101D28000D4902F01FFB2146284601F0F6FB32461A
:101D38002846BDE87040094902F014BBAC060020F3
:101D480090050020140500204A060020A405002064
:101D5800F8040020AE0500208F3108084135080836
:101D680000F0DCBDF8B5074614461D460E4602F0E5
:101D780073FA394601F0B1FA02F06EFA0368314697
:101D88009B6898472544AC4207D002F065FA03687F
:101D980014F8011B9B689847F5E702F05DFA01F01B
:101DA800A7FA0020F8BD00002DE9F0471B4D80463A
:101DB80095F90030013305D10146BDE8F0471848D0
:101DC80001F06ABEDFF85C90DFF85CA0072600240B
:101DD80095F90000002180B202F0FDF9012799F978
:101DE800000007FA06F101EA080180B202F0F3F9EF
:101DF80095F90000394680B202F0EDF99AF9000031
:101E0800640080B2E4B202F0FFF900B13C4316F17D
:101E1800FF36DDD22046BDE8F08700BFB1060020BE
:101E2800100C0020B2060020B00600202DE9F04179
:101E38001F461B4B164693F900200546013288467B
:101E48001C460ED1174801F0BFFD4021154801F08E
:101E58000FFE0121134801F0BCFD0021114801F0DB
:101E6800BBFDADB20021284602F0B5F94046FFF7A8
:101E78009BFF3744BE4204D016F8010BFFF794FFCE
:101E8800F8E70121284602F0A6F994F90030013359
:101E980002D1044801F0A3FD0020BDE8F08100BF95
:101EA800B1060020100C00202DE9F0411F461C4B04
:101EB800164693F900200546013288461C460ED185
:101EC800184801F081FD4021164801F0D1FD01219B
:101ED800144801F07EFD0021124801F07DFDADB2ED
:101EE8000021284602F077F948F08000FFF75CFFF0
:101EF8003744BE4205D00020FFF756FF06F8010B15
:101F0800F7E70121284602F066F994F90030013319
:101F180002D1044801F063FD0020BDE8F08100BF54
:101F2800B1060020100C0020F8B5044615461E46E0
:101F38000F4602F091F9214601F0CFF902F08CF931
:101F4800036839469B68984702F086F901F0D0F992
:101F580002F082F92146F2B201F0B7F984B2A64242
:101F68000DD14FF6FF76013CA4B2B44209D002F07D
:101F780073F903685B69984705F8010BF3E70120DB
:101F8800F8BD0020F8BD000010B5084C0177FF210E
:101F98002170074C00222170064C026221700275E4
:101FA800C27482744274027410BD00BFB20600206D
:101FB800B0060020B106002070B50446617590F99E
:101FC8001C001546421C0E460CD102F045F901F0E2
:101FD8006DF9012384F82630344B84F82560E366D4
:101FE800334B2DE0012180B202F0F5F894F91C0082
:101FF800012180B202F0DEF82E4B93F90000431C59
:1020080003D12D4801F0E0FC11E0012180B202F07B
:10201800D1F82A4B012193F9000080B202F0CAF8E6
:10202800274B002193F9000080B202F0C3F8237F08
:1020380084F82530002384F82630224BE366224BAF
:102048002367224B04F124006367FEF736F958BB77
:10205800E5B10222042384F85C2084F85F204FF461
:10206800A07284F85D3003210123A4F8642096222D
:102078006374A37484F85E10E3742374A4F8662070
:1020880084F8610084F86230237509E00823A4F815
:102098006450A4F8665084F8613084F8625025755D
:1020A800012084F8680070BD002070BD311F080849
:1020B8006D1D0808B1060020100C0020B206002093
:1020C800B0060020B11E0808351E0808691D08085A
:1020D80073B5056A044645BB012380F86830A37CC4
:1020E800407C0BB140F00400E37C0BB140F00200EF
:1020F800237C0BB140F01000237D0BB140F0C800E9
:1021080004F124063146FEF7F8F970B93046FEF7B7
:10211800B5F950B931460DF10600FEF765FB00F040
:1021280029F9BDF8065005442562284602B070BD5D
:1021380030B587B00546FFF7CBFF0446002849D0E5
:1021480000F018F9844203D9201A400000F0E6FB99
:1021580000242C6205F1240101A8FEF779FB002870
:1021680038D16B7C5BB1BDF9080003F0D5FC0022C7
:102178001A4B03F061FE03F0E5FF286001E0184BFD
:102188002B60AB7C53B1049803F0B6FC0022154BCE
:1021980003F052FE03F0D6FFA86001E0104BAB60DD
:1021A800EB7C23B1039804F0D3F8686001E00C4B92
:1021B8006B602C7D5CB19DF80430DB0604D5059876
:1021C80004F0C6F8E86005E00023EB6002E0044B89
:1021D8000124EB60204607B030BD00BF0000594025
:1021E8000000C07F00408F40FFF7A2BF0000000042
:1021F80038B505460C46FFF7F7FF6868124904F042
:10220800B3F9214604F0B0F903F098FC0AA3D3E926
:10221800002302F0F7F902460B4600200B4903F0B1
:102228002DFB07A3D3E9002303F0DCFC03F08AFFAE
:1022380038BD00BFAFF30080EBE2361AC05BC83F81
:102248000000000040A5E5400000C8420000F03F43
:10225800A0F86410A0F8662001B122B9082380F81C
:102268006130002303E0002380F86130012380F807
:1022780062300375012070470529034607D880F8A6
:102288005D10012009B959747047587470470020CF
:1022980070470529034607D880F85C10012009B962
:1022A8009974704798747047002070470529034651
:1022B80007D880F85E10012009B9D9747047D8741E
:1022C8007047002070470729034607D880F85F1039
:1022D800012009B9197470471874704700207047B5
:1022E80000F088B808B5024B1B68DB6B019308BD8A
:1022F8002000060808B5024B1B685B6C019308BDFB
:102308002000060808B5024B1B689B6C019308BDAA
:102318002000060808B5024B1B681B6B019308BD1B
:10232800D001040808B5024B1B681B6C019308BD5B
:10233800D001040808B5024B1B685B6E019308BD09
:10234800B801040808B5024B1B689B6E019308BDD1
:10235800B801040808B5024B1B68DB6E019308BD81
:10236800B801040808B5024B1B685B68019308BDF7
:102378009C01040808B5024B1B685B69019308BD02
:102388009C01040808B5024B1B68DB69019308BD72
:102398009C01040808B5024B1B689B6A019308BDA1
:1023A8009C01040808B5024B1B68DB6A019308BD51
:1023B8009C01040808B5024B1B681B6B019308BD00
:1023C8009C01040808B5024B1B689B6C019308BD6F
:1023D8009C01040808B5024B1B689B6D019308BD5E
:1023E8009C01040808B5024B1B68DB6D019308BD0E
:1023F8009C01040808B5024B1B681B68019308BDC3
:10240800B001040808B5024B1B689B68019308BD1E
:10241800B001040808B5024B1B68DB68019308BDCE
:10242800B001040808B5024B1B681B69019308BD7D
:10243800B001040808B5024B1B685B69019308BD2D
:10244800B001040808B5024B1B689B69019308BDDD
:10245800B001040808B5024B1B68DB69019308BD8D
:10246800B001040808B5024B1B68DB68019308BD7E
:10247800AC01040808B5024B1B685B69019308BDF1
:10248800AC01040808B5024B1B689B69019308BDA1
:10249800AC01040808B5024B1B68DB69019308BD51
:1024A800AC01040808B5024B1B681B6A019308BD00
:1024B800AC01040808B5024B1B685B6A019308BDB0
:1024C800AC01040808B5024B1B689B6A019308BD60
:1024D800AC01040808B5024B1B68DB6A019308BD10
:1024E800AC01040808B5024B1B681B6B019308BDBF
:1024F800AC01040808B5024B1B685B6B019308BD6F
:10250800AC01040808B5024B1B681B6C019308BD9D
:10251800AC01040808B5024B1B689B6C019308BD0D
:10252800AC01040808B5024B1B68DB6C019308BDBD
:10253800AC01040808B5024B1B681B68019308BD71
:10254800B401040808B5024B1B689B68019308BDD9
:10255800B401040808B5024B1B68DB68019308BD89
:10256800B401040808B5024B1B681B69019308BD38
:10257800B401040808B5024B1B685B69019308BDE8
:10258800B401040808B5024B1B68DB69019308BD58
:10259800B401040808B5024B1B681B6A019308BD07
:1025A800B401040808B5024B1B685B6A019308BDB7
:1025B800B401040808B5024B1B689B69019308BD68
:1025C800C401040808B5024B1B685B6A019308BD87
:1025D800C401040808B5024B1B689B6A019308BD37
:1025E800C401040808B5024B1B68DB6A019308BDE7
:1025F800C401040808B5024B1B681B6B019308BD96
:10260800C401040808B5024B1B685B6B019308BD45
:10261800C401040808B5024B1B689B6B019308BDF5
:10262800C401040808B5024B1B681B6C019308BD64
:10263800C401040808B5024B1B681B68019308BD58
:102648001C00060808B5024B1B681B69019308BDEE
:102658001C00060808B5024B1B685B69019308BD9E
:102668001C00060808B5024B1B689B69019308BD4E
:102678001C00060808B5024B1B68DB69019308BDFE
:102688001C00060808B5024B1B681B6A019308BDAD
:102698001C00060808B5024B1B681B68019308BD9F
:1026A800A401040808B5024B1B685B68019308BDC8
:1026B800A401040808B5024B1B685B69019308BDB7
:1026C800A401040808B5024B1B689B69019308BD67
:1026D800A401040808B5024B1B68DB6A019308BD16
:1026E800A401040808B5024B1B68DB6C019308BD04
:1026F800A401040808B5024B1B685B6D019308BD73
:10270800A401040808B5024B1B689B6D019308BD22
:10271800A401040808B5034B1B68D3F89030019353
:1027280008BD0000A401040808B5034B1B68D3F8D2
:102738009C30019308BD0000A401040808B5024BB1
:102748001B681B68019308BDCC01040808B5024B3F
:102758001B685B68019308BDCC01040808B5024BEF
:102768001B689B68019308BDCC01040808B5024B9F
:102778001B68DB68019308BDCC01040808B5024B4F
:102788001B681B69019308BDCC01040808B5024BFE
:102798001B685B69019308BDCC01040808B5024BAE
:1027A8001B68DB69019308BDCC01040808B5024B1E
:1027B8001B681B6A019308BDCC01040808B5024BCD
:1027C8001B685B6A019308BDCC01040808B5024B7D
:1027D8001B681B6B019308BDCC01040808B5024BAC
:1027E8001B68DB6B019308BDCC01040808B5024BDC
:1027F8001B685B68019308BDC801040808B5024B53
:102808001B689B68019308BDC801040808B5024B02
:102818001B68DB68019308BDC801040808B5024BB2
:102828001B681B69019308BDC801040808B5024B61
:102838001B685B69019308BDC801040808B5024B11
:102848001B689B69019308BDC801040808B5024BC1
:102858001B68DB69019308BDC801040808B5024B71
:102868001B681B6A019308BDC801040808B5024B20
:102878001B681B6B019308BDC801040808B5024B0F
:102888001B685B6B019308BDC801040808B5024BBF
:102898001B681B68019308BDA001040808B5024B1A
:1028A8001B685B68019308BDA001040808B5024BCA
:1028B8001B689B68019308BDA001040808B5024B7A
:1028C8001B681B69019308BDA001040808B5024BE9
:1028D8001B689B69019308BDA001040808B5024B59
:1028E8001B68DB69019308BDA001040808B5024B09
:1028F8001B68DB6A019308BDA001040808B5024BF8
:102908001B681B6B019308BDA001040808B5024BA6
:102918001B68DB6B019308BDA00104080021FFF7C9
:10292800C9BE10B5836804460BB901F020FDC36821
:102938009847A3681BB103222146204698472046A2
:10294800BDE81040FDF7A7BB002211464068FFF71D
:1029580065BF2DE9FF41002604AC054610468846B0
:10296800174644F8046D04F0AEFA009681B2D8F820
:10297800043022463846FFF7B5FC20B131462846D8
:1029880000F02AFD03E02146284600F01DFD2846F8
:1029980004B0BDE8F081002211464068FFF75EBF31
:1029A800002211464068FFF769BF00224068FFF720
:1029B8005DBF002281F001014068FFF747BF002397
:1029C8001A4619464068FFF739BF00231A461946C8
:1029D8004068FFF72BBF002211464068FFF70EBF83
:1029E800002202214068FFF711BF00231A46406801
:1029F800FFF7FCBEF0B50F461A4B002503601826FA
:102A0800283389B043608560C5603246294604464C
:102A1800103004F0FAF92A4629467868FFF7FEFED6
:102A280008B9A0601BE02946324602A80095019526
:102A380004F0EBF902A96846ADF80860FFF75AFC04
:102A480010B10123A3600AE0009B019AA360E26031
:102A58000BB90223A36002A9204600F09DF8204686
:102A680009B0F0BDD87B080838B50C4C28252A4693
:102A78000021204604F0C9F94FF0FF336360258038
:102A8800074C042320466360064B2C2540F8083B7E
:102A98002A46002104F0B9F9258138BDE80600204E
:102AA800B4060020A47B08087047007D704700002A
:102AB80008B5037D1BB18069B0F1004F01D100203A
:102AC80008BD03F049FC024903F04EFD08BD00BFF4
:102AD8000000C84208B5037D1BB1006AB0F1004F81
:102AE80001D1002008BD03F037FC024903F03CFD8A
:102AF80008BD00BF0000C84270B50D4606460A2250
:102B08008168284600F02DFF2C210446284600F055
:102B1800D7FE0A220444F168284600F022FF204428
:102B280070BDA0F10400FFF7E7BF10B50446FDF73C
:102B3800B2FA204610BD000008B5037D5BB1406ABB
:102B4800002808DB03F008FC044903F00DFD0449E4
:102B580003F056FC08BD034808BD00BF00FF7F47CF
:102B68000000C842000080BF08B5037D5BB1C069A2
:102B7800002808DB03F0F0FB044903F0F5FC0449E6
:102B880003F03EFC08BD034808BD00BF00FF7F47B7
:102B98000000C842000080BF30B50D4600F11004A7
:102BA8000FCD0FC495E8030084E80300012030BD71
:102BB80070470020704710B50446FDF76CFA2046B0
:102BC80010BD08B508B1FFF7F6FF08BD10B583685A
:102BD800044613B1032201469847204610BD38B574
:102BE800C468D4B12378022B02D1E068FFF756FEFF
:102BF80065682DB12846FFF7E9FF2846FDF74BFA2F
:102C0800A5682DB12846FFF7E1FF2846FDF743FAEE
:102C18002046BDE83840FDF73EBA38BD10B588B04B
:102C28000446684600F088FF694604A800F0A6FF3D
:102C380004A8A047044604A800F037FF684600F03F
:102C480034FF204608B010BDF0B507460E461546BD
:102C580085B0102422460021684604F0D6F80022E8
:102C680069461046ADF80040029703960195FFF7B4
:102C78006DFD05B0F0BD13B5044691E805000023CD
:102C88004B600B602060626001A801930093FEF71F
:102C9800ABFA204602B010BD0B68036013B15A6846
:102CA80001325A607047F7B50C4606460F4654F88D
:102CB800043B02AD45F8083D214601A8FFF7ECFFAB
:102CC80029463046FFF7D7FF01A8FEF78DFA2046C0
:102CD800FEF78AFA3846FDF7DEF9304603B0F0BD54
:102CE80013B50B46044603C88DE8030093E80300B8
:102CF80084E803009DE8030083E8030002B010BDE8
:102D0800826810B50AB901F032FBC368BDE810400B
:102D1800184708B5006800F11001FFF7F1FF08BD7A
:102D2800826810B50AB901F022FBC368BDE81040FB
:102D3800184708B5006800F11001FFF7F1FF08BD5A
:102D480038B5002383608B6804460D462BB10222F8
:102D58009847EB68E360AB68A360204638BD000085
:102D68002DE9F0414FF69C7304684FF0020086B0DD
:102D7800B1F904208B8000230F688DF800300B60B8
:102D8800D4E84F1F994203D1C4E8450F002DF7D16D
:102D980002D08DF800106BE014F10C051CBFE76041
:102DA8002282BFF35F8F18BF1F4601236370BFF3F2
:102DB8005F8F04F10803002053E8006F43E8000226
:102DC800002AF9D1BFF35F8F002E51D0FFF78AFC9C
:102DD80020B129463046FFF793FF43E03146684665
:102DE800FFF7AEFFE068B4F9105008B104F050F8EE
:102DF80004901020ADF81450FDF74BF9054630B398
:102E08004FF00008C0F808801820FDF742F9044682
:102E1800C0B1C0F8088001466846FFF761FF029B11
:102E2800A268A360039B0292E268E360BDF81430D5
:102E38000392A3824FF69C73ADF81430049BCDF82F
:102E4800108023610D4B2C60EB600D4BAB60049838
:102E5800FFF724FD6846FFF7B9FE00222946094816
:102E6800FFF748FC3046FFF7B1FE3046FDF713F98F
:102E78003846FFF713FD06B0BDE8F0811B2D0808A2
:102E8800792F08082B2908082DE9F04F8BB007ADDA
:102E98004FF0000B0646994614200C230F46904627
:102EA8009DF850A0C5F804B0C5F808B00793FDF721
:102EB800F0F8044638B180F800B080F801B0C0F8E6
:102EC80004B0C0F808B00023102003940493FDF761
:102ED800E0F828B1012343608360234BC46003609A
:102EE800224B049008200893FDF7D3F8044628B134
:102EF800039B04A940F8043BFFF7CEFE00955FFA58
:102F08008AF34A46414638460994FFF74FFCB8B958
:102F1800039B5B7803F0FF0293B94FF69C7305A9F6
:102F280003A80592ADF81830FFF71AFF0598FFF7C8
:102F3800B5FC05A80999FFF7B6FE06A8FEF754F9EF
:102F4800039B04A906A80593FFF7A6FE05A930462A
:102F5800FFF791FE06A8FEF747F904A8FEF744F923
:102F680030460BB0BDE8F08F0C7C0808E13008084B
:102F7800022AF8B5044606D0032A17D0012A20D120
:102F88000B6803601DE018200E68FDF782F80546FF
:102F980050B13146FFF7D4FE3069B6F9147008B164
:102FA80003F076FF2861AF8225600AE0046844B127
:102FB8002069FFF773FC2046FFF708FE2046FDF75F
:102FC8006AF80020F8BD38B5002383608B68044692
:102FD8000D462BB102229847EB68E360AB68A3600B
:102FE800204638BD022A70B5044606D0032A11D0FF
:102FF800012A17D10B68036014E014200E68FDF74E
:1030080048F8054620B13146FFF7DDFF337C2B74C5
:10301800256007E004682CB12046FFF7D7FD20465D
:10302800FDF739F8002070BDF0B50C46BFF35F8F8F
:1030380087B0002350E8006F40E80032002AF9D139
:10304800BFF35F8F002E3ED01846FFF74BFB0746B5
:1030580020B121463046FFF763FE2EE0314601A835
:10306800FFF7B1FF237810208DF81430FDF711F821
:103078000546D0B187601420FDF70BF8044678B1F7
:103088008760014601A8FFF72BFE039BA268A36097
:10309800049B0392E268E3609DF814300492237461
:1030A8000A4B2C60EB600A4BAB6001A8FFF78EFD62
:1030B800002229460748FFF71DFB3046FFF786FD2B
:1030C8003046FCF7E8FF07B0F0BD00BF3B2D08080D
:1030D800ED2F08082B29080830B5044685B00D46A1
:1030E80068461146FFF7DFFD7CB124B228460DB1D2
:1030F80003F0CEFE029002A96846ADF80C40FFF737
:103108002FFE0298FFF7CAFB1DE04FF0010200985E
:103118008DF80840D0E84F3FA34203D1C0E8412FC3
:103128000029F7D102D08DF808300CE010F10C011D
:103138004FF0010318BF0373BFF35F8F043000F82B
:10314800033CFFF771FF01A8FEF74EF805B030BD4C
:10315800006800F0D4B810B50446016002710AB1E5
:10316800FFF7F6FF204610BD38B504460D4601F0BE
:1031780093F82A4601462046FFF7EDFF204638BD62
:10318800006800F0C5B810B5037904460BB1FFF725
:10319800F7FF204610BDF8B504460F4616461D46F3
:1031A800FFF7D6FF2068362100F09BF820683946E3
:1031B80003689B6898470121206800F095F802226F
:1031C80036210123206800F083F8206803685B69D2
:1031D80098473070206803685B69984728702046D4
:1031E800BDE8F840FFF7CCBF13B5002202AB03F8E7
:1031F800012D8DF8062004210DF10602FFF7CBFF03
:103208009DF8070002F088FC0022084B02F0EAFC57
:1032180002F098FF04469DF8060003F09DF8014669
:10322800204602F0E5FF02B010BD00BF0000703F6D
:103238007047F8B5064615460C468F18BC4206D0AE
:10324800336814F8011B9B6830469847F6E7284610
:10325800F8BD0022007CFFF725B90021007CFFF7AC
:1032680029B90021007CFFF72DB90021007CFFF768
:1032780031B90021007CFFF735B910B50446FCF7D9
:103288000AFF204610BD000010B5044608464FF45A
:103298007A73A360044B0021207461602360FFF7F8
:1032A80031F9204610BD00BF287C080800231A46C3
:1032B8001946007CFFF7D6B813B50024007C0094AB
:1032C800FFF7D8F8C0B202B010BD0123FFF7F4BF72
:1032D800DBB2D2B2C9B2FFF7EFBF0022007CFFF722
:1032E800D1B8C9B2FFF7F9BF0022007CFFF7D2B806
:1032F8000121FFF7F9BF0021007CFFF7FBB808B5F3
:103308000021007CFFF706F9B0FA80F0400908BDFB
:1033180008B50021007CFFF705F9B0FA80F04009F4
:1033280008BD004707282DE9FF4105460F4690468E
:103338001E464FF0000419D0FFF78CF8A6424FF054
:10334800040303948DF80C30A2BF9DF8283003AC19
:103358008DF80E302846009443463A460549A8BFE2
:103368008DF80D60FFF76EF8012000E0204604B0EC
:10337800BDE8F0812B330808704710B50446FCF708
:103388008AFE204610BDF8B50F4600F10806051D57
:10339800002416F8011D0A22384600F0BEFAAE4293
:1033A800044407D0002CF4D02E21384600F088FAC7
:1033B8000444EEE72046F8BD024A0260002242605B
:1033C800704700BF507C0808024A02600A684260E1
:1033D800704700BF507C0808014A4160026070478E
:1033E800507C080810B59DF8084044EA032343EAD6
:1033F800024242EA0161416010BD000037B5044D48
:1034080005609DF818500095FFF7ECFF03B030BD3C
:10341800507C0808014A024B1A607047117D080861
:103428001007002000231A464068FFF7DFB9002282
:1034380002214068FFF7EAB9002211464068FFF709
:10344800DDB9002211464068FFF7E8B900231A46A3
:1034580019464068FFF7EAB900231A46194640683A
:10346800FFF7ECB9002281F001014068FFF7EEB9DF
:1034780000224068FFF7FAB9002211464068FFF7BA
:10348800FDB9002211464068FFF7E8B9F0B51746C4
:1034980087B0054604A8FFF78FFF002606AC38461C
:1034A80044F80C6D03F00FFD0A4B009681B25B687F
:1034B80022463846FEF716FF20B131462846FFF768
:1034C8008BFF03E021462846FFF77EFF284607B01A
:1034D800F0BD00BFB4060020024B034A1A60002268
:1034E8005A60704714070020447D080808B500F0AA
:1034F800D3FEFFF700FF18B900F0CEFEFFF7D6FEA7
:1035080000F0CAFEBDE80840FFF7F5BE08B500F0B8
:10351800C3FEBDE80840FFF7F2BE10B504460170CF
:1035280009B1FFF7F3FF204610BD08B500F0B4FE5F
:10353800BDE80840FFF7ECBE10B5037804460BB1B0
:10354800FFF7F3FF204610BD10B504460068FFF7EB
:10355800ECFF204610BD37B502AC0D4644F8040D0B
:10356800FFF7D4FF00F098FE6B21FFF7BAFE00F0DA
:1035780093FE036829469B68984700F08DFE012159
:10358800FFF7B2FE00F088FE01231A466B21FFF711
:103598009FFE00F081FE03685B6998470546204658
:1035A800FFF7D2FFE8B203B030BD73B502AC1546E1
:1035B8000E4644F8040DFFF7A9FF00F06DFE6B21DD
:1035C800FFF78FFE00F068FE036831469B68984756
:1035D80000F062FE036829469B68984700F05CFE8D
:1035E8000121FFF781FE2046FFF7AEFF02B070BD54
:1035F80037B504460D460190FFF788FF00212046A5
:10360800FFF7A9FF41F258139D4200F087025BD0F3
:1036180020D841F218039D424DD00CD840F678735B
:103628009D4242D040F6C8739D4241D040F628736F
:103638009D4260D159E041F2B8039D423ED041F22B
:1036480008139D423DD041F268039D4253D142F098
:1036580020024AE041F298239D423ED00ED841F222
:10366800F8139D4233D041F248239D4232D041F2B3
:10367800A8139D423FD142F0400236E041F2383370
:103688009D422DD006D841F2E8239D4233D142F025
:1036980060022AE041F288339D4224D041F2D833B7
:1036A8009D4228D142F078021FE042F008021CE057
:1036B80042F0100219E042F0180216E042F0280227
:1036C80013E042F0300210E042F038020DE042F020
:1036D80048020AE042F0500207E042F0580204E0D3
:1036E80042F0680201E042F0700220460021FFF734
:1036F8005CFF012400E0002401A8FFF725FF204615
:1037080003B030BD37B504460D460190FFF7FEFE05
:1037180000212046FFF71FFFB5F5617F00F0F80292
:1037280023D007D8962D1AD0B5F5FA7F1AD0642D74
:1037380029D122E040F2DC539D4219D005D8B5F5D5
:10374800966F20D142F0040217E0B5F5FA6F12D057
:1037580040F6B8339D4216D142F007020DE042F020
:1037680001020AE042F0020207E042F0030204E02C
:1037780042F0050201E042F0060220460021FFF770
:1037880014FF012400E0002401A8FFF7DDFE204615
:1037980003B030BDF7B50C46174605461E460190E6
:1037A800FFF7B4FE002C0CBF0024802417B144F0AE
:1037B8004004E4B20EB144F020049DF820300BB16F
:1037C80044F010049DF824300BB144F008049DF82F
:1037D80028300BB144F0040402212846FFF7BBFE51
:1037E80000F00102224302212846FFF7DEFE01A86D
:1037F800FFF7AAFE012003B0F0BD37B504460D4619
:103808000190FFF783FE04212046FFF7A4FE41F252
:1038180010039D4200F0030206D041F270039D425E
:103828000AD142F0B00201E042F098022046042199
:10383800FFF7BBFE012400E0002401A8FFF784FE87
:10384800204603B030BD37B5054602AC44F8040D38
:10385800FFF75CFE05212846FFF77DFE052100F0F5
:10386800CE022846FFF7A1FE2046FFF76DFE012095
:1038780003B030BDF8B506460D468F180024BD428A
:103888000CD0336815F8011B9B6830469847002810
:1038980001DB0444F3E7002C08BF04462046F8BDCA
:1038A80070B505460C46084649B103F00CFB2B6879
:1038B800024621462846BDE87040DB68184770BDBF
:1038C80003689B681847012A98BF0A2230B50B463F
:1038D8008BB000218DF824100DF12304B3FBF2F511
:1038E80005FB1233DBB2092B94BF30333733DBB21D
:1038F800214604F801392B46002DEFD1FFF7D0FF00
:103908000BB030BD10B422B90368C9B29B6810BCB3
:103918001847D2B210BCFFF7D6BFFFF7F3BF2DE9A7
:10392800F04107460E4615462AB9BDE8F04103683E
:10393800C9B29B6818470A2A02D1002901DA04E0B3
:10394800D2B2BDE8F041FFF7BEBF2D21FFF7B8FFA7
:103958002A46044671423846FFF7B5FF2044BDE8C1
:10396800F081FFF7DCBF10B50446FFF72FF92046BA
:1039780010BD0000034800238360034A034900F098
:10398800F1BC00BF1C070020F80400206F390808AC
:10399800704710B50446FCF77EFB204610BD0000BA
:1039A80070B504460E46074B0025036040F80C5FCF
:1039B800FEF7B0FC30462671FEF7E4FDA560204610
:1039C80070BD00BF787D08084FF6FF710079FEF7DB
:1039D800B1BD0079FEF7B6BD0079FEF7BBBDC06882
:1039E800FEF7A0BC054A0023995C814202D001334E
:1039F800082BF9D1581CC0B2704700BF807D080859
:103A0800400830B5186000241868E5B2884206D925
:103A18000134082C02D040081860F5E70725024B4E
:103A28005B5D137030BD00BF807D080870B504462B
:103A380002FB01F588B006791422002103A803F0DF
:103A4800E4F90B2303A930460022ADF80C30FEF749
:103A5800A9FD02AB0DF1070229460498FFF7D0FF34
:103A680020799DF80710FEF77DFD029808B070BD1B
:103A780038B50446A56808464DB1FFF7B3FF0122E3
:103A880025FA00F12046BDE83840FFF7CFBF20797E
:103A9800BDE83840FEF766BD08B50079FEF76AFD57
:103AA800C0B208BD0079FEF775BD10B504460068C0
:103AB800FEF7F4FE204610BD10B50446006808B1B4
:103AC800FEF7ECFE00232360A360636010BD38B5E9
:103AD80004460D4600680131FEF7E8FE10B184E89F
:103AE8002100012038BD10B50368044613B14368AE
:103AF8008B4207D22046FFF7EAFF20B1A3680BB933
:103B080022681370012010BD70B50E461146044698
:103B18001546FFF7E8FF18B92046FFF7CDFF09E083
:103B28002A463146A560206803F064F92268A36834
:103B38000021D154204670BD38B5002304460360E7
:103B48004360836003730D4639B1084603F0BBF93F
:103B5800294602462046FFF7D7FF204638BD88424F
:103B680010B50B46044607D0096819B19A68FFF7E3
:103B7800CBFF01E0FFF7A0FF204610BD10B50446BB
:103B880000230360436083600373FFF7E8FF204668
:103B980010BD08B582680B4612B919B9012008BDD5
:103BA80011B90368187802E0006803F05FF9B0FA09
:103BB80080F0400908BD70B50E469AB191B185688C
:103BC8009D4202D800230B7070BD541EED1AAC4202
:103BD80028BF2C46016822461944304603F090F964
:103BE8000023335570BD014600228C20FEF7AABB86
:103BF8000020FFF7F8BF000010B50446084611463C
:103C08001A460023FEF75EFD064B00221A704FF697
:103C1800FF7258809A801A689B882260A380204689
:103C280010BD00BF2C0700204FF6FF72034B002089
:103C3800187058809A80FEF735BD00BF2C07002009
:103C4800F0B5144B144F1E68144B064418683B68B3
:103C580006449E428BB01BD00AA840F8286D02F09B
:103C6800D1FF0446436901AD03F26C7343610FCC85
:103C78000FC50FCC0FC5D4F800E0094CC5F800E01B
:103C880001AD0FCD0FC40FCD0FC43E60C4F800E0E6
:103C98000BB0F0BD64070020600700205C0700201F
:103CA8003407002008B50020FEF790FD28B1FEF784
:103CB8006DFD80F00100C0B208BD012008BD000004
:103CC80010B50949044602F039FD60B90749204694
:103CD80002F052FD38B90649204602F091FB02F085
:103CE80055FD044B186010BD000040C10000604144
:103CF800000061456407002037B50E4B04461B6879
:103D080002A819440C4B1B68194440F8041D02F022
:103D180079FF02F029FF054603F0D5F8002328446F
:103D280000F8013C29462046FFF706FF204603B06D
:103D380030BD00BF640700205C07002010B50020DC
:103D4800FEF748FB044668B9FEF7A4FC01280BD12E
:103D58002046FEF7D7FC38B9FFF7A4FF30B9FEF7C5
:103D6800FDFCF9E7012010BD002010BDFFF79AFF08
:103D78000020FEF72FFB003018BF012010BD08B54A
:103D8800FFF7DCFFBDE80840FEF7FCBA08B5FFF70F
:103D9800F6FFFFF755FF014B986808BD3407002070
:103DA80008B5FFF7ECFFFFF74BFF014B586808BD5C
:103DB8003407002008B5FFF7E2FFFFF741FF014B8A
:103DC800D86808BD34070020024B1A68024B1A60F5
:103DD800704700BF3804002058070020704741741E
:103DE8007047007CFEF71EBC007CFEF7F3BB007C2E
:103DF800FEF700BC007CFEF7F5BB007CFEF702BCBA
:103E080010B50446FCF747F9204610BD70B5457C4F
:103E180004460E4625B9007CFEF704FC002805DDA3
:103E28003146207CBDE87040FEF7CCBB284670BD0B
:103E380010B5044608461146002262604FF47A72B3
:103E4800A260054A20742260012262741A46FEF7B5
:103E5800B1FB204610BD00BFB87D0808007CFEF706
:103E6800D9BB000038B50C4D296811F0010411D1F7
:103E78002846FCF712F968B1084A2146084B094858
:103E8800FFF7D6FF2846FCF70DF9074A074905480A
:103E980000F068FA034838BD000800200408002034
:103EA8007C07002068070020F8040020E53D08088A
:103EB8004174704770470021007CFEF7D3BB012195
:103EC800007CFEF7CFBB007CFEF7C4BB007CFEF78E
:103ED800B9BB38B50446007C0D46FEF7BBFB00288D
:103EE80001DC607C20B12946207CFEF7C3FB012061
:103EF80038BD007CFEF7C6BB10B50446FCF7CBF80E
:103F0800204610BD10B50446002363604FF47A7351
:103F1800A360054B0846236001232174637411468E
:103F2800FEF788FB204610BDE87D080810B504465A
:103F38001422002102F069FF054B20466360054BFF
:103F4800E36040F2011323818123238210BD00BF67
:103F58000D0900208C08002030B50E4D87B001A84F
:103F6800FFF7E4FF296811F0010410D12846FCF797
:103F780094F860B101AA21460748FFF7C3FF284615
:103F8800FCF790F8054A0649034800F0EBF90248A7
:103F980007B030BD88080020100A0020F80400206F
:103FA800BD3E080810B504461422002102F02DFF7A
:103FB800054B20466360054BE36040F20113238103
:103FC8008123238210BD00BFC00A0020280A0020D8
:103FD80010B50E4C86B001A8FFF7E4FF2368DB0795
:103FE80010D42046FCF759F860B101AA012108480D
:103FF800FFF788FF2046FCF755F8064A06490448AB
:1040080000F0B0F9024806B010BD00BF240A002035
:10401800AC0A0020F8040020BD3E080808B5184B7B
:1040280033B1FFF799FF03681B69984700281EDC26
:10403800144B33B1FFF716FF03681B699847002834
:1040480018DC114B0BB1AFF30080104B0BB1AFF381
:1040580000800F4B0BB1AFF300800E4B7BB1FFF725
:10406800B7FF03681B699847002806DC08BDAFF353
:104078000080DDE7AFF30080E3E7AFF3008008BD21
:104088000000000000000000000000000000000028
:10409800000000000000000008B5FFF7BFFFFEF7B2
:1040A80069F9014B186008BDCC0B00200248034A8F
:1040B8000349121A02F09EBE00400240044002402A
:1040C800C880080807B5002300931A466FF07701E7
:1040D800FEF72AFB03B05DF804FB000007B5438830
:1040E8000A2B08D0502B09D1094B1B683BB103B0F0
:1040F8005DF804EB1847FFF7E5FF06E0002300939F
:104108001A466FF07701FEF70FFB03B05DF804FB6A
:10411800C40B002038B5104C104D2368AB42104B2F
:104128000CBF012200221A7002D0FFF7BFFF2560E2
:10413800FEF718F9044602F071FE0A4B13B1204647
:10414800AFF3008000210748FEF748FBBDE8384080
:1041580000210548FEF7DEBA004002401E1C279ADF
:10416800C80B002000000000E540080810B5044610
:104178000F48FFF797FC28B1A4F10D03022B01D8D3
:10418800002010BD00F068F8FFF7B5F808B1012C61
:10419800F6D9FFF767FEFFF761FE18B1A4F1120325
:1041A800012BEDD92E2C8CBF0020012010BD00BFA3
:1041B800100C00202E2838B504460D460AD8FF29D1
:1041C80008D0FFF7D3FF28B129462046BDE838407C
:1041D800FEF718B938BD38B504460D46FEF71AF98A
:1041E800FF2810D0062804D84D2323FA00F0C3076F
:1041F80009D42046FFF7BAFF28B129462046BDE872
:104208003840FEF70FB938BD10B50446FEF702F97D
:104218000438C0B2012808D92046FFF7A7FF20B10B
:104228002046BDE81040FEF705B9002010BD00008B
:1042380010B5074C2368DB0708D42046FBF72DFF91
:1042480020B1FEF7A7F82046FBF72CFF014810BD68
:10425800D00B0020D40B002038B50B4D296811F085
:1042680001040FD12846FBF718FF58B1214607482B
:10427800FFF70AF82846FBF715FF054A05490348E2
:1042880000F070F8014838BDD80B0020F00B002072
:10429800F80400203932080810B50B4C2368DB07F6
:1042A8000FD42046FBF7F9FE58B102210748FEF764
:1042B800EBFF2046FBF7F6FE054A0649034800F0E7
:1042C80051F8024810BD00BF040C0020DC0B002090
:1042D800F80400203932080813B5084C00231A46A0
:1042E800194600932046FFF789F82046044A0549F5
:1042F80002B0BDE8104000F035B800BF080C00203F
:10430800F80400208133080870B5114E114D124C85
:1043180000213046FFF744FB3046104E2A4621461E
:1043280000F020F801213046FFF73AFB30460C4EEA
:104338002A46214600F016F802213046FFF730FBE6
:104348002A4621463046BDE8704000F00BB800BF51
:10435800100C0020F804002099390808200C0020CF
:10436800300C00200B460146184602F03DBC08B54B
:10437800FEF7BCFA244B1A68D0075CBF01221A600A
:10438800224B1A68D1075CBF01221A60204B1A68B9
:10439800D2075CBF01221A601E4B1A68D0075CBFA7
:1043A80001221A601C4B1A68D1075CBF01221A60EF
:1043B8001A4B1A68D2075CBF01221A60184B1A6898
:1043C800D0075CBF01221A60164B1A68D1075CBF80
:1043D80001221A60144B1A68D2075CBF01221A60C6
:1043E800124B1A68D0075CBF01221A60104B1A687A
:1043F800D1075CBF01221A600E4B1A68D2075CBF56
:1044080001221A60704700BF6C0C0020680C002065
:10441800640C0020600C00205C0C0020580C00206C
:10442800540C0020500C00204C0C0020480C00209C
:10443800440C0020400C0020184B1A68D1075CBFC0
:1044480001221A60164B1A68D2075CBF01221A6053
:10445800144B1A68D0075CBF01221A60124B1A6805
:10446800D1075CBF01221A60104B1A68D2075CBFE3
:1044780001221A600E4B1A68D0075CBF01221A602D
:104488000C4B1A68D1075CBF01221A600A4B1A68E4
:10449800D2075CBF01221A60704700BF8C0C002055
:1044A800880C0020840C0020800C00207C0C00204C
:1044B800780C0020740C0020700C0020184B1A682F
:1044C800D1075CBF01221A60164B1A68D2075CBF7D
:1044D80001221A60144B1A68D0075CBF01221A60C7
:1044E800124B1A68D1075CBF01221A60104B1A6878
:1044F800D2075CBF01221A600E4B1A68D0075CBF56
:1045080001221A600C4B1A68D1075CBF01221A609D
:104518000A4B1A68D2075CBF01221A60704700BFB5
:10452800AC0C0020A80C0020A40C0020A00C00203B
:104538009C0C0020980C0020940C0020900C00206B
:10454800244B1A68D0075CBF01221A60224B1A68F4
:10455800D1075CBF01221A60204B1A68D2075CBFE2
:1045680001221A601E4B1A68D0075CBF01221A602C
:104578001C4B1A68D1075CBF01221A601A4B1A68D3
:10458800D2075CBF01221A60184B1A68D0075CBFBB
:1045980001221A60164B1A68D1075CBF01221A6003
:1045A800144B1A68D2075CBF01221A60124B1A68B2
:1045B800D0075CBF01221A60104B1A68D1075CBF94
:1045C80001221A600E4B1A68D2075CBF01221A60DA
:1045D800704700BFDC0C0020D80C0020D40C002051
:1045E800D00C0020CC0C0020C80C0020C40C0020EB
:1045F800C00C0020BC0C0020B80C0020B40C00201B
:10460800B00C00202DE9F04F8DB006460F46144639
:104618001D4600F0EDF9DFF81093CDE9000199F996
:104628000080B8F1FF3F46D022462B462046294657
:1046380001F072FD834600283DD132463B463046A4
:10464800394601F069FD8246002874D13046394662
:104658000022002301F02EFD002833D00022002381
:104668002046294601F026FD8346B8B1A94A012310
:1046780000200021CDF828A0CDE90467CDE9064542
:10468800CDE9080103920293B8F1000F6CD0A24B58
:104698000022104619460DB0BDE8F08F2046294685
:1046A80000F0D0FF38B1002200232046294601F04F
:1046B8000BFD00286AD1DDE90023104619460DB02C
:1046C800BDE8F08FDDE9000100F0BCFF804600285E
:1046D8007DD0DDE900014FF0000A4FF0000B524693
:1046E8005B4601F0E7FC0028E5D03046394600F08B
:1046F800A9FF0028DFD02046294600F0A3FF0028A4
:10470800D9D099F90030834804210022022BCDE941
:104718000467CDE90645CDE908AB039002910A92FA
:1047280004D002A800F094FF002847D1FEF7EEF865
:104738002223036042E0002200232046294601F09C
:10474800B9FC0028B7D0744B724800220121B8F197
:10475800020FCDF828B0CDE90467CDE90645CDE9CB
:10476800082303900291A8D002A800F071FF002846
:104778007ED00A9B43B3FEF7C9F8DDE908230A99FE
:104788000160104619460DB0BDE8F08F614999F9EE
:1047980000300122CDF828B0CDE90467CDE90645FF
:1047A80003910292002B68D05C490020022BCDE9CE
:1047B800080166D1FEF7AAF8212303600A9B1BB102
:1047C800FEF7A4F80A9B0360DDE9082375E7304685
:1047D800394600F037FF00283FF47BAF20462946D2
:1047E80000F030FF00283FF474AFDDE900231046E5
:1047F800194601F091FC00286FD1464B99F90080C9
:10480800039303230A90CDE90467CDE90645029393
:10481800B8F1000F3BD1DFF814B14FF0604A002225
:10482800002330463946CDE908AB01F04DFC00289D
:104838003FF477AF00223A4B2046294601F0D2F9DF
:1048480004460D4600F00CFF02460B46204629465A
:1048580001F030FC00283DD1324B4FF06042CDE9E9
:10486800082399F90080B8F1020F7FF45AAF5DE789
:10487800FEF74CF8212303607BE700230024CDE9F1
:10488800083402A800F0E4FE002897D192E7DFF888
:10489800A0B04FF0000A0022002330463946CDE987
:1048A80008AB01F011FC0028DDD000221C4B20468B
:1048B800294601F097F904460D4600F0D1FE02465C
:1048C8000B462046294601F0F5FB18B9134B002288
:1048D800CDE9082399F90080C5E70E4A99F90090B7
:1048E8000123CDF82880CDE90467CDE90645039278
:1048F8000293B9F1000FC0D00022002310461946D8
:1049080001F09AFAB9F1020FCDE908013FF452AF6C
:10491800B7E700BF107E08080000F03F0000F0FF76
:104928000000E03FFFFFEFC73C040020FFFFEF4718
:104938000000F07F2DE9F04F8BB004460D4600F0E3
:10494800B9FD284B064693F900A00F46BAF1FF3F80
:1049580012D022462B462046294601F0DDFB83462D
:1049680050B94FF000084FF000092046294642464A
:104978004B4601F0A9FB20B9304639460BB0BDE8DB
:10498800F08F194A0123CDF820B0CDE90445CDE9CF
:10499800024501920093BAF1000F15D042464B46EA
:1049A8004046494601F048FABAF1020FCDE906013E
:1049B8000CD1FDF7ABFF21230360089B63B9DDE948
:1049C80006010BB0BDE8F08FCDE90689684600F016
:1049D8003FFE0028F1D1ECE7FDF798FF089B036044
:1049E800EDE700BF3C040020147E0808000000002A
:1049F8002DE9F04F23F0004858EA020993B03CD063
:104A0800714C21F00046A64283460D460CDD06F1A6
:104A1800404606F5801656EA0B0038D183466B49A6
:104A2800584613B0BDE8F08F9A4696462BD0A0455D
:104A3800EDDC654CA04578D0002D0F468146CDE9C8
:104A4800002376DB0024BEF1000F27D15E4B98458A
:104A580000F08B805D4B984552D0BAF1804F00F042
:104A6800C9835B4B9A4519D1002D17DB4846394657
:104A780013B0BDE8F04F00F01DBDCB465846534972
:104A880013B0BDE8F08F0028C1D1B045D1DD514841
:104A980013B0BDE8F04F00F0DDBD002448463946AC
:104AA80000F0CCFDBBF1000F1CD0ED0F013D54EA26
:104AB800050370D0484B984540F3948003F1047384
:104AC800984540F30D84454B9E4270DDBAF1000FC6
:104AD80070DD3BA3D3E900231046194601F082F8A4
:104AE80083469DE726B1394B25F040429A42DCD1F6
:104AF800BAF1000FC0F2B783002D08DB83468FE7B9
:104B0800BAF1000FC0F25E84CB46394688E706F159
:104B1800404606F5801656EA040300F08384012C0B
:104B2800ECD101F1004183467AE7BEF1000F83D052
:104B38006DE72B4B98452CDCA3F15473984581DD28
:104B48004FEA2853A3F2FF33142B40F35384C3F1E5
:104B580034032EFA03F202FA03F39E457FF472AF90
:104B680002F00102C2F102046DE706F1404303F5C9
:104B7800801353EA0B0300F03A83184B9E4240F32C
:104B88006783BAF1000F15DBDDE900349B46214647
:104B980046E7022457E74A4648463B46394600F06E
:104BA8006DFE02460B4601F047F9834638E7BAF135
:104BB800000F8EDB4FF0000B594631E7AFF3008052
:104BC8009C7500883CE4377E0000F07F0000F03FD1
:104BD8000000E03F187E08080000E041FFFFEF3FBB
:104BE800FFFF3F43B6F5801F4FF0000205DAD04BB8
:104BF80000F0F8FF0E466FF03402DFF844E3331597
:104C0800C6F31306A3F2FF3346F07F57764503EB4E
:104C1800020A47F4401740F3C983C64B00229E425C
:104C280040F304840023CDE90823CDE90C23C24BCB
:104C38000022CDE906230AF1010AA7F5801700260C
:104C48003946DDE90623CDE90A0100F017FEDDE962
:104C5800062380468946DDE90A0100F011FE024676
:104C68000B460020B44901F0E7F80A46014613460E
:104C7800CDE90E1202464946404600F0B3FF8C4685
:104C880083467B1043F0005303F500239919002055
:104C9800CDE904BC06460F464FF0000B6146584666
:104CA80032463B46CDE910BCCDE9020100F09AFF3F
:104CB80002460B464046494600F0E0FDDDE9062382
:104CC800804689463046394600F0D8FD02460B46F4
:104CD800DDE90A0100F0D2FDDDE9022300F082FFE0
:104CE80002460B464046494600F0C8FDDDE90E2362
:104CF80000F078FFDDE90478CDE906013A4643463D
:104D08003846414600F06EFF77A3D3E900230646F4
:104D18000F4600F067FF76A3D3E9002300F0B0FD4B
:104D280032463B4600F05EFF73A3D3E9002300F050
:104D3800A7FD32463B4600F055FF71A3D3E9002397
:104D480000F09EFD32463B4600F04CFF6EA3D3E9CF
:104D5800002300F095FD32463B4600F043FF6CA36C
:104D6800D3E9002300F08CFD3246804689463B4655
:104D78003046394600F036FF02460B464046494663
:104D880000F030FFDDE9022306460F46DDE90401A5
:104D980000F076FDDDE9062300F024FF32463B46AD
:104DA80000F06EFDDDE902678046894632463B46E3
:104DB8003046394600F016FF0022604BCDE90A0163
:104DC80000F05EFD42464B4600F05AFDDDE910BC9E
:104DD8000F46DDE902015A463B46CDE90EBC5E4668
:104DE80000F000FF0022CDE90201544B304639465D
:104DF80000F044FDDDE90A2300F040FD02460B46C1
:104E08004046494600F03AFDDDE9042300F0EAFE99
:104E1800324680468946DDE906013B4600F0E2FE5F
:104E280002460B464046494600F02AFD8046894620
:104E380002460B46DDE9020100F022FDDDE90EBC69
:104E480035A3D3E900235846CDE906BC5E460F4694
:104E580000F0C8FEDDE90223CDE9040130463946F9
:104E680000F00CFD02460B464046494600F006FDA0
:104E78002BA3D3E9002300F0B5FE2BA3D3E900232D
:104E8800804689463046394600F0ACFE02460B465D
:104E98004046494600F0F4FCDDE90C2300F0F0FC44
:104EA80080465046894600F037FE06460F46DDE943
:104EB800040142464B4600F0E3FCDDE9082300F01C
:104EC800DFFC32463B4600F0DBFCDDE906BC32463F
:104ED80058463B46DA468B4600F0D0FCDDE908230D
:104EE80030E000BFAFF30080EF4E454A287ECA3F4E
:104EF80065DBC9934A86CD3F01411DA96074D13F46
:104F08004D268F515555D53FFFAB6FDBB66DDB3F57
:104F1800033333333333E33F000000E009C7EE3F88
:104F2800FD033ADC09C7EE3FF5015B14E02F3EBEF6
:104F38000000404379B60B000000F03F0000084035
:104F48008E98030000F09AFCDDE9042300F096FC3B
:104F580002460B464046494600F090FC804689468A
:104F6800DDE90012013C54EA050314BFD64CD74CC6
:104F78000023CDE904340B461446CDE9023400235E
:104F88000293DDE9024508462B461146224600F009
:104F980075FC52465B4600F025FEDDE90023064617
:104FA8000F464046494600F01DFE02460B46304675
:104FB800394600F065FC06460F4622462B46504609
:104FC8005946CDE9006700F00DFE0B4602468046C3
:104FD80089463046394600F053FCBD4B0646994297
:104FE8000D460C4640F30E8101F13F4303F5E00303
:104FF800034340F0F081A0A3D3E90023DDE90001D9
:1050080000F03EFC424682468B464B4630462946D7
:1050180000F034FC02460B465046594601F072F83F
:10502800002840F0D8812F463B154FF48012A3F298
:10503800FE3342FA03F32344C3F30A52A54EA2F205
:10504800FF321641C3F3130B0020C2F1140523EA03
:1050580006014BF4801B02460B46002C4BFA05FB5D
:1050680040464946B8BFCBF1000B00F007FC0246AA
:105078000B4680468946DDE9000100F001FC4FEA55
:105088000B5A00247EA3D3E9002320460D4600F0E6
:10509800A9FD424606460F464B462046294600F0E3
:1050A800EDFB02460B46DDE9000100F0E7FB76A3C5
:1050B800D3E9002300F096FD75A3D3E900238046C9
:1050C80089462046294600F08DFD02460B4640469B
:1050D800494600F0D5FB8046894602460B463046D5
:1050E800394600F0CDFB32463B4604460D4600F0FB
:1050F800C5FB02460B464046494600F0BFFB224628
:10510800804689462B462046294600F06BFD62A35F
:10511800D3E9002306460F4600F064FD60A3D3E9F7
:10512800002300F0ABFB32463B4600F05BFD5EA37C
:10513800D3E9002300F0A4FB32463B4600F052FDC1
:105148005BA3D3E9002300F099FB32463B4600F00D
:1051580049FD59A3D3E9002300F092FB32463B46B0
:1051680000F040FD02460B462046294600F086FB2B
:1051780006460F4602460B462046294600F032FDF9
:105188000022CDE900014FF080433046394600F057
:1051980075FB02460B46DDE9000100F04DFE424674
:1051A80006460F464B462046294600F01BFD424660
:1051B8004B4600F065FB02460B463046394600F088
:1051C8005DFB22462B4600F059FB02460B460020A9
:1051D8003D4900F053FB8A44BAF5801FC0F237817D
:1051E8005146DDE9042300F0FDFC834618E4F3464C
:1051F800354915E44A4648463B46394600F0F2FC34
:1052080083460DE4344B21F000479F4240F301816F
:10521800324B0B4403430CD142464B4600F02EFB65
:1052280002460B46DDE9000100F058FF00283FF474
:10523800FBAE23A3D3E90023DDE9040100F0D2FC8F
:105248001FA3D3E9002300F0CDFC8346FFF7E8BB9A
:10525800BAF1000FBFF6AEACDDE900349B4604F1AD
:105268000041FFF7DDBB02460B460020164900F05F
:10527800E3FD41E4AFF30080FE822B654715973CC0
:1052880000000000432EE63FEF39FAFE422EE63FCB
:10529800396CA80C615C20BED0A4BE726937663E2A
:1052A800F16BD2C541BDBB3E2CDE25AF6A56113F1E
:1052B80093BDBE166CC1663F3E5555555555C53F05
:1052C80059F3F8C21F6EA5010000F03F0000F0BFBF
:1052D800FFFF8F40FFFF0F00FFCB904000346F3F70
:1052E8006F4B9E427FF763AC6E4B9E423FF7EEAB2F
:1052F80000226C4B00F0C2FA5BA3D3E900230646F8
:105308000F4600F06FFC5AA3D3E900238046894674
:105318003046394600F066FC002282468B46624BD6
:105328003046394600F05EFC02460B4652A1D1E9F0
:10533800000100F0A3FA32463B4600F053FC024657
:105348000B460020594900F099FA3246CDE902018E
:105358003B463046394600F045FC02460B46DDE93F
:10536800020100F03FFC46A3D3E9002300F03AFC19
:1053780002460B465046594600F080FA02460B4654
:1053880006460F464046494600F07AFA42464B46E2
:10539800002082468B4600F071FA02460B463046E2
:1053A800394600F06BFA80468946D9E50022002389
:1053B800CDE90823CDE90C233A4B00220026CDE99C
:1053C80006233DE44A463B460020364900F034FDBA
:1053D8008346FFF725BB2CA3D3E90023DDE90401AD
:1053E80000F000FC28A3D3E9002300F0FBFB834670
:1053F800FFF716BBBEF1000F7FF44FABC3F11403E8
:1054080048FA03F202FA03F3984524D07446FFF7EA
:1054180021BB264B9F423FF707AEDDE902349A468F
:105428009B462EE602460B46FFF7B9BB204B4FF4CE
:105438008026CDE9062316A3D3E90023CDE9082366
:1054480015A3D3E90023CDE90C23FFF7F9BB5A468E
:1054580000F096F9C5E602F00102C2F10204FFF776
:10546800F9BA00BFAFF30080000000604715F73FAE
:1054780044DF5DF80BAE543E555555555555D53F4F
:10548800FE822B654715F73F9C7500883CE4377E04
:105498000000004003B8E23F06D0CF43EBFD4C3E8E
:1054A800FEFFEF3F0000F03F0000D03F0000E03F6C
:1054B8000000F83F2DE9F0415F4E0C46B6460E401D
:1054C8007645054600F0988000290B46024674DDB3
:1054D8005FEA215E7FD0AEF2FF3EC3F313031EF0F6
:1054E800010F43F4801363D100273E4603EBD271CA
:1054F8000B444FEA6E0E520016204FF40011741838
:105508009C424FEAD2754FEA420202DC1B1B661826
:105518000F44013805EB43034FEA5101EFD18446AC
:1055280020244FF0004109E020D003EBD275013C64
:105538004FEA51012B444FEA420220D09E4201EB30
:105548000C05F1DA002D05EB010C09DBB04695429C
:10555800A3EB060300D9013B4646521B0844E4E787
:10556800BCF1000FF2DB06F10108F0E7954217D80D
:10557800002D05EB010C49DB98460023ECE71343AB
:1055880010D140087B1003F17F5303F50013FA078D
:1055980003EB0E57394648BF40F00040BDE8F081A4
:1055A8003346C2E7411C35D000F001031844E8E750
:1055B8005B0003EBD273520096E721F000460643E6
:1055C800ECD079BB8E46D30AAEF1150E5205002BEE
:1055D800F9D0DD0221D4002100E001465B00DC02A5
:1055E80001F10100F9D5C0F1200422FA04F42343A3
:1055F800C1EB0E0E82406EE702460B4600F0F2FA4F
:105608002A46234600F03CF9BDE8F081BCF1000FC2
:10561800A9DAB1E701372046B4E720244FF0FF317B
:105628000020E2E702460B4600F028F902460B4646
:1056380000F002FCB2E700BF0000F07F21F000415B
:10564800704700BF41F0004101F58010C00F70475E
:105658000020704700200149704700BF0000F87F14
:10566800F0B5C1F30A5EAEF2FF36132E83B00246E0
:105678000B460C464FEAD17507462EDC002E49DB57
:105688003D49314103EA010010432BD049080B4042
:1056980053EA02070CD04FF48023132E24EA0101A9
:1056A80043FA06F444EA01040CBF4FF00047002710
:1056B800324B214603EBC505D5E90045384622465D
:1056C8002B4600F0DDF8CDE90001DDE900012246B6
:1056D8002B4600F0D3F803B0F0BD332E06DDB6F547
:1056E800806F45D01046194603B0F0BDAEF2134E98
:1056F8004FF0FF3121FA0EF10842F3D04908084271
:10570800D6D04FF0804320EA010143FA0EFE4EEA5C
:105718000107CDE721F0004101431946E4D0C3F366
:10572800130343EA000CCCF1000343EA0C0C134BBF
:10573800640C4FEA1C3C0CF4002C03EBC503640416
:10574800D3E900674CEA040132463B4600F098F87A
:10575800CDE90001DDE9000132463B4600F08EF854
:10576800024621F0004141EAC57310461946BBE7DD
:1057780000F086F8B8E700BFFFFF0F00207E08089A
:10578800F8B5C1F30A5604460D460B46174606BB44
:1057980021F00043034325D000222F4B00F022FACA
:1057A8002E4A044697420D460B462ADBC1F30A5699
:1057B800363E40F2FE723E44964228DC002E12DD50
:1057C80023F0FF4323F4E00343EA06552046294625
:1057D800F8BD40F2FF729642EBD102460B4600F04C
:1057E8004FF8F8BDF8BD16F1350F1DDA4CF25033FD
:1057F8009F420CDC14A1D1E9000122462B4600F09F
:1058080031F811A3D3E9002300F0ECF9F8BD2246E2
:105818000FA1D1E900012B4600F024F80CA3D3E92D
:10582800002300F0DFF9F8BD23F0FF4323F4E00381
:10583800363643EA0655204629460022084B00F032
:10584800D1F9F8BDAFF3008059F3F8C21F6EA50176
:105858009C7500883CE4377E00005043B03CFFFF55
:105868000000903C03F0004321F0004242EA0301AB
:10587800704700BF81F0004102E000BF83F00043A1
:1058880030B54FEA41044FEA430594EA050F08BFD3
:1058980090EA020F1FBF54EA000C55EA020C7FEA97
:1058A800645C7FEA655C00F0E2804FEA5454D4EB14
:1058B8005555B8BF6D420CDD2C4480EA020281EADE
:1058C800030382EA000083EA010180EA020281EA16
:1058D8000303362D88BF30BD11F0004F4FEA013168
:1058E8004FF4801C4CEA113102D0404261EB410177
:1058F80013F0004F4FEA03334CEA133302D05242FD
:1059080063EB430394EA050F00F0A780A4F10104B8
:10591800D5F1200E0DDB02FA0EFC22FA05F28018F2
:1059280041F1000103FA0EF2801843FA05F35941D8
:105938000EE0A5F120050EF1200E012A03FA0EFC57
:1059480028BF4CF0020C43FA05F3C01851EBE37181
:1059580001F0004507D54FF0000EDCF1000C7EEB9E
:1059680000006EEB0101B1F5801F1BD3B1F5001FDC
:105978000CD349085FEA30004FEA3C0C04F10104FB
:105988004FEA445212F5800F80F09A80BCF1004F24
:1059980008BF5FEA500C50F1000041EB045141EAA6
:1059A800050130BD5FEA4C0C404141EB010111F4A7
:1059B800801FA4F10104E9D191F0000F04BF014652
:1059C8000020B1FA81F308BF2033A3F10B03B3F130
:1059D80020020CDA0C3208DD02F1140CC2F10C02C0
:1059E80001FA0CF021FA02F10CE002F11402D8BF1E
:1059F800C2F1200C01FA02F120FA0CFCDCBF41EAEA
:105A08000C019040E41AA2BF01EB0451294330BDB8
:105A18006FEA04041F3C1CDA0C340EDC04F1140495
:105A2800C4F1200220FA04F001FA02F340EA03006C
:105A380021FA04F345EA030130BDC4F10C04C4F1B2
:105A4800200220FA02F001FA04F340EA0300294692
:105A580030BD21FA04F0294630BD94F0000F83F4DC
:105A6800801306BF81F480110134013D4EE77FEABF
:105A7800645C18BF7FEA655C29D094EA050F08BF0B
:105A880090EA020F05D054EA000C04BF19461046EC
:105A980030BD91EA030F1EBF0021002030BD5FEA30
:105AA800545C05D14000494128BF41F0004130BD58
:105AB80014F580043CBF01F5801130BD01F00045AC
:105AC80045F0FE4141F470014FF0000030BD7FEA1F
