:020000040808EA
:1000000000000808A8850808000006000A0005018D
:080010000402BD040000000021
:10001800707A080809480A4908B5884205D0094A8B
:10002800824202D0121A07F05DF80748074A0021F9
:10003800121A07F062F8064808BD00BF0004002045
:100048002C8408085405002058050020700D002055
:10005800700D002070B504F0D3F9074B074C1E460D
:10006800E41AA4080025A54204D056F8253098477C
:100078000135F8E770BD00BFE08308081884080858
:1000880001F070BD08B501F03FFBBDE8084004F081
:1000980079B902F01FBD02F025BD0078B0FA80F0F2
:1000A8004009704701230370704748B1836C3BB126
:1000B800C36C2BB1006DB0FA80F040094042704724
:1000C8004FF0FF30704773B5024608460C46FFF7FD
:1000D800ECFF054650BB12F0800FCA7814BF00230E
:1000E80010239A4222D0CB708E6C01230DF10702A7
:1000F800F3216078B04784F8540010B16FF001051F
:1001080014E0E378E66C03F010029DF807307321E1
:1001180023F0100313438DF807300DF10702012374
:100128006078B04784F854000028E7D1284602B028
:1001380070BD73B50446FFF7B8FF054688B9A66CCD
:1001480001230DF10702F3216078B04784F85400C9
:1001580028B99DF8073003F01003E37001E06FF051
:100168000105284602B070BD40B103788B4208D91A
:100178000170137843F00203137002E04FF0FF3070
:100188007047002070472DE9F84306461846884610
:1001980091461D46FFF789FF0446A8B9AB783BB9DD
:1001A80029463046FFF78FFF044608B946F0800617
:1001B800AF6C4B46424631466878B847002885F808
:1001C800540018BF6FF001042046BDE8F8832DE9FC
:1001D800F04F1E468BB083468A46144600212822DB
:1001E800684606F08AFF3046FFF75FFF0546A8BB62
:1001F800631E122B30D80DF101085F46C1460AF183
:10020800FF3AA4B2CBEB07039BB29C4213D9B37855
:1002180043B931463878FFF756FF3B78054603F077
:100228007F0300E03B7808F8013C1AF8013F0137EA
:1002380008F8023BE6E78DB96300013BF46C9BB21A
:100248004A469DF800107078A047002886F85400A8
:1002580018BF6FF0010501E06FF0030528460BB0E9
:10026800BDE8F08F37B5E0238DF80630B623054694
:100278008DF80730FFF719FF0446D8B9AB786BB192
:100288002B4601220DF107010DF10600FFF79FFF34
:1002980004462B6D0A20984734B10BE02846FFF737
:1002A80048FF044630B9EBE7AB781BB92846FFF79F
:1002B80040FF0446204603B030BD30B58DB004463B
:1002C800FFF7F3FE0546002840F0D5802046FFF7EB
:1002D800C9FF0546002840F0CE802346012221466A
:1002E800D020FFF750FF0546002840F0C48023784F
:1002F800612B40F0BE800146292201A806F0FDFED0
:1003080020468DF80350FFF7D0FE0546002840F040
:10031800B2802346192201A98920FFF734FF054638
:1003280038B9234610220DF11D01E120FFF72BFFFC
:1003380005469DF826209DF8253043EA0223E382EE
:100348009DF806209DF8053043EA022323839DF893
:1003580007309DF80A20A3769DF8093043EA022366
:10036800A3839DF80C209DF80B3043EA0223E38316
:100378009DF80D309DF8102084F820309DF80F303E
:1003880043EA022363849DF812209DF8113043EA62
:100398000223A3849DF814309DF8182084F8263091
:1003A8009DF8133084F827309DF8173043EA02236C
:1003B80023859DF81A209DF8193043EA02236385A6
:1003C8009DF81B309DF81F1084F82C309DF81E30C6
:1003D80003F00F0242EA011222819DF81D201B0939
:1003E80043EA021363819DF820309DF82820237387
:1003F8009DF8213063739DF82230A3739DF8233054
:10040800E3739DF8243023749DF8293063749DF8B4
:10041800273043EA022363829DF82A30237515BBEF
:10042800234601220DF103010220FFF7ACFE9DF8DF
:1004380003300546C3F3011384F8343098B92346D2
:1004480001220DF10301FFF79EFE9DF803300546DA
:1004580084F8353038B9234601220DF10301042010
:10046800FFF791FE05469DF903301B1184F83630DD
:1004780001E06FF0020528460DB030BD37B5742392
:1004880004468DF80730FFF710FEA0BB054623464B
:1004980001220DF106017420FFF775FEA0B99DF841
:1004A800063013F0030511D023F003038DF806304E
:1004B800012223460DF106010DF10700FFF787FE23
:1004C800236D0A209847E2E7002DE0D194F84430E4
:1004D8008BB19DF8062003F0030322F003021343B7
:1004E8008DF8063038B9234601220DF106010DF1C9
:1004F8000700FFF76CFE03B030BD2DE9F041002383
:1005080088B0064608460C468DF807300493ADF8C7
:1005180014300693ADF81C30FFF7C7FD002840F0F3
:100528005F81320791F8447065D5012FADF8080056
:10053800ADF80C005ED15A23B1F840508DF8083060
:10054800B1F91230B5F5C87F03F5163303F29913E4
:1005580028BF4FF4C8755D43142395FBF3F505F5E3
:1005680048130A2593FBF5F591F9112091F9043008
:1005780002F544726A4391F914505D434FF47A735B
:1005880095FBF3F31B0203EB620194F83430043358
:1005980091FBF3F294F9351083234B4303F5803331
:1005A80092FBF3F32222FA3B53436422323393FB48
:1005B800F2F38DF80C30B4F842308DF80920B3F519
:1005C8007C6F0AD23F2BC2B200F1010001D99B080F
:1005D800F8E703EB8213DBB200E0FF238DF80D3060
:1005E800002384F83C300222234603A902A8FFF71F
:1005F800EEFD00E00120002384F8443010B92046C5
:10060800FFF73CFF06F01005ADB205B304F1460252
:10061800072104F13B00FFF7A7FD30B9234601226B
:100628000DF107017520FFF7AEFD94F83B30012569
:100638009B0003F01C029DF8073023F01C031343B2
:1006480075228DF807308DF810208DF81830B30614
:1006580022D504F14602082104F13D00FFF784FD8C
:1006680030B9234601220DF107017020FFF78BFDF9
:100678009DF80730702123F0080294F83D3003F00C
:100688000803134308AA2A4401358DF8073002F8F5
:10069800101C02F8083CEDB2B10733D004F1460251
:1006A800052104F13900FFF75FFD30B92346012227
:1006B8000DF107017420FFF766FDF20709D59DF8D3
:1006C800073094F8392003F01F0343EA42138DF8EA
:1006D8000730B3070BD594F83A309B0003F01C029F
:1006E8009DF8073023F01C0313438DF8073008AB3F
:1006F8002B44742203F8102C9DF80720013503F8C9
:10070800082CEDB2710722D504F14602052104F147
:100718003800FFF729FD30B9234601220DF1070102
:100728007220FFF730FD9DF80730722123F0070291
:1007380094F8383003F00703134308AA2A44013514
:100748008DF8073002F8101C02F8083CEDB216F0DC
:10075800C00F3CD004F146084246012104F13E0096
:10076800FFF702FD68B942460A2104F13C00FFF791
:10077800FBFC30B9234601220DF107017120FFF778
:1007880002FD72060BD594F83E301B0103F01002EF
:100798009DF8073023F0100313438DF80730330614
:1007A8000AD59DF8073023F00F0294F83C3003F087
:1007B8000F0313438DF8073008AB2B44712203F85D
:1007C800102C9DF80720013503F8082CEDB228B944
:1007D80023462A4606A904A8FFF7F9FC84F84470C2
:1007E80008B0BDE8F081000013B5184B044618683E
:1007F8009B8802AAADF8043091F839300090134470
:1008080091F83A2002A8024412F8082C13F8083C80
:10081800134491F83820024412F8082C134440F28B
:10082800AB72534303F595534FF47A721933B3FB04
:10083800F2F301339BB2238091F83E201AB1B1F84C
:1008480042201344238002B010BD00BF847A0808F8
:100858002DE9F04F8046A9B008460C46FFF725FC65
:100868000546002840F0858104AF01460F2238462E
:1008780006F043FC2046FFF718FC05460A26002D23
:1008880040F0718123460F2239461D20FFF77BFC7B
:1008980005469DF810009DF81EE000F00F0388F84B
:1008A80001309DF8113020F07F0088F802309DF863
:1008B80012309DF8139000939DF818309DF814C0DD
:1008C80001939DF819309DF815B002939DF81D30DD
:1008D8009DF8161003934FFA8EF303F0200A40EAAE
:1008E8000A0003F01003184340B200289DF81720AF
:1008F80088F8000080F23481120942EA011141EAC5
:100908000B3BE18AB4F918004900C1EBDB010A4648
:10091800CB175B104FEA320202FB03F6A2FB02235D
:100928004FEA123A94F91A2003EB46034AEA035AAB
:100938004FEA233B1301DF170AFB07F680FB01018F
:1009480003FB0B66AAFB0323C00A3344920B40EA5D
:10095800415042EA83428318236303EB83038033C5
:100968001B12A8F80430236B94F926105B10A3F52A
:100978007A4398104043C2125143B4F924204013DB
:100988005A43520002EBA102B4F91E104FEA1C1C94
:100998004B4394F920104CEA091949014143C91005
:1009A80001EB63039B14A18B03F500434B43D9135D
:1009B800009BB4F9280049EA0339B4F92230C9F593
:1009C80080191B0403EBA20240F63543A9EB22323F
:1009D8005A43B2F1804FADBF92FBF1F3520092FB44
:1009E800F1F35B00D9104943B4F92A2049134A436B
:1009F800991041431E12491301EB223106FB06F2FE
:100A0800564394F82C2008AF724301EB624294F9E4
:100A18002710019E02EBC11203EB2213C8F808301D
:100A2800236B94F90E1003EB830380331B12594395
:100A3800642291FBF2F194F90D005943584389114E
:100A480090FBF2F091FBF2F10144608901F58041DD
:100A580041430298891240EA06262089A6EB00162F
:100A680094F90C00584390FBF2F0A6EB6000484361
:100A780094F91010414E4B4393FBF2F2E37B02EBE7
:100A8800C31283135B4312119B12534300EB63039E
:100A98004FF47A729B125343394A1B1323EAE373C8
:100AA8009342D4BFC8F80C30C8F80C2094F936C06B
:100AB8000FCE0FC70FCE0FC70FCE0FC796E80F0088
:100AC800103687E80F000FCE18AF0FC70FCE0FC72D
:100AD8000FCE0FC796E80F0087E80F0040F23C5092
:100AE80005230021CCFB03010EF00F0628AB03EB16
:100AF800860656F8807C4FEA9E1EA0FB072307FB5C
:100B08000133100C40EA03401914039B4EEA830E8C
:100B18004FEACE3256F840EC12F17F42AEFB006746
:100B28000EFB01774FF0000343F1FF3312184B41DE
:100B3800700A40EAC75079125F104FEA32068019EE
:100B4800794105F0C1FFC8F8100095B998F900304F
:100B5800002BBABF012384F8453084F8455008E0DB
:100B6800236D0A209847013E16F0FF067FF487AEF2
:100B78000225284629B0BDE8F08F00BF8C7A080806
:100B8800A0860100014B01221A707047E40600207C
:100B980008B5044903F043F918B1034B03221A704E
:100BA800012008BD088008080806002001F016BDCD
:100BB80001F01CBD37B505469DF8184023438DF854
:100BC80000303C2302F08CFA284603B030BD000008
:100BD80030B58FB0104904A802F032F804A802F02A
:100BE8008AF8044604A802F0E5F8054604A802F0CD
:100BF800C9F805F01BF9CDE90201284605F016F9F8
:100C0800CDE90001054B064A53F824304021054838
:100C180001F088FF0FB030BD1C07002078040020C9
:100C28004C7B0808400600202DE9D0431A480023D1
:100C38001A461946406801F01DFF40F2E73601F0F8
:100C4800B1FE4FF496740027002001F0E7FC8046BF
:100C58004FF00009002001F0E1FCB0EB080061EB67
:100C680009018F4208BF864205D301F0ABFE10B9D7
:100C780001F090FEEEE701F0A5FE18B1BDE8D04303
:100C880001F0A0BE01F092FC044B186001F082FE56
:100C9800013CF3D0D8E700BF1C070020340C00202B
:100CA80008B501F087FE064800231A461946406831
:100CB80001F0E8FE4FF47A7001F054FF012008BDFE
:100CC8001C0700201FB51F4802F040FD1D4802F018
:100CD800EAFE1D4B1C781D4BBCB1142241F2E821E1
:100CE80018481A6002F0B4FD4FF46171154802F01B
:100CF80039FE002211460292019200920123114806
:100D080002F078FE41F2700116E01E2241F27001F5
:100D18000C481A6002F09CFD40F2DC51094802F0D0
:100D280021FE012321460294019400941A460548A5
:100D380002F060FE41F21001024804B0BDE8104024
:100D480002F08BBE09060020F50600206C05002085
:100D58002DE9F84F0D4605F069F87FA3D3E9002384
:100D680005F0B8F800227E4B04F002FF05F062FBA4
:100D78007C49044605F0B2FB7B4905F0B9FC7B4988
:100D88000646204605F0ACFB0146304605F0A8FBB8
:100D980077490646284605F0ABFC0146304605F083
:100DA8009FFB4FF07C5105F0A3FC05F03FF80022B3
:100DB8006B4B04F0DBFE68A3D3E9002305F0B4F91C
:100DC80005F038FB01460646204605F089FB4FF042
:100DD8007C5105F08DFC674905F046FE002800F0BF
:100DE800B3806549204605F083FC644905F078FB2B
:100DF800214605F07DFC624905F070FB6149074614
:100E0800204605F075FC604905F068FB214605F0B1
:100E18006FFC5E4905F064FB294605F069FC5C49F6
:100E28008246204605F064FC5A4905F059FB2146E4
:100E380005F05EFC584905F051FB294605F058FCC1
:100E4800294605F055FC4B498346204605F00CFE23
:100E5800002835D05149204605F0E8FD002876D015
:100E68004F49284605F0E2FD002870D04D4920463C
:100E780005F034FB05F002FE0028B8BF404205F03B
:100E8800E3FB0146484805F029FB474905F0E4FC27
:100E980004F0CCFF03F0C6FE804689464048294648
:100EA80005F01CFB4FF07A5105F022FC04F0BEFF60
:100EB80042464B4605F00EF805F0BCFA064605E03A
:100EC8002C49204605F0D0FD0026F0B137492046D0
:100ED80005F0ACFDD8B13649284605F0C5FDB0B1DE
:100EE8003349284605F0FAFA324905F0B5FC21469F
:100EF80005462E4805F0F2FA2F4905F0ADFC0146EB
:100F0800284605F0F5FB044602E0344600E00024DC
:100F18005146384605F0E4FA594605F0E1FA3146FB
:100F280005F0DCFA214605F0DBFA04F07FFF002229
:100F38000B4B04F01BFE08A3D3E9002305F0F4F8DB
:100F480005F078FABDE8F88F3046BDE8F88F00263E
:100F5800BCE700BFAFF30080CDCCCCCCCCCCFC3F01
:100F680000004040000088429A99993F000074426E
:100F78001283C03D0000A042E00FE0BB11230340F4
:100F880019842942AC0DA13A4826663E164B2241E7
:100F9800F18B05B6C88F5F3AF887603D0000E042E4
:100FA800000050410000BE42000088410000AE42EF
:100FB8000000AA42000020410000A04073B596221C
:100FC8004FF4A071414801F05FFA404801F02AFA55
:100FD8003F4B00221146586801F044FD08B1FFF765
:100FE800F7FD3A4C3B4D206804F020FF3A4AC5E92A
:100FF8000001CDE900011021384801F093FDA068F7
:1010080004F014FF364ECDE90001C6E90001354A67
:101018001021354801F086FD606804F007FF0022C2
:10102800324B05F081F8324B324AC3E90001CDE971
:1010380000011021304801F075FDE06804F0F6FE6B
:1010480000222E4B05F070F82D4B2E4AC3E9000103
:10105800CDE9000110212C4801F064FD2B49204600
:1010680001F0E2F904F0E2FE294B2A4AC3E9000143
:10107800CDE900011021284801F054FD274802F06D
:10108800E1F905F0FBFC264A034610601021254AC9
:10109800254801F047FDD6E9000105F0CBF90446E3
:1010A800D5E9000105F0C6F92146FFF751FE1F4BAF
:1010B800186004F0BBFE084ACDE9000110211C4865
:1010C80001F030FD012002B070BD00BF8C0500208A
:1010D8001C070020D8060020657B08085C05002056
:1010E800380600206D7B0808E506002000005940FE
:1010F80088060020757B08089C06002000408F4069
:10110800100600207E7B0808AC06002000507D44B5
:1011180008070020887B0808BD06002080050020FD
:10112800300600208F7B0808F60600209406002071
:101138002006002008B501F039FA044B1B68C01AD4
:10114800B0F57A7F34BF0020012008BD18060020C2
:1011580008B5FFF7EFFF18B1BDE80840FFF7EABF91
:1011680001F018FCF5E7000037B501F023FC01F0A9
:101178001DFA43F69725044601F024FC40B101F01E
:1011880015FA001BA84203D8642001F0EBFCF3E732
:101198000021094B47F23052084601F0CFF94FF4CD
:1011A8007A7001F0DFFC054B0A221B6801216846B2
:1011B80002F068FE03B030BD947B080814070020D5
:1011C80008B50121062003F07CF90021062003F070
:1011D80078F9024B00221A7008BD00BFE40600200F
:1011E80038B5046805467CB16368013B63605BB948
:1011F800236820469B689847A368013BA3601BB9F6
:1012080023682046DB689847284638BD00B5274B39
:10121800D3B01B680E93264B1B680D93254B1B6898
:101228000C93254BD3E90023CDE90A23234BD3E9BB
:101238000023CDE90823224B186804F0F7FDCDE917
:101248000601204B4FF48071D3E90023CDE9042334
:101258001D4B12A8D3E90023CDE902231B4BD3E988
:101268000023CDE900231A4A01F05CFC194B002247
:1012780019491B7810A88DF8002012AAFFF79AFCCC
:1012880011A8FFF7ADFF02F0C7FE144B187002F06B
:10129800D7FE134B01221870124B1A7001F086F911
:1012A800114B186053B05DF804FB00BF1C0600200A
:1012B80080060020300600200807002010060020C5
:1012C800940600208806002038060020D806002052
:1012D800A17B0808740500203B7C080890060020C4
:1012E8000A0600207404002070050020F0B585B0BF
:1012F800084602AF0E4605F05EFF00F1080323F032
:1013080007036D46ADEB030D02AC421C3146204687
:1013180005F06EFF9DF808604EB901F053FB0028F8
:101328003BD0204B204A1B788DF800602EE02046E9
:1013380005F0CEFDC83801281FD801F043FB60B185
:10134800184B00221B7838468DF800201749184A98
:10135800FFF730FC381DFFF743FF01F027F9154B65
:10136800186003F0DBF802F050FEC1B20520FFF769
:101378001FFC114B00221A700FE001F023FB60B133
:10138800084B00221B788DF80020224638460B496E
:10139800FFF710FC381DFFF723FFAD460C37BD469D
:1013A800F0BD00BF740500204E7C0808757C080855
:1013B800637C08081806002074040020567C08087E
:1013C80030B5244985B0054602F029FD0446D0B160
:1013D800214B01241C7003F0A1F80420FFF7E6FB61
:1013E8001E4D40F00400287003F098F82978042076
:1013F800FFF7DEFBFFF766FC194B00221B788DF820
:101408000020184A1CE01849284602F008FDF8B1E7
:10141800114B124D1C7003F081F80420FFF7C6FB36
:1014280020F00400287003F079F829780420FFF7E9
:10143800BFFBFFF747FC0A4B0C4A1B788DF80040AE
:101448000B4902A8FFF7B6FB03A8FFF7C9FE012066
:1014580005B030BD08800808F50600200607002002
:10146800740500207B7C0808F17E0808927C080837
:10147800A87C080830B5224985B0054602F0CFFCA3
:101488000446C0B11F4B01241C7003F047F8042028
:10149800FFF78CFB1C4D40F00800287003F03EF865
:1014A80029780420FFF784FB184B00221B788DF85D
:1014B8000020174A1AE01749284602F0B0FCE8B1A4
:1014C800104B114D1C7003F029F80420FFF76EFB38
:1014D80020F00800287003F021F829780420FFF78D
:1014E80067FB0A4B0C4A1B788DF800400B4902A891
:1014F800FFF760FB03A8FFF773FE012005B030BDBE
:10150800088008088A0500200607002074050020C6
:10151800AD7C0808F17E0808BE7C0808A87C08088D
:1015280070B5CCB00A2205A9006805F0FBFEC5B26B
:1015380005F10C03DBB2182B3DD844B2204605F068
:1015480083F802F003FD02F0E9FF29460320FFF7C4
:101558002FFB02F05AFD194E194D23463060194AE7
:101568004FF4807100240CA801F0DCFA2B780CAA47
:10157800154908A88DF80040FFF71CFB09A8FFF7DC
:101588002FFE4FF47A7001F0EDFA316808A802F0E6
:10159800F9FC089B0C490393039A2B7806A88DF84D
:1015A8000040FFF707FB07A8FFF71AFE08A802F09C
:1015B800C2FB012000E000204CB070BD7C0500207B
:1015C80074050020D37C0808E77C08087FB5264905
:1015D800054602F024FC28B92449284602F01FFCDD
:1015E80000283FD002F09AFF0420FFF7DFFA204CD2
:1015F8001D492070284602F012FC0646A0B11D4B7A
:1016080000221B781C498DF8002002A81B4AFFF70E
:10161800D1FA03A8FFF7E4FD2378012243F0010380
:101628002370174B1A7016E01049284602F0F7FB92
:1016380088B1104B134A1B780F4902A88DF8006037
:10164800FFF7B8FA03A8FFF7CBFD237803F07E0372
:1016580023700B4B1E7002F061FF04202178FFF706
:10166800A7FA012004B070BD08800808F17E0808B8
:101678000607002074050020A87C0808EC7C0808F0
:10168800BC060020F67C080830B5184D18492A78A1
:101698000E2303FB0212174C8FB02078009203FB35
:1016A8000013154A282104A801F03CFA2B7823706E
:1016B80001F088F990B1FFF74BFD104B00221B7821
:1016C8000F498DF8002002A804AAFFF773FA03A8AF
:1016D800FFF786FD00F06AFF0A4B186002F0B2FDC2
:1016E80004A902F02CFA0FB030BD00BF0806002094
:1016F8000004002089050020087D080874050020E2
:10170800167D0808180600207FB59D4C2378013BFC
:10171800062B00F2E281DFE813F0670107003300CF
:1017280060007E00B400F800964B1B782BB1964BF6
:101738001B78022B01D0FFF7A7FF944B1B780BB146
:10174800FFF73EFD924B1B784BB100F02FFF914BFA
:101758001B68C01A904B1B68984200F2BB8102F0CC
:101768005BFC8E4B1B7898421CBF032323708C4B69
:101778001A688C4B1B689A4200F3AF8107232AE052
:10178800804B1A781D462AB17F4B1B78032B01D05A
:10179800FFF77AFFFFF712FC0646D8B9012323703A
:1017A80000F004FF804B18602B78002B00F0958127
:1017B800FFF7CEFC7D4B7E4A1B787E4902A88DF848
:1017C8000060FFF7F7F903A8FFF70AFD00F0EEFE47
:1017D800794B1EE0042323707FE16A4B1B782BB101
:1017E800694B1B78042B01D0FFF74EFF01F0EAF894
:1017F80050B102F011FC0C2802D1002001F002F9CE
:10180800FFF704FD0523E6E70123237000F0CEFE71
:10181800654B186061E15B4B1B782BB15A4B1B7809
:10182800052B01D0FFF730FF644B1B7843B9022327
:101838002370634A584B1A6000F0B8FE554BE8E72E
:1018480000F0B4FE5F4B1B68C01A4AF6C873984292
:1018580040F2438100F0AAFE534D544B00221B78FE
:10186800286059498DF8002002A8584AFFF7A2F9C4
:1018780003A8FFF7B5FC0123237000F097FE28604A
:101888002BE1404B1A781C462AB13F4B1B78062B9C
:1018980001D0FFF7F9FE4E4B1D781E465DBB01F0E7
:1018A80091F8C8B123788BB1FFF752FC3F4B494AF6
:1018B8001B78404902A88DF80050FFF77BF903A870
:1018C800FFF78EFC00F072FE3B4B18604FF47A7005
:1018D80001F048F9FFF7E4F902F020FE3E4B022040
:1018E8001978FFF765F93D4B00210720197002F0C0
:1018F800E8FD0123337002F099FB394BC0F13C003D
:101908003C221B684243022136E01E4B1A781C46D3
:101918002AB11D4B1B78072B01D0FFF7B5FE01F04C
:1019280051F8D0B1237893B1FFF712FC1F4B002276
:101938001B7820498DF8002002A82A4AFFF73AF9B7
:1019480003A8FFF74DFC00F031FE1B4B18604FF465
:101958007A7001F007F9FFF7A3F9204B002107205F
:10196800197002F0AEFD02F061FB3C22C0F13C00B0
:101978001B4B42431B68012102A802F083FAACE02A
:10198800080600208A05002089050020E4060020BA
:10199800BC060020D00600209806002090060020F3
:1019A800300600206C050020E006002074050020A9
:1019B800277D0808757C0808180600207404002094
:1019C800905F010070050020417D0808A07B080891
:1019D800100700205A7D080880060020880500208E
:1019E80014070020697D08083D4B1B782BB13D4B3F
:1019F8001B78012B01D0FFF747FE00F0D7FD3A4BCB
:101A08001B6803F5922303F57873984265D9374B21
:101A18001B68032B16DC00F0D5FF60B1344B0022A5
:101A28001B7802A88DF800203249334AFFF7C2F824
:101A380003A8FFF7D5FB4FF4FA6001F093F802F022
:101A48001DFA4AE002F0E1FA044602F067FD0520BB
:101A5800FFF7ACF8201AB0F5E15F1EDD00F0B2FF29
:101A680060B1234B00221B7802A88DF80020214981
:101A7800224AFFF79FF803A8FFF7B2FB4FF4FA607A
:101A880001F070F802F04AFD00210220FFF790F8FB
:101A98000121042002F015FD1FE000F093FF60B162
:101AA800134B00221B7802A88DF800201149144A14
:101AB800FFF780F803A8FFF793FB4FF4FA6001F0F3
:101AC80051F802F02BFD00210220FFF771F8FFF713
:101AD8004BFB02E00623237041E604B070BD00BF53
:101AE8008A05002089050020E006002080060020E5
:101AF80074050020757C0808807D0808947D080816
:101B0800AE7D08081FB50F4902F089F9B8B100F099
:101B180059FF58B10C4B00221B7802A88DF8002001
:101B28000A49FFF747F803A8FFF75AFB4FF47A7002
:101B380001F018F80420012102F0C3FC012005B0CF
:101B48005DF804FB0880080874050020CD7D0808AE
:101B58000023042200F00EBF0246014801F09EB99E
:101B6800792E08082DE9F043B9B008AA1646B54BF6
:101B780003F11005144618685968083303C4AB42CA
:101B88002246F7D119889B782D22A37021800DF168
:101B980033000021AC4F05F0B0FA022501210720DF
:101BA8003D7002F07DFC0021052002F079FC012146
:101BB800062002F075FC0021112002F071FC0121C1
:101BC800042002F06DFC04A8002400F003FF0023A9
:101BD8007D2218A904A802F034F9234622469B491D
:101BE8000194009418A800F005FF99499948FFF757
:101BF800AFFF23462A469849984800F0BBFE98490B
:101C0800234604220968974800F0B4FE964997488D
:101C1800FFF79EFF234601229549964800F0AAFE49
:101C280095499648FFF794FF95499648FFF790FF26
:101C380095499648FFF78CFF95499648FFF788FF26
:101C480095499648FFF784FF95499648FFF780FF26
:101C580095499648FFF780FF95499648FFF77CFF1E
:101C680095499648FFF778FF95499648FFF774FF1E
:101C780095499648FFF770FF95499648FFF76CFF1E
:101C880002F04CFC2046FEF791FF012819D102F022
:101C980045FC0220FEF78AFF6F4C002220601146A7
:101CA80002A8029200F072FC029B142B1ED123683A
:101CB8000133236002F032FC21780220FEF778FF1E
:101CC80014E002F02BFC0125042202A9204602950B
:101CD80000F094FC02F022FC2846042202A90135F7
:101CE800029400F08BFC0A2DF4D1D0E72368052B71
:101CF80007DD02F013FC04210220FEF759FFFFF76D
:101D080033FA02F00BFC0320FEF750FF00F10C033E
:101D1800DBB2182B03D840B204F096FC00E0002098
:101D280002F014F902F0FAFB0420FEF73FFFDFF897
:101D3800408100F00103684C88F80030674D684B1B
:101D4800C0F380022070C0F3C0001A702870FEF73C
:101D5800B9FF01227721634800F04CFAC14678B9EF
:101D680000F024FCDFF88C815F49C8F80000304699
:101D780005F0FEF901233B7000F018FCC8F80000DC
:101D88000421584800F094FB0221564800F09DFBBE
:101D98000321544800F0A6FB0221524800F0AFFB93
:101DA80096224FF4A0714F4800F06EFBFFF706F93A
:101DB800052002F09FFB58B9237889F8000023F02A
:101DC8000103237002F0AAFB04212078FEF7F0FE3D
:101DD800464B1A68464B1B689A4202DC07233B7045
:101DE8000CE0FEF721FF48B901233B7000F0DEFB51
:101DF800404B41491860304605F0BAF90024FFF716
:101E0800DFF94FF0FF33009401223C49112001F023
:101E1800B7FB2B785BB13A4B02A81B7832468DF89A
:101E280000403849FEF7C6FE03A8FFF7D9F900F0CD
:101E3800BDFB354B186004A801F07DFF39B0BDE843
:101E4800F08300BF0C7B080808060020F51208087C
:101E580040060020D87D080880060020DF7D08089D
:101E680070040020EA7D0808F6060020F27D0808C4
:101E7800BC060020FD7D08085C0500200A7E0808D5
:101E8800E5060020167E08089C0600201F7E08082C
:101E9800AC060020287E0808BD0600202C7E080815
:101EA80020060020357E0808990B0808407E08089F
:101EB8000D1B08084C7E0808D5150808567E08082A
:101EC800C9130808637E08087D1408086E7E080890
:101ED800291508087B7E0808060700208A050020C7
:101EE800F50600208C050020877E080830060020B3
:101EF8006C050020E0060020A57E08088D0B080868
:101F080074050020B77E0808180600201A4B70B523
:101F180000241C60194B01251D7000F087FB4FF051
:101F2800FF31174800F04EF94FF6FF72154B0220AB
:101F38001C705C809A8000F0D1FC2146284600F095
:101F4800E5FC2946104D042000F010FB0F4E2146F9
:101F5800284601F037FA28460D4D32460D4902F061
:101F680077FB2146284601F008FC32462846BDE8A2
:101F78007040094902F06CBB14070020740500206A
:101F88008C050020760500208005002058050020DB
:101F980009060020EB330808A137080800F0E2BD65
:101FA800F8B5074614461D460E4602F0CBFA3946E8
:101FB80001F0C1FA02F0C6FA036831469B689847F7
:101FC8002544AC4207D002F0BDFA036814F8011B9F
:101FD8009B689847F5E702F0B5FA01F0B7FA0020D8
:101FE800F8BD00002DE9F0471B4D804695F90030FB
:101FF800013305D10146BDE8F047184801F092BE0B
:10200800DFF85C90DFF85CA00726002495F9000053
:10201800002180B202F055FA012799F9000007FA69
:1020280006F101EA080180B202F04BFA95F90000C6
:10203800394680B202F045FA9AF90000640080B28D
:10204800E4B202F057FA00B13C4316F1FF36DDD294
:102058002046BDE8F08700BF19070020780C002053
:102068001A070020180700202DE9F0411F461B4BD6
:10207800164693F900200546013288461C460ED1C3
:10208800174801F0E7FD4021154801F037FE01210E
:10209800134801F0E4FD0021114801F0E3FDADB261
:1020A8000021284602F00DFA4046FFF79BFF37440F
:1020B800BE4204D016F8010BFFF794FFF8E70121A0
:1020C800284602F0FEF994F90030013302D10448A1
:1020D80001F0CBFD0020BDE8F08100BF190700200A
:1020E800780C00202DE9F0411F461C4B164693F949
:1020F80000200546013288461C460ED1184801F0DA
:10210800A9FD4021164801F0F9FD0121144801F00C
:10211800A6FD0021124801F0A5FDADB20021284618
:1021280002F0CFF948F08000FFF75CFF3744BE4269
:1021380005D00020FFF756FF06F8010BF7E701214D
:10214800284602F0BEF994F90030013302D1044860
:1021580001F08BFD0020BDE8F08100BF19070020C9
:10216800780C0020F8B5044615461E460F4602F0C6
:10217800E9F9214601F0DFF902F0E4F9036839468C
:102188009B68984702F0DEF901F0E0F902F0DAF90D
:102198002146F2B201F0C7F984B2A6420DD14FF63A
:1021A800FF76013CA4B2B44209D002F0CBF903682F
:1021B8005B69984705F8010BF3E70120F8BD00209B
:1021C800F8BD000010B5084C0177FF212170074CBD
:1021D80000222170064C026221700275C27482745A
:1021E8004274027410BD00BF1A07002018070020AF
:1021F8001907002070B50446617590F91C00154652
:10220800421C0E460CD102F09DF901F07DF9012324
:1022180084F82630344B84F82560E366334B2DE090
:10222800012180B202F04DF994F91C00012180B21D
:1022380002F036F92E4B93F90000431C03D12D48C8
:1022480001F008FD11E0012180B202F029F92A4BC2
:10225800012193F9000080B202F022F9274B0021F6
:1022680093F9000080B202F01BF9237F84F825302F
:10227800002384F82630224BE366224B2367224B47
:1022880004F124006367FEF718F858BBE5B1022291
:10229800042384F85C2084F85F204FF4A07284F84B
:1022A8005D3003210123A4F8642096226374A3748B
:1022B80084F85E10E3742374A4F8662084F861003F
:1022C80084F86230237509E00823A4F86450A4F860
:1022D800665084F8613084F862502575012084F8CE
:1022E800680070BD002070BD6D210808A91F08088E
:1022F80019070020780C00201A0700201807002072
:10230800ED20080871200808A51F080873B5056A9C
:10231800044645BB012380F86830A37C407C0BB1A0
:1023280040F00400E37C0BB140F00200237C0BB1C9
:1023380040F01000237D0BB140F0C80004F12406E2
:102348003146FEF7DAF870B93046FEF797F850B91B
:1023580031460DF10600FEF747FA00F027F9BDF8FF
:10236800065005442562284602B070BD30B587B0D6
:102378000546FFF7CBFF0446002849D000F016F9C0
:10238800844203D9201A400000F0ECFB00242C62A0
:1023980005F1240101A8FEF75BFA002838D16B7C0F
:1023A8005BB1BDF9080003F02FFD00221A4B03F0C2
:1023B800BBFE04F03FF8286001E0184B2B60AB7CB3
:1023C80053B1049803F010FD0022154B03F0ACFE46
:1023D80004F030F8A86001E0104BAB60EB7C23B14F
:1023E800039804F02DF9686001E00C4B6B602C7DBC
:1023F8005CB19DF80430DB0604D5059804F020F99B
:10240800E86005E00023EB6002E0044B0124EB6088
:10241800204607B030BD00BF000059400000C07F13
:1024280000408F40FFF7A2BF38B505460C46FFF7BE
:10243800F9FF6868124904F00FFA214604F00CFA13
:1024480003F0F4FC0AA3D3E9002302F053FA02468E
:102458000B4600200B4903F089FB07A3D3E90023AF
:1024680003F038FD03F0E6FF38BD00BFAFF300808E
:10247800EBE2361AC05BC83F0000000040A5E5400B
:102488000000C8420000F03FA0F86410A0F86620E1
:1024980001B122B9082380F86130002303E000234A
:1024A80080F86130012380F862300375012070479D
:1024B8000529034607D880F85D10012009B9597429
:1024C800704758747047002070470529034607D89D
:1024D80080F85C10012009B99974704798747047A6
:1024E800002070470529034607D880F85E100120B0
:1024F80009B9D9747047D874704700207047072904
:10250800034607D880F85F10012009B9197470478D
:10251800187470470020704700F088B808B5024B5F
:102528001B68DB6B019308BD2000060808B5024B49
:102538001B685B6C019308BD2000060808B5024BB8
:102548001B689B6C019308BD2000060808B5024B68
:102558001B681B6B019308BDD001040808B5024B2A
:102568001B681B6C019308BDD001040808B5024B19
:102578001B685B6E019308BDB801040808B5024BDF
:102588001B689B6E019308BDB801040808B5024B8F
:102598001B68DB6E019308BDB801040808B5024B3F
:1025A8001B685B68019308BD9C01040808B5024BD1
:1025B8001B685B69019308BD9C01040808B5024BC0
:1025C8001B68DB69019308BD9C01040808B5024B30
:1025D8001B689B6A019308BD9C01040808B5024B5F
:1025E8001B68DB6A019308BD9C01040808B5024B0F
:1025F8001B681B6B019308BD9C01040808B5024BBE
:102608001B689B6C019308BD9C01040808B5024B2C
:102618001B689B6D019308BD9C01040808B5024B1B
:102628001B68DB6D019308BD9C01040808B5024BCB
:102638001B681B68019308BDB001040808B5024B6C
:102648001B689B68019308BDB001040808B5024BDC
:102658001B68DB68019308BDB001040808B5024B8C
:102668001B681B69019308BDB001040808B5024B3B
:102678001B685B69019308BDB001040808B5024BEB
:102688001B689B69019308BDB001040808B5024B9B
:102698001B68DB69019308BDB001040808B5024B4B
:1026A8001B68DB68019308BDAC01040808B5024B40
:1026B8001B685B69019308BDAC01040808B5024BAF
:1026C8001B689B69019308BDAC01040808B5024B5F
:1026D8001B68DB69019308BDAC01040808B5024B0F
:1026E8001B681B6A019308BDAC01040808B5024BBE
:1026F8001B685B6A019308BDAC01040808B5024B6E
:102708001B689B6A019308BDAC01040808B5024B1D
:102718001B68DB6A019308BDAC01040808B5024BCD
:102728001B681B6B019308BDAC01040808B5024B7C
:102738001B685B6B019308BDAC01040808B5024B2C
:102748001B681B6C019308BDAC01040808B5024B5B
:102758001B689B6C019308BDAC01040808B5024BCB
:102768001B68DB6C019308BDAC01040808B5024B7B
:102778001B681B68019308BDB401040808B5024B27
:102788001B689B68019308BDB401040808B5024B97
:102798001B68DB68019308BDB401040808B5024B47
:1027A8001B681B69019308BDB401040808B5024BF6
:1027B8001B685B69019308BDB401040808B5024BA6
:1027C8001B68DB69019308BDB401040808B5024B16
:1027D8001B681B6A019308BDB401040808B5024BC5
:1027E8001B685B6A019308BDB401040808B5024B75
:1027F8001B689B69019308BDC401040808B5024B16
:102808001B685B6A019308BDC401040808B5024B44
:102818001B689B6A019308BDC401040808B5024BF4
:102828001B68DB6A019308BDC401040808B5024BA4
:102838001B681B6B019308BDC401040808B5024B53
:102848001B685B6B019308BDC401040808B5024B03
:102858001B689B6B019308BDC401040808B5024BB3
:102868001B681B6C019308BDC401040808B5024B22
:102878001B681B68019308BD1C00060808B5024BBD
:102888001B681B69019308BD1C00060808B5024BAC
:102898001B685B69019308BD1C00060808B5024B5C
:1028A8001B689B69019308BD1C00060808B5024B0C
:1028B8001B68DB69019308BD1C00060808B5024BBC
:1028C8001B681B6A019308BD1C00060808B5024B6B
:1028D8001B681B68019308BDA401040808B5024BD6
:1028E8001B685B68019308BDA401040808B5024B86
:1028F8001B685B69019308BDA401040808B5024B75
:102908001B689B69019308BDA401040808B5024B24
:102918001B68DB6A019308BDA401040808B5024BD3
:102928001B68DB6C019308BDA401040808B5024BC1
:102938001B685B6D019308BDA401040808B5024B30
:102948001B689B6D019308BDA401040808B5034BDF
:102958001B68D3F89030019308BD0000A401040857
:1029680008B5034B1B68D3F89C30019308BD0000E1
:10297800A401040808B5024B1B681B68019308BD35
:10298800CC01040808B5024B1B685B68019308BDBD
:10299800CC01040808B5024B1B689B68019308BD6D
:1029A800CC01040808B5024B1B68DB68019308BD1D
:1029B800CC01040808B5024B1B681B69019308BDCC
:1029C800CC01040808B5024B1B685B69019308BD7C
:1029D800CC01040808B5024B1B68DB69019308BDEC
:1029E800CC01040808B5024B1B681B6A019308BD9B
:1029F800CC01040808B5024B1B685B6A019308BD4B
:102A0800CC01040808B5024B1B68DB6A019308BDBA
:102A1800CC01040808B5024B1B681B6B019308BD69
:102A2800CC01040808B5024B1B68DB6B019308BD99
:102A3800CC01040808B5024B1B685B68019308BD0C
:102A4800C801040808B5024B1B689B68019308BDC0
:102A5800C801040808B5024B1B68DB68019308BD70
:102A6800C801040808B5024B1B681B69019308BD1F
:102A7800C801040808B5024B1B685B69019308BDCF
:102A8800C801040808B5024B1B689B69019308BD7F
:102A9800C801040808B5024B1B68DB69019308BD2F
:102AA800C801040808B5024B1B681B6A019308BDDE
:102AB800C801040808B5024B1B681B6B019308BDCD
:102AC800C801040808B5024B1B685B6B019308BD7D
:102AD800C801040808B5024B1B681B68019308BDB0
:102AE800A001040808B5024B1B685B68019308BD88
:102AF800A001040808B5024B1B689B68019308BD38
:102B0800A001040808B5024B1B681B69019308BDA6
:102B1800A001040808B5024B1B689B69019308BD16
:102B2800A001040808B5024B1B68DB69019308BDC6
:102B3800A001040808B5024B1B68DB6A019308BDB5
:102B4800A001040808B5024B1B681B6B019308BD64
:102B5800A001040808B5024B1B68DB6B019308BD94
:102B6800A00104080021FFF7C1BE10B58368044620
:102B78000BB901F074FDC3689847A3681BB1032221
:102B88002146204698472046BDE81040102101F014
:102B980064BD002211464068FFF764BF2DE9FF417C
:102BA800002604AC054610468846174644F8046DCE
:102BB80004F001FB009681B2D8F80430224638466A
:102BC800FFF7ACFC20B13146284600F035FD03E0A4
:102BD8002146284600F028FD284604B0BDE8F081CB
:102BE800002211464068FFF75DBF00221146406889
:102BF800FFF768BF00224068FFF75CBF002281F042
:102C080001014068FFF746BF00231A46194640688D
:102C1800FFF738BF00231A4619464068FFF72ABF56
:102C2800002211464068FFF70DBF002202214068CC
:102C3800FFF710BF00231A464068FFF7FBBE0000ED
:102C4800F0B50F461A4B002503601826283389B0C3
:102C580043608560C560324629460446103004F05A
:102C68004CFA2A4629467868FFF7FCFE08B9A060A6
:102C78001BE02946324602A80095019504F03DFA6A
:102C880002A96846ADF80860FFF750FC10B10123AF
:102C9800A3600AE0009B019AA360E2600BB90223DB
:102CA800A36002A9204600F09DF8204609B0F0BDB7
:102CB800307F080838B50C4C28252A4600212046C4
:102CC80004F01BFA4FF0FF3363602580074C0423A0
:102CD80020466360064B2C2540F8083B2A46002115
:102CE80004F00BFA258138BD500700201C0700208E
:102CF800FC7E08087047007D7047000008B5037D1A
:102D08001BB18069B0F1004F01D1002008BD03F06C
:102D18009BFC024903F0A0FD08BD00BF0000C842AB
:102D280008B5037D1BB1006AB0F1004F01D1002046
:102D380008BD03F089FC024903F08EFD08BD00BF01
:102D48000000C84270B50D4606460A22816828462A
:102D580000F04DFF2C210446284600F0E1FE0A222F
:102D68000444F168284600F042FF204470BDA0F1F9
:102D78000400FFF7E7BF10B50446282101F06DFCF9
:102D8800204610BD08B5037D5BB1406A002808DB0A
:102D980003F05AFC044903F05FFD044903F0A8FC62
:102DA80008BD034808BD00BF00FF7F470000C842B8
:102DB800000080BF08B5037D5BB1C069002808DB4F
:102DC80003F042FC044903F047FD044903F090FC7A
:102DD80008BD034808BD00BF00FF7F470000C84288
:102DE800000080BF30B50D4600F110040FCD0FC4B0
:102DF80095E8030084E80300012030BD70470020F7
:102E0800704710B50446102101F027FC204610BD7C
:102E180008B508B1FFF7F5FF08BD10B5836804468B
:102E280013B1032201469847204610BD38B5C4683F
:102E3800ECB12378022B02D1E068FFF753FE6568F6
:102E480035B12846FFF7E9FF1021284601F005FCB7
:102E5800A56835B12846FFF7E0FF1021284601F0A4
:102E6800FCFB2046BDE83840142101F0F6BB38BD14
:102E780010B588B00446684600F0A4FF694604A867
:102E880000F0C2FF04A8A047044604A800F053FFBE
:102E9800684600F050FF204608B010BDF0B5074660
:102EA8000E46154685B0102422460021684604F0D7
:102EB80024F9002269461046ADF8004002970396AF
:102EC8000195FFF75FFD05B0F0BD13B5044691E825
:102ED800050000234B600B602060626001A801932D
:102EE8000093FEF77DF9204602B010BD0B68036021
:102EF80013B15A6801325A607047F7B50C46064656
:102F08000F4654F8043B02AD45F8083D214601A898
:102F1800FFF7ECFF29463046FFF7D7FF01A8FEF779
:102F28005FF92046FEF75CF93846082101F095FB69
:102F3800304603B0F0BD13B50B46044603C88DE810
:102F4800030093E8030084E803009DE8030083E896
:102F5800030002B010BD826810B50AB901F07FFB0A
:102F6800C368BDE81040184708B5006800F11001B3
:102F7800FFF7F1FF08BD826810B50AB901F06FFBD1
:102F8800C368BDE81040184708B5006800F1100193
:102F9800FFF7F1FF08BD38B5002383608B6804464E
:102FA8000D462BB102229847EB68E360AB68A3603B
:102FB800204638BD2DE9F0414FF69C7304684FF068
:102FC800020086B0B1F904208B8000230F688DF8C9
:102FD80000300B60D4E84F1F994203D1C4E8450F75
:102FE800002DF7D102D08DF800106CE014F10C051B
:102FF8001CBFE7602282BFF35F8F18BF1F46012303
:103008006370BFF35F8F04F10803002053E8006F7B
:1030180043E80002002AF9D1BFF35F8F002E52D097
:10302800FFF77CFC20B129463046FFF794FF43E0C8
:1030380031466846FFF7AFFFE068B4F9105008B1B1
:1030480004F09EF804901020ADF81450FDF721F814
:10305800054630B34FF00008C0F808801820FDF787
:1030680018F80446C0B1C0F8088001466846FFF762
:1030780062FF029BA268A360039B0292E268E3607E
:10308800BDF814300392A3824FF69C73ADF8143048
:10309800049BCDF8108023610E4B2C60EB600E4B27
:1030A800AB600498FFF71EFD6846FFF7B6FE0022E6
:1030B80029460A48FFF73AFC3046FFF7AEFE1021D2
:1030C800304601F0CAFA3846FFF70CFD06B0BDE8F5
:1030D800F08100BF712F0808D1310808732B080848
:1030E8002DE9F04F8BB007AD4FF0000B064699461F
:1030F80014200C230F4690469DF850A0C5F804B044
:10310800C5F808B00793FCF7C4FF044638B180F847
:1031180000B080F801B0C0F804B0C0F808B00023CF
:10312800102003940493FCF7B4FF28B101234360F3
:103138008360234BC4600360224B049008200893EB
:10314800FCF7A7FF044628B1039B04A940F8043BF9
:10315800FFF7CCFE00955FFA8AF34A4641463846A7
:103168000994FFF73FFCB8B9039B5B7803F0FF02B3
:1031780093B94FF69C7305A903A80592ADF81830CA
:10318800FFF718FF0598FFF7ADFC05A80999FFF7A9
:10319800B4FE06A8FEF724F8039B04A906A8059325
:1031A800FFF7A4FE05A93046FFF78FFE06A8FEF735
:1031B80017F804A8FEF714F830460BB0BDE8F08FF6
:1031C800647F08083D330808022AF8B5044606D08B
:1031D800032A17D0012A21D10B6803601EE01820AA
:1031E8000E68FCF756FF054650B13146FFF7D3FE8F
:1031F8003069B6F9147008B103F0C2FF2861AF82D4
:1032080025600BE004684CB12069FFF76BFC204691
:10321800FFF703FE1821204601F01FFA0020F8BD31
:1032280038B5002383608B6804460D462BB1022213
:103238009847EB68E360AB68A360204638BD022A74
:1032480070B5044606D0032A11D0012A18D10B689C
:10325800036015E014200E68FCF71BFF054620B13B
:103268003146FFF7DDFF337C2B74256008E00468E6
:1032780034B12046FFF7D1FD1421204601F0EDF9C5
:10328800002070BDF0B50C46BFF35F8F87B00023F8
:1032980050E8006F40E80032002AF9D1BFF35F8F91
:1032A800002E3FD01846FFF739FB074620B12146CC
:1032B8003046FFF760FE2EE0314601A8FFF7B0FF69
:1032C800237810208DF81430FCF7E3FE0546D0B1C2
:1032D80087601420FCF7DDFE044678B1876001465C
:1032E80001A8FFF728FE039BA268A360049B039232
:1032F800E268E3609DF81430049223740A4B2C6052
:10330800EB600A4BAB6001A8FFF787FD0022294656
:103318000748FFF70BFB3046FFF77FFD10213046CB
:1033280001F09BF907B0F0BD912F08084732080853
:10333800732B080830B5044685B00D46684611461B
:10334800FFF7DBFD7CB124B228460DB103F018FF6E
:10335800029002A96846ADF80C40FFF72BFE0298D0
:10336800FFF7C0FB1DE04FF0010200988DF8084000
:10337800D0E84F3FA34203D1C0E8412F0029F7D13D
:1033880002D08DF808300CE010F10C014FF0010369
:1033980018BF0373BFF35F8F043000F8033CFFF7D7
:1033A80071FF01A8FDF71CFF05B030BD006800F0F3
:1033B800D4B810B50446016002710AB1FFF7F6FFF0
:1033C800204610BD38B504460D4601F0DBF82A4604
:1033D80001462046FFF7EDFF204638BD006800F0A3
:1033E800C5B810B5037904460BB1FFF7F7FF2046BF
:1033F80010BDF8B504460F4616461D46FFF7D6FF22
:103408002068362100F09BF82068394603689B68DD
:1034180098470121206800F095F8022236210123FF
:10342800206800F083F8206803685B69984730706B
:10343800206803685B69984728702046BDE8F84013
:10344800FFF7CCBF13B5002202AB03F8012D8DF8AE
:10345800062004210DF10602FFF7CBFF9DF80700B7
:1034680002F0D2FC0022084B02F034FD02F0E2FF29
:1034780004469DF8060003F0E7F80146204603F0ED
:103488002FF802B010BD00BF0000703F7047F8B5BC
:10349800064615460C468F18BC4206D0336814F809
:1034A800011B9B6830469847F6E72846F8BD00227E
:1034B800007CFFF713B90021007CFFF717B9002142
:1034C800007CFFF71BB90021007CFFF71FB9002122
:1034D800007CFFF723B910B50446142101F0BDF8AC
:1034E800204610BD10B5044608464FF47A73A36011
:1034F800044B0021207461602360FFF71FF9204608
:1035080010BD00BF807F080800231A461946007CBA
:10351800FFF7C4B813B50024007C0094FFF7C6F881
:10352800C0B202B010BD0123FFF7F4BFDBB2D2B2C4
:10353800C9B2FFF7EFBF0022007CFFF7BFB8C9B2DE
:10354800FFF7F9BF0022007CFFF7C0B80121FFF7A1
:10355800F9BF0021007CFFF7E9B808B50021007C1D
:10356800FFF7F4F8B0FA80F0400908BD08B500216B
:10357800007CFFF7F3F8B0FA80F0400908BD004777
:1035880007282DE9FF4105460F4690461E464FF095
:10359800000419D0FFF77AF8A6424FF00403039409
:1035A8008DF80C30A2BF9DF8283003AC8DF80E3092
:1035B8002846009443463A460549A8BF8DF80D6051
:1035C800FFF75CF8012000E0204604B0BDE8F08178
:1035D80087350808704710B50446082101F03DF802
:1035E800204610BDF8B50F4600F10806051D002459
:1035F80016F8011D0A22384600F0D5FAAE420444F6
:1036080007D0002CF4D02E21384600F089FA044463
:10361800EEE72046F8BD0000024A02600022426040
:10362800704700BFA87F0808024A02600A68426023
:10363800704700BFA87F0808014A416002607047D0
:10364800A87F080810B59DF8084044EA032343EA18
:10365800024242EA0161416010BD000037B5044DE5
:1036680005609DF818500095FFF7ECFF03B030BDDA
:10367800A87F0808014A024B1A6070476980080849
:103688007807002000231A464068FFF7D3B90022C4
:1036980002214068FFF7DEB9002211464068FFF7B3
:1036A800D1B9002211464068FFF7DCB900231A4659
:1036B80019464068FFF7DEB900231A4619464068E4
:1036C800FFF7E0B9002281F001014068FFF7E2B995
:1036D80000224068FFF7EEB9002211464068FFF764
:1036E800F1B9002211464068FFF7DCB9F0B517467A
:1036F80087B0054604A8FFF78FFF002606AC3846BA
:1037080044F80C6D03F057FD0A4B009681B25B68D4
:1037180022463846FEF702FF20B131462846FFF719
:103728008BFF03E021462846FFF77EFF284607B0B7
:10373800F0BD00BF1C070020024B034A1A6000229C
:103748005A6070477C0700209C80080808B500F084
:1037580019FFFFF7FEFE18B900F014FFFFF7D4FEBB
:1037680000F010FFBDE80840FFF7F3BE08B500F011
:1037780009FFBDE80840FFF7F0BE10B50446017028
:1037880009B1FFF7F3FF204610BD08B500F0FAFEB7
:10379800BDE80840FFF7EABE10B5037804460BB150
:1037A800FFF7F3FF204610BD10B504460068FFF789
:1037B800ECFF204610BD37B502AC0D4644F8040DA9
:1037C800FFF7D4FF00F0DEFE6B21FFF7B8FE00F034
:1037D800D9FE036829469B68984700F0D3FE01216B
:1037E800FFF7B0FE00F0CEFE01231A466B21FFF76B
:1037F8009DFE00F0C7FE03685B69984705462046B2
:10380800FFF7D2FFE8B203B030BD73B502AC15467E
:103818000E4644F8040DFFF7A9FF00F0B3FE6B2134
:10382800FFF78DFE00F0AEFE036831469B689847AF
:1038380000F0A8FE036829469B68984700F0A2FE9E
:103848000121FFF77FFE2046FFF7AEFF02B070BDF3
:1038580037B504460D460190FFF788FF0021204642
:10386800FFF7A9FF41F258139D4200F087025BD091
:1038780020D841F218039D424DD00CD840F67873F9
:103888009D4242D040F6C8739D4241D040F628730D
:103898009D4260D159E041F2B8039D423ED041F2C9
:1038A80008139D423DD041F268039D4253D142F036
:1038B80020024AE041F298239D423ED00ED841F2C0
:1038C800F8139D4233D041F248239D4232D041F251
:1038D800A8139D423FD142F0400236E041F238330E
:1038E8009D422DD006D841F2E8239D4233D142F0C3
:1038F80060022AE041F288339D4224D041F2D83355
:103908009D4228D142F078021FE042F008021CE0F4
:1039180042F0100219E042F0180216E042F02802C4
:1039280013E042F0300210E042F038020DE042F0BD
:1039380048020AE042F0500207E042F0580204E070
:1039480042F0680201E042F0700220460021FFF7D1
:103958005CFF012400E0002401A8FFF725FF2046B2
:1039680003B030BD37B504460D460190FFF7FEFEA3
:1039780000212046FFF71FFFB5F5617F00F0F80230
:1039880023D007D8962D1AD0B5F5FA7F1AD0642D12
:1039980029D122E040F2DC539D4219D005D8B5F573
:1039A800966F20D142F0040217E0B5F5FA6F12D0F5
:1039B80040F6B8339D4216D142F007020DE042F0BE
:1039C80001020AE042F0020207E042F0030204E0CA
:1039D80042F0050201E042F0060220460021FFF70E
:1039E80014FF012400E0002401A8FFF7DDFE2046B3
:1039F80003B030BDF7B50C46174605461E46019084
:103A0800FFF7B4FE002C0CBF0024802417B144F04B
:103A18004004E4B20EB144F020049DF820300BB10C
:103A280044F010049DF824300BB144F008049DF8CC
:103A380028300BB144F0040402212846FFF7BBFEEE
:103A480000F00102224302212846FFF7DEFE01A80A
:103A5800FFF7AAFE012003B0F0BD37B504460D46B6
:103A68000190FFF783FE04212046FFF7A4FE41F2F0
:103A780010039D4200F0030206D041F270039D42FC
:103A88000AD142F0B00201E042F098022046042137
:103A9800FFF7BBFE012400E0002401A8FFF784FE25
:103AA800204603B030BD37B5054602AC44F8040DD6
:103AB800FFF75CFE05212846FFF77DFE052100F093
:103AC800CE022846FFF7A1FE2046FFF76DFE012033
:103AD80003B030BDF8B506460D468F180024BD4228
:103AE8000CD0336815F8011B9B68304698470028AE
:103AF80001DB0444F3E7002C08BF04462046F8BD68
:103B080070B505460C46084649B103F054FB2B68CE
:103B1800024621462846BDE87040DB68184770BD5C
:103B280003689B68184738B50D210546FFF7F8FF6D
:103B38000A2104462846FFF7F3FF204438BD38B56C
:103B48000546FFF7DDFF04462846FFF7ECFF204453
:103B580038BD012A98BF0A2230B50B468BB0002128
:103B68008DF824100DF12304B3FBF2F505FB123395
:103B7800DBB2092B94BF30333733DBB2214604F86C
:103B880001392B46002DEFD1FFF7BAFF0BB030BD3E
:103B980010B422B90368C9B29B6810BC1847D2B2E6
:103BA80010BCFFF7D6BFFFF7F3BF2DE9F04107467A
:103BB8000E4615462AB9BDE8F0410368C9B29B68AC
:103BC80018470A2A02D1002901DA04E0D2B2BDE876
:103BD800F041FFF7BEBF2D21FFF7A2FF2A4604469A
:103BE80071423846FFF7B5FF2044BDE8F081FFF782
:103BF800DCBF10B50446FFF710F9204610BD0000E1
:103C0800034800238360034A034900F021BD00BF35
:103C18008407002058050020FB3B0808704710B5B2
:103C28000446102100F019FD204610BD70B5044669
:103C38000E46074B0025036040F80C5FFEF786FC34
:103C480030462671FEF7BAFDA560204670BD00BF5C
:103C5800D08008084FF6FF710079FEF787BD00791C
:103C6800FEF78CBD0079FEF791BDC068FEF776BC03
:103C7800054A0023995C814202D00133082BF9D10F
:103C8800581CC0B2704700BFD8800808400830B53B
:103C9800186000241868E5B2884206D90134082C57
:103CA80002D040081860F5E70725024B5B5D1370EA
:103CB80030BD00BFD880080870B5044602FB01F586
:103CC80088B006791422002103A803F016FA0B2302
:103CD80003A930460022ADF80C30FEF77FFD02AB99
:103CE8000DF1070229460498FFF7D0FF20799DF8C7
:103CF8000710FEF753FD029808B070BD38B50446AA
:103D0800A56808464DB1FFF7B3FF012225FA00F177
:103D18002046BDE83840FFF7CFBF2079BDE83840DE
:103D2800FEF73CBD08B50079FEF740FDC0B208BDFE
:103D38000079FEF74BBD10B504460068FEF7D2FEC9
:103D4800204610BD10B50446006808B1FEF7CAFE4B
:103D580000232360A360636010BD38B504460D4698
:103D680000680131FEF7C6FE10B184E82100012089
:103D780038BD10B50368044613B143688B4207D2B7
:103D88002046FFF7EAFF20B1A3680BB92268137039
:103D9800012010BD70B50E46114604461546FFF7C2
:103DA800E8FF18B92046FFF7CDFF09E02A4631465B
:103DB800A560206803F096F92268A3680021D15411
:103DC800204670BD38B50023044603604360836015
:103DD80003730D4639B1084603F0EDF9294602464A
:103DE8002046FFF7D7FF204638BD884210B50B465E
:103DF800044607D0096819B19A68FFF7CBFF01E0BC
:103E0800FFF7A0FF204610BD10B50446002303604D
:103E1800436083600373FFF7E8FF204610BD08B5D1
:103E280082680B4612B919B9012008BD11B9036897
:103E3800187802E0006803F091F9B0FA80F04009C0
:103E480008BD70B50E469AB191B185689D4202D8F9
:103E580000230B7070BD541EED1AAC4228BF2C46CF
:103E6800016822461944304603F0C2F9002333554D
:103E780070BD014600228C20FEF780BB0020FFF7B2
:103E8800F8BF000010B50446084611461A4600233C
:103E9800FEF734FD064B00221A704FF6FF72588069
:103EA8009A801A689B882260A380204610BD00BFB4
:103EB800940700204FF6FF72034B002018705880BB
:103EC8009A80FEF70BBD00BF94070020F0B5144B95
:103ED800144F1E68144B064418683B6806449E42FB
:103EE8008BB01BD00AA840F8286D03F003F80446ED
:103EF800436901AD03F26C7343610FCC0FC50FCC5E
:103F08000FC5D4F800E0094CC5F800E001AD0FCDAD
:103F18000FC40FCD0FC43E60C4F800E00BB0F0BD75
:103F2800CC070020C8070020C40700209C070020F9
:103F380008B50020FEF76EFD28B1FEF743FD80F0BE
:103F48000100C0B208BD012008BD000010B5094934
:103F5800044602F06BFD60B90749204602F084FD73
:103F680038B90649204602F0C3FB02F087FD044B2E
:103F7800186010BD000040C10000604100006145AC
:103F8800CC07002037B50E4B04461B6802A819441D
:103F98000C4B1B68194440F8041D02F0ABFF02F0FB
:103FA8005BFF054603F007F90023284400F8013CAD
:103FB80029462046FFF706FF204603B030BD00BF64
:103FC800CC070020C407002010B50020FEF71EFB18
:103FD800044668B9FEF77AFC01280BD12046FEF7A3
:103FE800ADFC38B9FFF7A4FF30B9FEF7D3FCF9E709
:103FF800012010BD002010BDFFF79AFF0020FEF73A
:1040080005FB003018BF012010BD08B5FFF7DCFF25
:10401800BDE80840FEF7D2BA08B5FFF7F6FFFFF78C
:1040280055FF014B986808BD9C07002008B5FFF7AD
:10403800ECFFFFF74BFF014B586808BD9C070020B9
:1040480008B5FFF7E2FFFFF741FF014BD86808BD4D
:104058009C070020024B1A68024B1A60704700BF89
:1040680098040020C007002070474174704708B5C5
:10407800007CFEF7F3FB20EAE07008BD08B5007C81
:10408800FEF7C4FB20EAE07008BD08B5007CFEF727
:10409800CDFB30EA200028BF4FF0FF3008BD08B53F
:1040A800007CFEF7BBFB30EA200028BF4FF0FF3052
:1040B80008BD007CFEF7C2BB10B50446142100F011
:1040C800CCFA204610BD70B5457C04460E4625B98D
:1040D800007CFEF7C3FB002805DD3146207CBDE8E7
:1040E8007040FEF78BBB284670BD000010B5044633
:1040F80008461146002262604FF47A72A260054AAF
:1041080020742260012262741A46FEF76FFB204673
:1041180010BD00BF10810808007CFEF797BB0000A7
:1041280038B50C4D296811F0010411D12846FBF768
:10413800B4FF68B1084A2146084B0948FFF7D6FF83
:104148002846FBF7AFFF074A0749054800F080FA01
:10415800034838BD680800206C080020E4070020E8
:10416800D0070020580500207140080841747047A6
:10417800704708B50021007CFEF790FB30EA20006C
:1041880028BF4FF0FF3008BD08B50121007CFEF7BD
:1041980085FB30EA200028BF4FF0FF3008BD08B586
:1041A800007CFEF773FB20EAE07008BD08B5007CD0
:1041B800FEF764FB20EAE07008BD007CFEF77EBBDA
:1041C80010B50446142100F048FA204610BD38B551
:1041D8000446007C0D46FEF759FB002801DC607C94
:1041E80028B12946207CFEF761FB20EAE07038BD43
:1041F80010B50446002363604FF47A73A360054B3F
:10420800084623600123217463741146FEF72EFBD0
:10421800204610BD4081080810B50446142200212C
:1042280002F06BFF054B20466360054BE36040F2EC
:10423800011323818123238210BD00BF750900204B
:10424800F408002030B50E4D87B001A8FFF7E4FF51
:10425800296811F0010410D12846FBF71EFF60B150
:1042680001AA21460748FFF7C3FF2846FBF71AFFB4
:10427800054A0649034800F0EBF9024807B030BD8B
:10428800F0080020780A0020580500207941080825
:1042980010B504461422002102F02FFF054B2046DA
:1042A8006360054BE36040F201132381812323827D
:1042B80010BD00BF280B0020900A002010B50E4C3E
:1042C80086B001A8FFF7E4FF2368DB0710D4204677
:1042D800FBF7E3FE60B101AA01210848FFF788FF58
:1042E8002046FBF7DFFE064A0649044800F0B0F90D
:1042F800024806B010BD00BF8C0A0020140B002035
:10430800580500207941080808B5184B33B1FFF764
:1043180099FF03681B69984700281EDC144B33B1CA
:10432800FFF7FEFE03681B699847002818DC114B4D
:104338000BB1AFF30080104B0BB1AFF300800F4B04
:104348000BB1AFF300800E4B7BB1FFF7B7FF0368EB
:104358001B699847002806DC08BDAFF30080DDE73D
:10436800AFF30080E3E7AFF3008008BD0000000072
:104378000000000000000000000000000000000035
:104388000000000008B5FFF7BFFFFEF70FF9014B6B
:10439800186008BD340C00200248034A0349121A69
:1043A80002F0A0BE004002400440024028840808F1
:1043B80007B5002300931A466FF07701FEF7D0FA8D
:1043C80003B05DF804FB000007B543880A2B08D04A
:1043D800502B09D1094B1B683BB103B05DF804EBC6
:1043E8001847FFF7E5FF06E0002300931A466FF031
:1043F8007701FEF7B5FA03B05DF804FB2C0C00203A
:1044080038B5104C104D2368AB42104B0CBF01223D
:1044180000221A7002D0FFF7BFFF2560FEF7BEF832
:10442800044602F073FE0A4B13B12046AFF3008036
:1044380000210748FEF7F6FABDE838400021054894
:10444800FEF784BA004002401E1C279A300C002058
:1044580000000000D143080810B504460F48FFF7D4
:1044680067FC28B1A4F10D03022B01D8002010BD70
:1044780000F068F8FFF76DF808B1012CF6D9FFF7DE
:104488004FFEFFF749FE18B1A4F11203012BEDD935
:104498002E2C8CBF0020012010BD00BF780C0020FE
:1044A8002E2838B504460D460AD8FF2908D0FFF74C
:1044B800D3FF28B129462046BDE83840FEF7BEB8EC
:1044C80038BD38B504460D46FEF7C0F8FF2810D0B1
:1044D800062804D84D2323FA00F0C30709D4204640
:1044E800FFF7BAFF28B129462046BDE83840FEF755
:1044F800B5B838BD10B50446FEF7A8F80438C0B200
:10450800012808D92046FFF7A7FF20B12046BDE8BB
:104518001040FEF7ABB8002010BD000010B5074CE6
:104528002368DB0708D42046FBF7B7FD20B1FEF768
:104538004DF82046FBF7B6FD014810BD380C0020A9
:104548003C0C002038B50B4D296811F001040FD13F
:104558002846FBF7A2FD58B121460748FEF7C2FFDF
:104568002846FBF79FFD054A0549034800F070F807
:10457800014838BD400C0020580C00205805002088
:104588009534080810B50B4C2368DB070FD4204678
:10459800FBF783FD58B102210748FEF7A3FF204629
:1045A800FBF780FD054A0649034800F051F8024828
:1045B80010BD00BF6C0C0020440C002058050020E2
:1045C8009534080813B5084C00231A461946009379
:1045D8002046FFF743F82046044A054902B0BDE8E3
:1045E800104000F035B800BF700C002058050020BE
:1045F800DD35080870B5114E114D124C00213046BA
:10460800FFF714FB3046104E2A46214600F020F8EA
:1046180001213046FFF70AFB30460C4E2A46214658
:1046280000F016F802213046FFF700FB2A46214623
:104638003046BDE8704000F00BB800BF780C002091
:1046480058050020253C0808880C0020980C0020FC
:104658000B460146184602F03FBCFBF71CBD08B5E7
:10466800FEF768FA244B1A68D0075CBF01221A606B
:10467800224B1A68D1075CBF01221A60204B1A68C6
:10468800D2075CBF01221A601E4B1A68D0075CBFB4
:1046980001221A601C4B1A68D1075CBF01221A60FC
:1046A8001A4B1A68D2075CBF01221A60184B1A68A5
:1046B800D0075CBF01221A60164B1A68D1075CBF8D
:1046C80001221A60144B1A68D2075CBF01221A60D3
:1046D800124B1A68D0075CBF01221A60104B1A6887
:1046E800D1075CBF01221A600E4B1A68D2075CBF63
:1046F80001221A60704700BFD40C0020D00C0020A3
:10470800CC0C0020C80C0020C40C0020C00C0020D9
:10471800BC0C0020B80C0020B40C0020B00C002009
:10472800AC0C0020A80C0020184B1A68D1075CBFFD
:1047380001221A60164B1A68D2075CBF01221A6060
:10474800144B1A68D0075CBF01221A60124B1A6812
:10475800D1075CBF01221A60104B1A68D2075CBFF0
:1047680001221A600E4B1A68D0075CBF01221A603A
:104778000C4B1A68D1075CBF01221A600A4B1A68F1
:10478800D2075CBF01221A60704700BFF40C0020FA
:10479800F00C0020EC0C0020E80C0020E40C0020B9
:1047A800E00C0020DC0C0020D80C0020184B1A6804
:1047B800D1075CBF01221A60164B1A68D2075CBF8A
:1047C80001221A60144B1A68D0075CBF01221A60D4
:1047D800124B1A68D1075CBF01221A60104B1A6885
:1047E800D2075CBF01221A600E4B1A68D0075CBF63
:1047F80001221A600C4B1A68D1075CBF01221A60AB
:104808000A4B1A68D2075CBF01221A60704700BFC2
:10481800140D0020100D00200C0D0020080D0020A4
:10482800040D0020000D0020FC0C0020F80C0020D6
:10483800244B1A68D0075CBF01221A60224B1A6801
:10484800D1075CBF01221A60204B1A68D2075CBFEF
:1048580001221A601E4B1A68D0075CBF01221A6039
:104868001C4B1A68D1075CBF01221A601A4B1A68E0
:10487800D2075CBF01221A60184B1A68D0075CBFC8
:1048880001221A60164B1A68D1075CBF01221A6010
:10489800144B1A68D2075CBF01221A60124B1A68BF
:1048A800D0075CBF01221A60104B1A68D1075CBFA1
:1048B80001221A600E4B1A68D2075CBF01221A60E7
:1048C800704700BF440D0020400D00203C0D002023
:1048D800380D0020340D0020300D00202C0D002054
:1048E800280D0020240D0020200D00201C0D002084
:1048F800180D00202DE9F04F8DB006460F461446DE
:104908001D4600F0EDF9DFF81093CDE9000199F9A3
:104918000080B8F1FF3F46D022462B462046294664
:1049280001F072FD834600283DD132463B463046B1
:10493800394601F069FD8246002874D1304639466F
:104948000022002301F02EFD002833D0002200238E
:104958002046294601F026FD8346B8B1A94A01231D
:1049680000200021CDF828A0CDE90467CDE906454F
:10497800CDE9080103920293B8F1000F6CD0A24B65
:104988000022104619460DB0BDE8F08F2046294692
:1049980000F0D0FF38B1002200232046294601F05C
:1049A8000BFD00286AD1DDE90023104619460DB039
:1049B800BDE8F08FDDE9000100F0BCFF804600286B
:1049C8007DD0DDE900014FF0000A4FF0000B5246A0
:1049D8005B4601F0E7FC0028E5D03046394600F098
:1049E800A9FF0028DFD02046294600F0A3FF0028B1
:1049F800D9D099F90030834804210022022BCDE94F
:104A08000467CDE90645CDE908AB039002910A9207
:104A180004D002A800F094FF002847D1FEF79AF8C6
:104A28002223036042E0002200232046294601F0A9
:104A3800B9FC0028B7D0744B724800220121B8F1A4
:104A4800020FCDF828B0CDE90467CDE90645CDE9D8
:104A5800082303900291A8D002A800F071FF002853
:104A68007ED00A9B43B3FEF775F8DDE908230A995F
:104A78000160104619460DB0BDE8F08F614999F9FB
:104A880000300122CDF828B0CDE90467CDE906450C
:104A980003910292002B68D05C490020022BCDE9DB
:104AA800080166D1FEF756F8212303600A9B1BB163
:104AB800FEF750F80A9B0360DDE9082375E73046E6
:104AC800394600F037FF00283FF47BAF20462946DF
:104AD80000F030FF00283FF474AFDDE900231046F2
:104AE800194601F091FC00286FD1464B99F90080D6
:104AF800039303230A90CDE90467CDE906450293A1
:104B0800B8F1000F3BD1DFF814B14FF0604A002232
:104B1800002330463946CDE908AB01F04DFC0028AA
:104B28003FF477AF00223A4B2046294601F0D2F9EC
:104B380004460D4600F00CFF02460B462046294667
:104B480001F030FC00283DD1324B4FF06042CDE9F6
:104B5800082399F90080B8F1020F7FF45AAF5DE796
:104B6800FDF7F8FF212303607BE700230024CDE94C
:104B7800083402A800F0E4FE002897D192E7DFF895
:104B8800A0B04FF0000A0022002330463946CDE994
:104B980008AB01F011FC0028DDD000221C4B204698
:104BA800294601F097F904460D4600F0D1FE024669
:104BB8000B462046294601F0F5FB18B9134B002295
:104BC800CDE9082399F90080C5E70E4A99F90090C4
:104BD8000123CDF82880CDE90467CDE90645039285
:104BE8000293B9F1000FC0D00022002310461946E5
:104BF80001F09AFAB9F1020FCDE908013FF452AF7A
:104C0800B7E700BF688108080000F03F0000F0FF28
:104C18000000E03FFFFFEFC79C040020FFFFEF47C5
:104C28000000F07F2DE9F04F8BB004460D4600F0F0
:104C3800B9FD284B064693F900A00F46BAF1FF3F8D
:104C480012D022462B462046294601F0DDFB83463A
:104C580050B94FF000084FF0000920462946424657
:104C68004B4601F0A9FB20B9304639460BB0BDE8E8
:104C7800F08F194A0123CDF820B0CDE90445CDE9DC
:104C8800024501920093BAF1000F15D042464B46F7
:104C98004046494601F048FABAF1020FCDE906014B
:104CA8000CD1FDF757FF21230360089B63B9DDE9A9
:104CB80006010BB0BDE8F08FCDE90689684600F023
:104CC8003FFE0028F1D1ECE7FDF744FF089B0360A5
:104CD800EDE700BF9C0400206C810808000000007C
:104CE8002DE9F04F23F0004858EA020993B03CD070
:104CF800714C21F00046A64283460D460CDD06F1B4
:104D0800404606F5801656EA0B0038D183466B49B3
:104D1800584613B0BDE8F08F9A4696462BD0A0456A
:104D2800EDDC654CA04578D0002D0F468146CDE9D5
:104D3800002376DB0024BEF1000F27D15E4B984597
:104D480000F08B805D4B984552D0BAF1804F00F04F
:104D5800C9835B4B9A4519D1002D17DB4846394664
:104D680013B0BDE8F04F00F01DBDCB46584653497F
:104D780013B0BDE8F08F0028C1D1B045D1DD51484E
:104D880013B0BDE8F04F00F0DDBD002448463946B9
:104D980000F0CCFDBBF1000F1CD0ED0F013D54EA33
:104DA800050370D0484B984540F3948003F1047391
:104DB800984540F30D84454B9E4270DDBAF1000FD3
:104DC80070DD3BA3D3E900231046194601F082F8B1
:104DD80083469DE726B1394B25F040429A42DCD103
:104DE800BAF1000FC0F2B783002D08DB83468FE7C6
:104DF800BAF1000FC0F25E84CB46394688E706F167
:104E0800404606F5801656EA040300F08384012C18
:104E1800ECD101F1004183467AE7BEF1000F83D05F
:104E28006DE72B4B98452CDCA3F15473984581DD35
:104E38004FEA2853A3F2FF33142B40F35384C3F1F2
:104E480034032EFA03F202FA03F39E457FF472AF9D
:104E580002F00102C2F102046DE706F1404303F5D6
:104E6800801353EA0B0300F03A83184B9E4240F339
:104E78006783BAF1000F15DBDDE900349B46214654
:104E880046E7022457E74A4648463B46394600F07B
:104E98006DFE02460B4601F047F9834638E7BAF142
:104EA800000F8EDB4FF0000B594631E7AFF300805F
:104EB8009C7500883CE4377E0000F07F0000F03FDE
:104EC8000000E03F708108080000E041FFFFEF3F6D
:104ED800FFFF3F43B6F5801F4FF0000205DAD04BC5
:104EE80000F0F8FF0E466FF03402DFF844E33315A4
:104EF800C6F31306A3F2FF3346F07F57764503EB5C
:104F0800020A47F4401740F3C983C64B00229E4269
:104F180040F304840023CDE90823CDE90C23C24BD8
:104F28000022CDE906230AF1010AA7F58017002619
:104F38003946DDE90623CDE90A0100F017FEDDE96F
:104F4800062380468946DDE90A0100F011FE024683
:104F58000B460020B44901F0E7F80A46014613461B
:104F6800CDE90E1202464946404600F0B3FF8C4692
:104F780083467B1043F0005303F500239919002062
:104F8800CDE904BC06460F464FF0000B6146584673
:104F980032463B46CDE910BCCDE9020100F09AFF4C
:104FA80002460B464046494600F0E0FDDDE906238F
:104FB800804689463046394600F0D8FD02460B4601
:104FC800DDE90A0100F0D2FDDDE9022300F082FFED
:104FD80002460B464046494600F0C8FDDDE90E236F
:104FE80000F078FFDDE90478CDE906013A4643464A
:104FF8003846414600F06EFF77A3D3E90023064602
:105008000F4600F067FF76A3D3E9002300F0B0FD58
:1050180032463B4600F05EFF73A3D3E9002300F05D
:10502800A7FD32463B4600F055FF71A3D3E90023A4
:1050380000F09EFD32463B4600F04CFF6EA3D3E9DC
:10504800002300F095FD32463B4600F043FF6CA379
:10505800D3E9002300F08CFD3246804689463B4662
:105068003046394600F036FF02460B464046494670
:1050780000F030FFDDE9022306460F46DDE90401B2
:1050880000F076FDDDE9062300F024FF32463B46BA
:1050980000F06EFDDDE902678046894632463B46F0
:1050A8003046394600F016FF0022604BCDE90A0170
:1050B80000F05EFD42464B4600F05AFDDDE910BCAB
:1050C8000F46DDE902015A463B46CDE90EBC5E4675
:1050D80000F000FF0022CDE90201544B304639466A
:1050E80000F044FDDDE90A2300F040FD02460B46CE
:1050F8004046494600F03AFDDDE9042300F0EAFEA7
:10510800324680468946DDE906013B4600F0E2FE6C
:1051180002460B464046494600F02AFD804689462D
:1051280002460B46DDE9020100F022FDDDE90EBC76
:1051380035A3D3E900235846CDE906BC5E460F46A1
:1051480000F0C8FEDDE90223CDE904013046394606
:1051580000F00CFD02460B464046494600F006FDAD
:105168002BA3D3E9002300F0B5FE2BA3D3E900233A
:10517800804689463046394600F0ACFE02460B466A
:105188004046494600F0F4FCDDE90C2300F0F0FC51
:1051980080465046894600F037FE06460F46DDE950
:1051A800040142464B4600F0E3FCDDE9082300F029
:1051B800DFFC32463B4600F0DBFCDDE906BC32464C
:1051C80058463B46DA468B4600F0D0FCDDE908231A
:1051D80030E000BFAFF30080EF4E454A287ECA3F5B
:1051E80065DBC9934A86CD3F01411DA96074D13F53
:1051F8004D268F515555D53FFFAB6FDBB66DDB3F65
:10520800033333333333E33F000000E009C7EE3F95
:10521800FD033ADC09C7EE3FF5015B14E02F3EBE03
:105228000000404379B60B000000F03F0000084042
:105238008E98030000F09AFCDDE9042300F096FC48
:1052480002460B464046494600F090FC8046894697
:10525800DDE90012013C54EA050314BFD64CD74CD3
:105268000023CDE904340B461446CDE9023400236B
:105278000293DDE9024508462B461146224600F016
:1052880075FC52465B4600F025FEDDE90023064624
:105298000F464046494600F01DFE02460B46304682
:1052A800394600F065FC06460F4622462B46504616
:1052B8005946CDE9006700F00DFE0B4602468046D0
:1052C80089463046394600F053FCBD4B06469942A4
:1052D8000D460C4640F30E8101F13F4303F5E00310
:1052E800034340F0F081A0A3D3E90023DDE90001E6
:1052F80000F03EFC424682468B464B4630462946E5
:1053080000F034FC02460B465046594601F072F84C
:10531800002840F0D8812F463B154FF48012A3F2A5
:10532800FE3342FA03F32344C3F30A52A54EA2F212
:10533800FF321641C3F3130B0020C2F1140523EA10
:1053480006014BF4801B02460B46002C4BFA05FB6A
:1053580040464946B8BFCBF1000B00F007FC0246B7
:105368000B4680468946DDE9000100F001FC4FEA62
:105378000B5A00247EA3D3E9002320460D4600F0F3
:10538800A9FD424606460F464B462046294600F0F0
:10539800EDFB02460B46DDE9000100F0E7FB76A3D2
:1053A800D3E9002300F096FD75A3D3E900238046D6
:1053B80089462046294600F08DFD02460B464046A8
:1053C800494600F0D5FB8046894602460B463046E2
:1053D800394600F0CDFB32463B4604460D4600F008
:1053E800C5FB02460B464046494600F0BFFB224635
:1053F800804689462B462046294600F06BFD62A36D
:10540800D3E9002306460F4600F064FD60A3D3E904
:10541800002300F0ABFB32463B4600F05BFD5EA389
:10542800D3E9002300F0A4FB32463B4600F052FDCE
:105438005BA3D3E9002300F099FB32463B4600F01A
:1054480049FD59A3D3E9002300F092FB32463B46BD
:1054580000F040FD02460B462046294600F086FB38
:1054680006460F4602460B462046294600F032FD06
:105478000022CDE900014FF080433046394600F064
:1054880075FB02460B46DDE9000100F04DFE424681
:1054980006460F464B462046294600F01BFD42466D
:1054A8004B4600F065FB02460B463046394600F095
:1054B8005DFB22462B4600F059FB02460B460020B6
:1054C8003D4900F053FB8A44BAF5801FC0F237818A
:1054D8005146DDE9042300F0FDFC834618E4F34659
:1054E800354915E44A4648463B46394600F0F2FC41
:1054F80083460DE4344B21F000479F4240F301817D
:10550800324B0B4403430CD142464B4600F02EFB72
:1055180002460B46DDE9000100F058FF00283FF481
:10552800FBAE23A3D3E90023DDE9040100F0D2FC9C
:105538001FA3D3E9002300F0CDFC8346FFF7E8BBA7
:10554800BAF1000FBFF6AEACDDE900349B4604F1BA
:105558000041FFF7DDBB02460B460020164900F06C
:10556800E3FD41E4AFF30080FE822B654715973CCD
:1055780000000000432EE63FEF39FAFE422EE63FD8
:10558800396CA80C615C20BED0A4BE726937663E37
:10559800F16BD2C541BDBB3E2CDE25AF6A56113F2B
:1055A80093BDBE166CC1663F3E5555555555C53F12
:1055B80059F3F8C21F6EA5010000F03F0000F0BFCC
:1055C800FFFF8F40FFFF0F00FFCB904000346F3F7D
:1055D8006F4B9E427FF763AC6E4B9E423FF7EEAB3C
:1055E80000226C4B00F0C2FA5BA3D3E90023064605
:1055F8000F4600F06FFC5AA3D3E900238046894682
:105608003046394600F066FC002282468B46624BE3
:105618003046394600F05EFC02460B4652A1D1E9FD
:10562800000100F0A3FA32463B4600F053FC024664
:105638000B460020594900F099FA3246CDE902019B
:105648003B463046394600F045FC02460B46DDE94C
:10565800020100F03FFC46A3D3E9002300F03AFC26
:1056680002460B465046594600F080FA02460B4661
:1056780006460F464046494600F07AFA42464B46EF
:10568800002082468B4600F071FA02460B463046EF
:10569800394600F06BFA80468946D9E50022002396
:1056A800CDE90823CDE90C233A4B00220026CDE9A9
:1056B80006233DE44A463B460020364900F034FDC7
:1056C8008346FFF725BB2CA3D3E90023DDE90401BA
:1056D80000F000FC28A3D3E9002300F0FBFB83467D
:1056E800FFF716BBBEF1000F7FF44FABC3F11403F5
:1056F80048FA03F202FA03F3984524D07446FFF7F8
:1057080021BB264B9F423FF707AEDDE902349A469C
:105718009B462EE602460B46FFF7B9BB204B4FF4DB
:105728008026CDE9062316A3D3E90023CDE9082373
:1057380015A3D3E90023CDE90C23FFF7F9BB5A469B
:1057480000F096F9C5E602F00102C2F10204FFF783
:10575800F9BA00BFAFF30080000000604715F73FBB
:1057680044DF5DF80BAE543E555555555555D53F5C
:10577800FE822B654715F73F9C7500883CE4377E11
:105788000000004003B8E23F06D0CF43EBFD4C3E9B
:10579800FEFFEF3F0000F03F0000D03F0000E03F79
:1057A8000000F83F2DE9F0415F4E0C46B6460E402A
:1057B8007645054600F0988000290B46024674DDC0
:1057C8005FEA215E7FD0AEF2FF3EC3F313031EF003
:1057D800010F43F4801363D100273E4603EBD271D7
:1057E8000B444FEA6E0E520016204FF40011741845
:1057F8009C424FEAD2754FEA420202DC1B1B661834
:105808000F44013805EB43034FEA5101EFD18446B9
:1058180020244FF0004109E020D003EBD275013C71
:105828004FEA51012B444FEA420220D09E4201EB3D
:105838000C05F1DA002D05EB010C09DBB0469542A9
:10584800A3EB060300D9013B4646521B0844E4E794
:10585800BCF1000FF2DB06F10108F0E7954217D81A
:10586800002D05EB010C49DB98460023ECE71343B8
:1058780010D140087B1003F17F5303F50013FA079A
:1058880003EB0E57394648BF40F00040BDE8F081B1
:105898003346C2E7411C35D000F001031844E8E75D
:1058A8005B0003EBD273520096E721F000460643F3
:1058B800ECD079BB8E46D30AAEF1150E5205002BFB
:1058C800F9D0DD0221D4002100E001465B00DC02B2
:1058D80001F10100F9D5C0F1200422FA04F42343B0
:1058E800C1EB0E0E82406EE702460B4600F0F2FA5C
:1058F8002A46234600F03CF9BDE8F081BCF1000FD0
:10590800A9DAB1E701372046B4E720244FF0FF3188
:105918000020E2E702460B4600F028F902460B4653
:1059280000F002FCB2E700BF0000F07F21F0004168
:10593800704700BF41F0004101F58010C00F70476B
:105948000020704700200149704700BF0000F87F21
:10595800F0B5C1F30A5EAEF2FF36132E83B00246ED
:105968000B460C464FEAD17507462EDC002E49DB64
:105978003D49314103EA010010432BD049080B404F
:1059880053EA02070CD04FF48023132E24EA0101B6
:1059980043FA06F444EA01040CBF4FF0004700271D
:1059A800324B214603EBC505D5E90045384622466A
:1059B8002B4600F0DDF8CDE90001DDE900012246C3
:1059C8002B4600F0D3F803B0F0BD332E06DDB6F554
:1059D800806F45D01046194603B0F0BDAEF2134EA5
:1059E8004FF0FF3121FA0EF10842F3D0490808427E
:1059F800D6D04FF0804320EA010143FA0EFE4EEA6A
:105A08000107CDE721F0004101431946E4D0C3F373
:105A1800130343EA000CCCF1000343EA0C0C134BCC
:105A2800640C4FEA1C3C0CF4002C03EBC503640423
:105A3800D3E900674CEA040132463B4600F098F887
:105A4800CDE90001DDE9000132463B4600F08EF861
:105A5800024621F0004141EAC57310461946BBE7EA
:105A680000F086F8B8E700BFFFFF0F00788108084C
:105A7800F8B5C1F30A5604460D460B46174606BB51
:105A880021F00043034325D000222F4B00F022FAD7
:105A98002E4A044697420D460B462ADBC1F30A56A6
:105AA800363E40F2FE723E44964228DC002E12DD5D
:105AB80023F0FF4323F4E00343EA06552046294632
:105AC800F8BD40F2FF729642EBD102460B4600F059
