:02000002D0002C
:1040000000400D0014170E00000006000D00050111
:0840100004019A080000000001
:044018009C010E00F9
:1040200009480A49884208B505D0094A824202D0A7
:10403000121A0BF029FE0748074A0021121A0BF04A
:104040004BFE014808BD00BFD8DF03202C150E0031
:1040500094E1032098E10320F4E7032070B5074EB4
:10406000074C09F081FBA41BA4080025A54200D140
:1040700070BD56F8043B98470135F7E7EC140E0085
:1040800020150E0001F090BF08B502F0D9FBBDE885
:10409000084009F021BB06F0B5B906F0B3B906F047
:1040A000B9B9000008B5034A00210C2006F026F833
:1040B000FEE700BF3D9C0D000078B0FA80F040099B
:1040C000704701230370704748B1836C3BB1C36CE8
:1040D0002BB1006DB0FA80F04009404270474FF0BC
:1040E000FF30704773B5024608460C46FFF7ECFFF9
:1040F000054640BB12F0800FCA7814BF002310237E
:104100009A4220D0CB708E6C607801230DF10702AB
:10411000F321B04784F8540098B99DF80720E3785C
:10412000E66C607822F0100203F0100313438DF860
:1041300007300DF1070201237321B04784F85400C2
:1041400008B16FF00105284602B070BD37B50123F4
:10415000856C04460DF107024078F321A84784F8E6
:10416000540030B99DF8073003F01003E37003B03A
:1041700030BD6FF00100FAE703788B4281BF017018
:10418000137843F002031370002070472DE9F843C1
:1041900006461846884691461D46FFF795FF044699
:1041A000A8B9AB783BB929463046FFF79BFF0446D8
:1041B00008B946F08006AF6C68784B4642463146F7
:1041C000B847002885F8540018BF6FF00104204656
:1041D000BDE8F8832DE9F0478AB01C4606460F4635
:1041E00090460021242201A800910BF075FD204685
:1041F000FFF76AFFE8B908F1FF33122B33D8EA461C
:1042000081461FFA88F81FFA89F3434514D380B911
:104210004FEA4802013A93B2E56C9DF800106078CD
:104220000DF10102A847002884F8540018BF6FF070
:1042300001000AB0BDE8F087A37816F809503BB931
:1042400028462146FFF74EFF16F8095005F07F0576
:1042500017F809308AF800508AF8013009F101098D
:104260000AF1020ACFE76FF00300E2E737B5E02377
:104270008DF80630B62305468DF80730FFF724FF8A
:10428000044670B9AB787BB12B4601220DF10701D2
:104290000DF10600FFF79EFF2B6D04460A2098479C
:1042A0004CB1204603B030BD2846FFF74FFF04460F
:1042B0000028F6D1E8E7AB78002BF2D12846FFF7CB
:1042C00003FF04460028ECD12846FFF73FFF0446D1
:1042D000E7E730B58DB00546FFF7F6FE0446002847
:1042E00040F0C9802846FFF7C1FF0446002840F08F
:1042F000C2802B4601222946D020FFF747FF044603
:10430000002840F0B8802B78612B40F0B780014640
:104310000190252202A80BF0DFFC28468DF803400F
:10432000FFF7D2FE0446002840F0A5802B46192254
:1043300001A98920FFF72AFF044638B92B4610222D
:104340000DF11D01E120FFF721FF04469DF8262015
:104350009DF8253043EA0223EB829DF806209DF864
:10436000053043EA02232B839DF807309DF80A208D
:10437000AB769DF8093043EA0223AB839DF80C200D
:104380009DF80B3043EA0223EB839DF80D309DF836
:10439000102085F820309DF80F3043EA02236B840B
:1043A0009DF812209DF8113043EA0223AB849DF85A
:1043B000143085F826309DF813309DF8182085F8C4
:1043C00027309DF8173043EA02232B859DF81A20E9
:1043D0009DF8193043EA02236B859DF81B3085F860
:1043E0002C309DF81E309DF81F1003F00F0242EA9A
:1043F00001122A819DF81D201B0943EA02136B81DB
:10440000089BEB609DF824302B749DF829309DF8B3
:1044100028206B749DF8273043EA02236B829DF8B5
:104420002A302B7514BB2B4601220DF1030102200B
:10443000FFF7ACFE9DF80330C3F3011385F8343069
:10444000044698B92B4601220DF10301FFF79EFEA9
:104450009DF8033085F83530044638B92B460122E3
:104460000DF103010420FFF791FE04469DF903308E
:104470001B1185F8363020460DB030BD6FF00204B8
:10448000F9E737B5742304468DF80730FFF71CFEB3
:10449000A0BB0546234601220DF106017420FFF75B
:1044A00075FEA0B99DF8063013F0030511D023F076
:1044B00003038DF80630012223460DF106010DF1AC
:1044C0000700FFF787FE236D0A209847E2E7002DDB
:1044D000E0D194F844208AB19DF8063002F003023E
:1044E00023F0030313438DF8063038B92346012225
:1044F0000DF106010DF10700FFF76CFE03B030BDB2
:10450000F0B589B00023064608460C468DF8073002
:104510000493ADF814300693ADF81C30FFF7D4FDCA
:10452000002840F0FE8016F0080391F8447005D191
:1045300081F844302046FFF7A4FF07E0012FADF8D3
:104540000C0000F0F08081F84400012016F0100506
:1045500020D004F14602072104F13B00FFF70CFED6
:1045600030B9234601220DF107017520FFF70EFE39
:1045700094F83B309DF807209B0022F01C0203F0CA
:104580001C03134375228DF807308DF810208DF829
:1045900018300125B30622D504F14602082104F1A2
:1045A0003D00FFF7E9FD30B9234601220DF1070177
:1045B0007020FFF7EBFD9DF8073094F83D2023F0C5
:1045C000080302F00802134308AA2A4470210135A7
:1045D0008DF8073002F8101C02F8083CEDB2B10764
:1045E00033D004F14602052104F13900FFF7C4FD80
:1045F00030B9234601220DF107017420FFF7C6FDF3
:10460000F20709D59DF8073094F8392003F01F030D
:1046100043EA42138DF80730B3070BD594F83A30CC
:104620009DF807209B0003F01C0322F01C0213439B
:104630008DF8073008AB2B44742203F8102C013599
:104640009DF8072003F8082CEDB2710722D504F17C
:104650004602052104F13800FFF78EFD30B92346EC
:1046600001220DF107017220FFF790FD9DF8073040
:1046700094F8382023F0070302F00702134308AA36
:104680002A44722101358DF8073002F8101C02F817
:10469000083CEDB216F0C00F3AD004F146020121F9
:1046A00004F13E00FFF768FD60B90A2104F13C0007
:1046B000FFF762FD30B9234601220DF10701712099
:1046C000FFF764FD72060BD594F83E309DF8072085
:1046D0001B0103F0100322F0100213438DF8073082
:1046E00033060AD59DF8073094F83C2023F00F03D9
:1046F00002F00F0213438DF8073008AB2B447122F0
:1047000003F8102C01359DF8072003F8082CEDB2B2
:1047100028B923462A4606A904A8FFF75BFD84F8BA
:10472000447009B0F0BDB1F84020B1F91230B2F5D3
:10473000C87F28BF4FF4C872C82A03F5163338BFA4
:10474000C82203F299135A431423B2FBF3F20A234B
:1047500002F54812B2FBF3F291F9113003F54473FC
:104760005A4391F9043091F9141013FB01F34FF4FB
:104770007A7193FBF1F31B0203EB620394F834208C
:1047800094F935100432B3FBF2F383224A4302F565
:104790008032B3FBF2F32222FA3B534332336422DA
:1047A00093FBF2F38DF80C3046F25A43ADF8083023
:1047B000B4F84230B3F57C6F1AD23F2BC2B200F18D
:1047C000010013D803EB8213DBB200258DF80D3006
:1047D00084F83C502346022203A902A8FFF7FAFC02
:1047E00084F8445000287FF4B1AEA3E69B08E4E7C8
:1047F000FF23EAE713B5184B91F83A4002461868D0
:104800009B88ADF8043091F83930009002A8034439
:1048100013F8080C02AB1C4414F8083C184491F837
:10482000383002AC234440F2AB7413F8083C034424
:1048300041F2B92004FB03034FF47A70B3FBF0F3A9
:1048400001339BB2138091F83E0018B1B1F84210C9
:104850000B44138002B010BDB0010E002DE9F04FE3
:10486000804689B008460C46FFF72EFC0546002816
:1048700040F059810690CDE90400CDF81B000846B0
:10488000FFF722FC0A270546002D40F053812346FE
:104890000F2204A91D20FFF779FC9DF810B09DF9A7
:1048A0001EA09DF8182001920BF00F030AF02001C2
:1048B0002BF07F0B4BEA01010AF0100A41EA0A01D2
:1048C0009DF8192088F8013049B29DF81130029204
:1048D00000299DF81D2088F80230054603929DF8B6
:1048E00012909DF813E09DF814309DF815C09DF8C6
:1048F00016609DF817009DF81E2088F8001080F2C1
:104900001681000940EA061646EA0C3CE68A760063
:10491000C6EBDC0C6046C1174FEA5C0694F91A003E
:1049200046EAC17649107143A6FB06AB0BEB410B7F
:104930004FEA1A36010146EA0B564FEA2B374FEA87
:10494000E17B06FB0BF0A6FB01ABB4F9186001FBA1
:10495000070786FB0C01BB44C60A4FEA9A3046EAB9
:10496000415640EA8B403118216301EB81018031CF
:104970000912A8F80410216B94F926704910A1F5CA
:104980007A4188104043C6127743B4F924604E43FD
:10499000760006EBA706B4F91E704F4394F9201079
:1049A000401349014143C91001EB6701A08B8914F1
:1049B00001F5004148431B09B4F9221043EA0E1ED9
:1049C0004EEA0939090401EBA606C9F58019A9EBDD
:1049D000263640F635437343C113B3FBF1F141F37F
:1049E0009C00B4F92A30404340135843B4F92830AE
:1049F00041F35D077B4341F3D7165B1303EB203391
:104A000006FB06F0464394F82C00464394F9270031
:104A100003EB664303EBC0131B1103EB4103C8F820
:104A20000830236B94F90E1094F90D6003EB8303A7
:104A300080331B126420594391FBF0F159435E43CC
:104A4000891196FBF0F691FBF0F13144668901F58E
:104A5000804171438E12DDE9017141EA0721278906
:104A6000A1EB071194F90C705F4397FBF0F7A1EBF2
:104A70006701714394F91060734393FBF0F3E07B9B
:104A800003EBC0138813404380121B11434301EB17
:104A9000630399124FF47A734B431B132E4923EA95
:104AA000E3738B42D4BFC8F80C30C8F80C1094F9EB
:104AB0003630052140F23C560027C3FB016702F067
:104AC0000F0C264B53F82C30A6FB030103FB0711F8
:104AD000039B920942EA8302060CD3034FEA214E5C
:104AE00046EA014613F17F434FF0000141F1FF31E7
:104AF0009A1941EB0E031A4951F82C10A1FB0667D5
:104B000001FB0E77700A560846EAC37640EAC750A2
:104B10004FEA672C591080194CEB01010AF08AFE0C
:104B2000C8F810006DB1284609B0BDE8F08F236DBC
:104B30000A209847013F17F0FF077FF4A5AE022532
:104B4000F1E798F90030002BBABF012384F8453013
:104B500084F84550E7E700BFA0860100D8DF0320B6
:104B600018E003207047006A0368DB6818470000FC
:104B7000014B1A60704700BF80E00320014B012207
:104B80001A70704720E4032003681847012A03D0F5
:104B9000022A03D0002070470160FBE70B68036026
:104BA000F8E70021072008F078BE000010B5054B9B
:104BB0001A7B054B044653F8221008F03CF82046B7
:104BC00010BD00BFD8E3032058E0032010B5034B0D
:104BD0000360044603F06BFD204610BD3C090E0047
:104BE00010B50446FFF7F2FF2046102108F012FF2F
:104BF000204610BD436913B183690C3018477047D4
:104C000013B500210446084604F080FF0023204627
:104C100001A9019304F092FF019C0CB101232371BF
:104C20000021012004F072FF2CB1236820469B680C
:104C300098470023237102B010BD08B502F0B2F905
:104C400010B905F01FFBF9E7BDE8084002F0AAB96A
:104C500008B5074908F0A8F8002340B1054A1361D8
:104C6000054A1370054B01201870054B187008BDDC
:104C7000FA010E00D8E303200FE3032004E303202E
:104C800004E4032008B5002005F034FB28B105F04A
:104C900009FB80F00100C0B208BD0120FCE7002341
:104CA000042205F0DFBA000030B585B00346144693
:104CB00068460D4698470298206005F0A3FB2860DF
:104CC00050B1226800990AF0DFFF0024684607F01F
:104CD00067FF204605B030BD004CF7E7FCFEFFFF44
:104CE00037B59DF818501D438DF800503C230446FD
:104CF00005F0E0FE204603B030BD00000A4B10B5C1
:104D00000446036006F0FCFD214606F0FAFF08F0B9
:104D10009BFC08F08DFC2046044B40F8043B06F059
:104D2000DDFE204610BD00BF24090E000C090E0058
:104D300010B50446FFF7E2FF2046242108F06AFE82
:104D4000204610BD10B58368044613B10322014606
:104D50009847204610BD38B5044620252A46002134
:104D60000AF0BAFF6571204638BD0000F8B5037D32
:104D700005460F4616468BB10368DB6883B19A88F7
:104D8000012A06D09B68F9E79B684BB19A88012AF3
:104D9000FAD12BB19A89BA42F6D19E732846F8BD52
:104DA0000A49102008F038FE044668B1102200219C
:104DB0000AF092FF064B23600123A3802B69A360B6
:104DC000A781A6732C61E9E72875E7E768130E0051
:104DD0001000030070B5037D05460E46CBB1036895
:104DE000DB6823B19A88042A17D09B68F9E70C493D
:104DF000102008F011FE044668B1102200210AF0CC
:104E00006BFF084B23600423A3802B692C61C4E94A
:104E10000236284670BD2875FBE7DE60F9E700BF63
:104E200068130E0010000300F0B58C4600251449ED
:104E3000057104468560016092E8030085B002AF09
:104E400004F10C0687E8030096E8030082E80300FB
:104E500097E8030086E803009168A0696161D16862
:104E60009560D060A161CDE90035064A23466146D0
:104E700004F1080004F052FE204605B0F0BD00BF6A
:104E8000F8080E00014C0D0007B58068002338B10A
:104E9000CDE90013022104F059FEB0FA80F0400978
:104EA00003B05DF804FB000038B5104B0360836865
:104EB0000446A3B16FF000410022FFF7E5FFA068B0
:104EC000002104F093FE237903F0FF0513B104F0F1
:104ED00005FEF8E7A068294604F028FEA56004F165
:104EE0000C00FFF72FFF204638BD00BFF8080E006A
:104EF00010B50446FFF7D8FF20461C2108F08AFDB4
:104F0000204610BD0EB410B58DB00FAA016852F83E
:104F1000044B039200232020CDE90403CDE9004295
:104F20001E2004AA05F0FAF80DB0BDE8104003B049
:104F300070470EB410B58DB00FAA016852F8044B3B
:104F4000039200232020CDE90403CDE90042322062
:104F500004AA05F0E3F80DB0BDE8104003B07047B7
:104F600037B504689DF818508DF800308DF804505E
:104F700024683C23A04703B030BD000070B592B058
:104F800002B3012A26D001321FD1204B204C00252C
:104F900006261D70A66008F020FA1E4A00903346CF
:104FA000402102A805F056FA03F0FEFD1A4B8DF8D9
:104FB00000501B78194902AAFFF7D2FF237D013365
:104FC000237502E0114B01221A70154B01221A7051
:104FD00012B070BD0D4B0E4D002404261C70AE6047
:104FE00008F0FBF90B4A00903346402102A805F077
:104FF00031FA03F0D9FD084B8DF800401B780749C2
:1050000002AAFFF7ADFF2C75DFE700BF10E3032016
:10501000ECE203202F020E00F4E1032051020E0007
:1050200004E303202DE9F04F2DED068B254B264E92
:10503000D3E90089254BD3E900AB254B93ED008BD9
:10504000244BD7B018680AF055F8234B93ED009B1A
:10505000224B93ED00AB224B0D469F681A69B16855
:105060001B8D159204461491139308F0B6F9159A06
:10507000139B14990F93CDE90C72CDE90645194A9B
:1050800010900E918DED0AAB4FF480718DED089B61
:105090008DED048BCDE902ABCDE9008916A805F0B2
:1050A000D9F9002403F080FD0F4B8DF800401B78E8
:1050B0000E4916AAFFF754FFB46057B0BDEC068B3B
:1050C000BDE8F08F08E40320ECE20320B0E3032006
:1050D00098E3032038E3032030E3032038E2032081
:1050E000D8E3032064020E00F4E1032023030E0042
:1050F00008B510EE100A2DED068BB0EE60AA09F08F
:10510000F9FF69A3D3E900230AF04CF8684B0022A9
:1051100009F092FE0AF03EFB9FED667ADFED667ABB
:10512000DFED666A08EE100A38EE477A78EE277AE5
:10513000F6EE008AE7EE267A9FED617AEAEE077ACC
:1051400067EEA87A17EE900A09F0D4FF584B0022B8
:1051500009F070FE54A3D3E900230AF04DF90AF0D8
:1051600019FB00EE100A78EE007ADFED566A67EE62
:10517000A87AF4EEE67AF1EE10FA40F387809FED1C
:10518000527ADFED527A9FED529ADFED529AE8EEB5
:10519000077A9FED517AA7EE889ADFED507AE8EE14
:1051A000077AF0EE49AA9FED4E9A9FED4E7AA7EE50
:1051B000889ADFED4D7AA8EE277AB4EEE68AE7EE1C
:1051C000089AF1EE10FA69EE8A9A29EE0A9A69EEC7
:1051D0008A9A5EDDDFED457AB4EEE78AF1EE10FAE9
:1051E0005CD5F2EE0A8AB4EEE8AAF1EE10FA55D5D3
:1051F000DFED3F7A78EE677AB3EE010AF0EEE77AF8
:1052000070EE677A87EE800A08F0CCFD78EECA8AE5
:10521000F5EE007A68EEA78A28EE800A9FED357ACF
:10522000B4EEC78AF1EE10FA02D4DFED337A14E05F
:10523000DFED327AB4EEE7AAF1EE10FAF5DD7AEEA0
:10524000670AF2EE046A37EE488AC0EEA67AF1EEFB
:10525000046A88EE267A67EE877A3AEE899A79EEC2
:10526000299A39EEC00A70EE277A17EE900A09F0F3
:1052700041FF0F4B002209F0DDFD0BA3D3E9002312
:105280000AF0BAF80AF086FA00EE100ABDEC068BB6
:1052900008BD9FED190AF0EE407ADEE79FED160A91
:1052A000BCE700BFAFF30080CDCCCCCCCCCCFC3F76
:1052B0000000404000008842000074429A99993FE3
:1052C0001283C03D0000A042E00FE0BB1123034069
:1052D000198429C2F88760BDAC0DA13A482666BE84
:1052E000164B2241C88F5F3AF18B05B60000E042B1
:1052F0000000BE420000AE42000000000000AA42D2
:1053000010B51D4C6279CEB0002A2FD01B49102257
:1053100006A80AF06EFD22790AAB52B31849102292
:1053200018460AF066FD174A174B116904919289D5
:105330000193164B0093CDE9020206AB144A4FF4D9
:1053400080710EA805F086F803F02EFC00238DF87E
:105350000030104B10491B780EAAFFF701FE0F49D1
:105360000F480EAAFFF7CEFD4EB010BD0D4910221A
:10537000CEE70D491022D3E7D8E3032036030E0011
:1053800048030E00ECE2032005E3032084E303203E
:1053900050030E00F4E1032093030E00A6030E0059
:1053A00044E503203C030E0044030E0008B5054904
:1053B00007F0FAFC28B1FFF7A3FF034B06221A708F
:1053C000012008BDFA010E00CDE3032037B5104DD2
:1053D000012101A807F0C1F96B68243B402B01A80B
:1053E0000CD907F04DFA0B4A01231373AB6000246C
:1053F00001A807F0C1F9204603B030BD07F029FA33
:10540000AC68012C06BF0023AB600124F0E700BFAD
:10541000ECE20320D8E3032030B5194D0FCD99B04D
:1054200004AC0FC40FCD0FC495E8030084E803005B
:1054300014490EA805F0B8F80EA805F008F90446BE
:105440000EA805F01FF90EA810EE105A05F04AF943
:1054500018AB10EE100A03EB840409F04BFECDE903
:105460000201284609F046FECDE90001064A54F83B
:10547000503C0648402104F0EDFF19B030BD00BF9C
:1054800050090E0070E40320B4030E0098E10320DD
:1054900008B50F2008F02DFAB0F5C87F05DA3220E4
:1054A00005F028F80F2008F024FA09F011FE20A3D7
:1054B000D3E9002309F076FE0AF06CF9DFED147AE7
:1054C00007EE100A67EE277A17EE900A09F012FE2F
:1054D000104B002209F0AEFC0F4B002209F062FED7
:1054E0000AF010F909F0F4FD0C4B002209F05AFE05
:1054F0000B4B002209F080FF0A4B002209F09CFCB4
:105500000AF000F9084B5860084B01221A7008BDD8
:10551000000080390000E03F0000594000002240B8
:105520000000144000004040ECE2032004E30320AC
:105530006666666666660A4000B591B06846FFF723
:105540000AFC08A8FFF707FC002108A804F06CFE7D
:10555000134B5979A1B141F2D833ADF80630114B54
:10556000029341F27003ADF80C30009B43F40073DA
:1055700000930021684604F057FE11B05DF804FB6B
:1055800041F27003ADF80630074B029341F210036D
:10559000ADF80C30009B43F400730093EAE700BFC2
:1055A000D8E30320840300048403840310B52D4B47
:1055B00093F82A20012A0CD9002283F82A202A4AAB
:1055C0002A4902F1100052F8044B41F8044B824280
:1055D000F9D11A69D3ED057AFF2ABAEE087A88BFA5
:1055E0000022F4EEC77A88BF1A61F1EE10FA06D4F1
:1055F000B2EE087AF4EEC77AF1EE10FA01DD1C4A39
:105600005A61D3ED067AF5EEC07AF1EE10FA06D4BF
:10561000B0EE007AF4EEC77AF1EE10FA02DD4FF048
:105620007E529A611A7F198D0C2A84BF00221A7744
:105630005A7F0C3A0C2A84BF18225A770D4A1268F6
:10564000914284BF002119850B4B99898A4204D26B
:1056500000229A81094B01221A70094B01221A700B
:1056600010BD00BFD8E30320CD030E00BDE303202F
:105670000000A0C074E00320ECE2032004E3032058
:1056800004E40320044B9B7910221BB10349044816
:105690000AF0AFBB0349FAE7D8E30320E1030E00A9
:1056A00084E30320DD030E0070B5194C194D92B050
:1056B00007F093FE01212970A16820600022A281D9
:1056C00007294FF06402226102D0237D022B19D9F1
:1056D000012100220846002604F06AFDA66007F0BA
:1056E0007CFE0D4A00903346402102A804F0B2FE31
:1056F00003F05AFA094B8DF800601B78084902AA9A
:10570000FFF72EFC0023237501232B7012B070BD10
:10571000ECE2032004E303202F020E00F4E1032057
:1057200051020E0038B5046805467CB16368013B40
:1057300063605BB9236820469B689847A368013B78
:10574000A3601BB923682046DB689847284638BD0C
:1057500010B51A4A1A4C1268238D013293428CB04C
:1057600025D900232385238D164A202104A804F07F
:1057700071FE154804A9FFF7C5FB237983B1E378CF
:1057800073B1FFF75AFA00238DF800300F4B104920
:105790001B7802A804AAFFF7A3FA03A8FFF7C2FF29
:1057A0000C4A012313700C4A13700CB010BD0B4A45
:1057B0009189994238BF9381D5E700BF74E00320F7
:1057C000D8E30320EB030E0044E50320F4E10320BB
:1057D00000040E0004E4032004E30320ECE20320B1
:1057E00030B50B781F4D95B00C46C3B91E4904A8BF
:1057F0000AF0BFFA2B7983B1EB7873B1FFF71DFA8A
:1058000000238DF80030194B19491B7802A804AA0F
:10581000FFF766FA03A8FFF785FF15B030BD08460D
:105820000AF01CFAC8280DD1124904A80AF0A1FAFE
:1058300007F0D3FD104B286201221A700F4B002293
:105840001A70D7E720460AF009FAC928ECD020469A
:105850000AF004FA0A4A0346402104A804F0FAFDBB
:10586000C8E700BFD8E3032009040E00F4E10320D9
:1058700040040E0011040E0004E403200FE3032093
:1058800023040E001FB50E4907F08EFAA8B10023BD
:105890008DF800300B4B0C4A1B780C4902A8FFF71F
:1058A0001FFA03A8FFF73EFF4FF4FA6004F022FE50
:1058B00007480A2101F060FF012005B05DF804FBF4
:1058C000FA010E00F4E103204D040E0034080E002E
:1058D00004E203207FB51B49044607F065FA05463C
:1058E000D0B1194D01246C71FFF726FE174B1C70C7
:1058F000EB7813B9012004B070BD00238DF800309F
:10590000134B144A1B78144902A8FFF7E9F903A8BE
:10591000FFF708FF2046EEE71049204607F044FA5B
:105920000028E8D0094B084E01241C707571FFF760
:1059300003FEF378002BDDD0054B8DF800501B786B
:10594000074AE0E7FA010E00D8E3032004E403204D
:10595000F4E1032065040E0094040E007C040E00A4
:105960007E040E0030B51A4985B0044607F01CFAD3
:105970000546C0B1174B184A01241C71DB7814701E
:1059800013B9012005B030BD00238DF80030134B52
:10599000134A1B78134902A8FFF7A2F903A8FFF7DF
:1059A000C1FE2046EEE71049204607F0FDF9002829
:1059B000E8D0084B084A1D71DB7801241470002BD5
:1059C000DFD0064B8DF800501B78084AE2E700BF95
:1059D000FA010E00D8E3032004E40320F4E10320DD
:1059E00099040E0094040E007C040E00AA040E001C
:1059F00030B5204985B0054607F0D6F9B8B11D4944
:105A0000284607F0D1F90446C8B91B49284607F0D3
:105A1000CBF940B1194DAC71FFF734FEEB7833BBD5
:105A2000174B05221A70174B0120187005E0124918
:105A3000284607F0B9F90028E1D105B030BD0F4C78
:105A40000123A371FFF71EFEE378002BEBD001F0DA
:105A5000A9FA00238DF800300B4B0C4A1B780C4937
:105A600002A8FFF73DF903A8FFF75CFEDBE78DF81E
:105A70000040F1E7FA010E007C040E00D8E3032099
:105A8000CDE3032004E40320F4E1032084E30320B6
:105A900094040E00F0B52DED028B96228DB04FF4DC
:105AA000A0717948794D02F06FFA774802F0BAF99F
:105AB00000226868114604F05DFC08B1FFF7ACFCF9
:105AC000714C734E2068734F09F014FB724AC6E99B
:105AD0000001CDE900011021704804F0BBFCA06872
:105AE00009F008FB6E4AC7E90001CDE90001102169
:105AF0006C4804F0AFFC606809F0FCFA6A4B0022C5
:105B000009F07AFC694B6A4AC3E90001CDE900015A
:105B10001021684804F09EFCE06809F0EBFA664B3F
:105B2000002209F069FC654B654AC3E90001CDE933
:105B300000011021634804F08DFC20469FED620AAD
:105B400002F0EAF910EE100A09F0D4FA5F4B604A4D
:105B5000C3E90001CDE9000110215E4804F07AFCA0
:105B6000D7E9000109F016FE08EE100AD6E9000197
:105B700009F010FEF0EE480A00EE100AFFF7B8FA3E
:105B8000554B10EE100A83ED000A09F0B3FA424AB1
:105B9000CDE900011021514804F05CFC0022686846
:105BA000114604F0E7FB08B1FFF736FCFFF770FC85
:105BB000002203A90720039204F0C8FAB8B9039C95
:105BC0000CB1236923B9464A00210A2004F096FA51
:105BD0000023ADF812300C23ADF8103002AB059362
:105BE00004230693236904AA0121204698473D4CCB
:105BF0000028A8BF02982073FFF7E8FBA37953B1F0
:105C00004FF4FA7004F076FC374805F0C6F94FF40B
:105C1000FA7004F06FFC344805F05AF9FDEEC07AD2
:105C200017EE903A402BC4ED027A09DC237B012B5E
:105C300006D104A8FFF78FF8002104A804F0F4FAB5
:105C40002A4AA36811698B42BFBF1361284A012108
:105C500011701D2B14DC0123E371A3794BB9254985
:105C600004A806F0E8FF04A8FFF7C2FE04A806F0A7
:105C700097FF214B01221A700DB0BDEC028BF0BDD5
:105C80000023E371F5E700BF40E2032070E4032046
:105C900008E40320B0E30320BF040E0010E4032057
:105CA000C7040E004CE303200000594098E3032092
:105CB000CF040E00A0E3032000408F4030E3032018
:105CC000D8040E00E4E1032000507D4438E20320B4
:105CD000E2040E0024E2032038E303203CE3032027
:105CE0003D9C0D00D8E3032024E30320ECE20320D5
:105CF00004E30320FA010E0004E40320F0B51F4C76
:105D00001F4BA6781F4F002587B01D70C6B12846CF
:105D100006F051FE1C492571012302A83B70A570B5
:105D200006F089FF02A8FFF763FE02A806F038FF1D
:105D300016482A466FF00041FFF7A6F807B0F0BDFD
:105D4000012006F038FEFF221046314606F043FEE1
:105D50000121802006F052FE0C4B98680121217130
:105D6000A17039700028E9D06FF0004300930196CC
:105D70003346324603F0EAFEE0E700BFD8E30320F3
:105D800020E4032004E40320FA010E0024E40320AD
:105D900030B5164D164C174B2A7821788FB003EB8F
:105DA0000212009203EB0113134A282104A804F005
:105DB00051FB2B782370114B1A7982B1DB7873B1C8
:105DC000FEF73BFF00238DF800300D4B0D491B788B
:105DD00002A804AAFEF784FF03A8FFF7A3FC0A4861
:105DE00004A9FFF78FF80FB030BD00BFCDE303204B
:105DF00094E3032084E00320E9040E00D8E30320A9
:105E0000F4E10320F7040E0044E503202DE9F047F8
:105E100086B00025254B8DF800501B78244A254973
:105E2000254C02A8FEF75CFF03A8FFF77BFC257159
:105E300004F038FA08B304F035FA10B1284604F03B
:105E400051FA002003F012FF4FF0000A054647F216
:105E50002F584FF00009002003F008FF461B61EBAC
:105E60000A07B94508BFB04505D3FEF70BFF10B9C7
:105E700004F008FAEFE7FEF705FF637913B9A368AA
:105E8000412B09DC0D4902A806F0D5FE02A8FFF758
:105E9000AFFD02A806F084FEFFF732FAFFF704FC1C
:105EA000074B01221A7006B0BDE8F087F4E1032029
:105EB00008050E0010050E00D8E30320FA010E00BD
:105EC00004E4032070B5D0E900531426044606FB11
:105ED0000356AE4204D0284606F062FE1435F8E7B9
:105EE000206804F097FA204670BD38B50368144660
:105EF000DD682C23A847204638BD000010B51F4C94
:105F0000E37886B073B1FEF798FE00238DF8003079
:105F10001B4B1C4A1B781C4902A8FEF7E1FE03A894
:105F2000FFF700FC19481A49FEF7ECFF0123237024
:105F3000042000232371A370E37107F0C7FCD8B1DC
:105F4000144902A806F077FE02A8FFF751FD02A847
:105F500006F026FE104B63614FF07E53A3614FF4B1
:105F6000C053A38301210023044A0C486171238597
:105F7000FFF7BBFF06B010BD0949E2E7D8E30320F5
:105F8000F4E103201E050E0094040E0044E50320F6
:105F900036050E00FA010E000000A0C014E3032035
:105FA0007C040E0000000000F0B54FF4FA60C9B0A8
:105FB00004F0A0FAC24B08AA03F11005186859684A
:105FC000144603C40833AB422246F7D119889B78A4
:105FD000A3702D2221800DF13300002109F07CFEF9
:105FE0000021082007F048FC0021042007F044FCB1
:105FF0000121072007F040FC0121072007F04DFC9C
:1060000004A8002404F056F900237D2228A904A83E
:1060100006F0F1FEAB49AC4E23462246CDE90044E2
:1060200028A804F057F9A94A234600214FF48070AC
:1060300004F0AEF8A649A748FEF731FEA649A748E6
:10604000FEF72DFEA649A748FEF729FEA649A74858
:10605000FEF725FEA649A748FEF721FEA649A74858
:10606000FEF71DFEA649A748FEF719FEA649A74858
:106070002346022204F0F6F823460222A449A5484A
:1060800004F0F0F8A449A548FEF709FE23460222D1
:10609000A349A44804F0E6F8A349A448FEF7FFFD8D
:1060A00023460222A249A34804F0DCF8A249A348EF
:1060B000FEF7F5FD0C23CDE91844ADF86030A04B98
:1060C000A0491A93042218AB9F4804F0CBF89F4ACA
:1060D0009F49A04804F0C6FB9F4AA0499D4804F090
:1060E000C1FB9F4A9F499B4804F0BCFB9E4A9F49C5
:1060F000984804F0B7FB9E4A9E49964804F0B2FBCC
:106100009D4A9E49934804F0ADFB9D4A9D499148A4
:1061100004F0A8FB9C4A9D498E4804F0A3FB9C48D0
:10612000772101F0D7FF002840F0AB8103F08EFD0E
:10613000984C994920609948FEF7E4FE984908A8D0
:1061400009F017FE0123337003F080FD2060042165
:106150008F4801F027FF02218D4801F030FF032115
:106160008B4801F039FF0221894801F042FF4FF4CA
:10617000A0719622864801F007FF0124032241F214
:10618000883318A8CDE91823ADF8684004F095FBD2
:10619000844808232146438101F0ACFC7C218148DE
:1061A000814C01F08FF90023804A00214FF48020B8
:1061B00003F0EEFF0022114618A8189203F026FD06
:1061C000189B142B4FF0000240F0608123690133CB
:1061D0002361774804F0EAFE4FF4FA7004F08AF97C
:1061E000734804F0DAFE734802F078FA002171482F
:1061F00001230DF10F0202F0B3FA9DF80F100129EF
:1062000000F051816B4802F073FA6B4A694804232D
:10621000002102F0F0FA012366480DF10F0200217F
:1062200002F09EFA9DF80F30012B00F03981012316
:106230003370624DFFF7BAF92B7D022B1AD9002279
:1062400011460727012003F0B3FFAF6007F0C5F840
:106250005B4A00903B46402118A804F0FBF802F08E
:10626000A3FC00238DF80030564B57491B7818AA21
:10627000FEF776FE94ED060A06F066FF00F0A8FE33
:10628000002800F01C8106F07DFF94ED050A06F061
:106290003BFF07F0DBF8074607F09FF8381A08F0D5
:1062A00017FF05A3D3E9002309F0A6F8474ACDE973
:1062B00000010A218CE000BF000000000020AC407B
:1062C00078090E00E1570D00CDE303207D4F0D004E
:1062D00010E403204E050E004CE303205A050E0087
:1062E000A0E3032063050E00E4E103206C050E002B
:1062F00024E2032070050E003CE3032079050E0024
:1063000098E1032084050E00E8E303208B050E00CE
:10631000F0E2032096050E0078E00320A2050E00AF
:10632000E0E30320AA050E0084E30320B5050E0078
:10633000F4E20320C2050E0005E30320C9050E00A8
:10634000A94C0D00AD4B0D00D4050E00E3050E0069
:10635000514C0D0039A80D00EF050E0085580D00B9
:10636000F9050E00AD530D0001060E00F1590D00A8
:106370000E060E00D5580D0019060E0065590D00C9
:1063800026060E0011700D0033060E0059710D0027
:1063900040E20320B8E3032041060E0044E5032059
:1063A00060060E0004E20320D8E30320714B0D00C9
:1063B00024E3032014E30320B8090E00ECE20320D9
:1063C0002F020E00F4E1032051020E009F060E0082
:1063D0003C4804F03FF802F0E7FB02F0E9FD02F070
:1063E000E3FB002102F0BCFD02F0DEFB602102F0C5
:1063F000CBFDFFF747F9FFF79FF8042007F066FA97
:1064000008B9FFF77BFD07F005F80021074628686B
:1064100006F05EFE874201D0FFF746F9FFF73AFB30
:10642000E3794BB1284918A806F005FC18A8FFF736
:10643000DFFA18A806F0B4FBA3780BB1FFF75EFCF7
:1064400006F0DCFF237F984207DB06F0D7FF637F6F
:106450009842BEBF1D4B1E4A1A6033780BB9022307
:1064600033701C4B1C491D4801221A70FEF74AFD6F
:106470000021072007F011FA04A806F091FB49B0AB
:10648000F0BD17491548FEF73DFD60E6114618A816
:10649000189203F0BBFB189B8C2B7FF49AAE95E609
:1064A000FFF72CFDC5E60F4A0F482C2302F058F9E0
:1064B0000E4A0D481823502102F052F9B9E606F0B1
:1064C0006DFEE2E605E30320FA010E00D0E30320AF
:1064D000905F010004E40320A9060E0044E50320B8
:1064E0007E060E00D8E3032014E30320ECE2032031
:1064F0008842F8B504460D46164616D9904215D284
:10650000A2F11406751AA1F114072C44B7421CD04D
:106510002CB13146204606F0BFFB337C2374304655
:1065200006F03EFB143E143CF0E70ED0B5420CD012
:106530002CB12946204606F0AFFB2B7C237428465D
:1065400006F02EFB14351434F0E7F8BD2DE9F041C8
:106550000023C0E9003383604F689F4204460E4623
:1065600023DD4FF0140808FB07F003F04BFF05464E
:10657000D8B1D4E9001208FB0212FFF7B9FF206876
:1065800003F048FF2560A760D6E9007308FB037895
:10659000B84508D03946284606F098FB3B7C2B745A
:1065A00014371435F4E7736863602046BDE8F08162
:1065B000F0B5564B564E01251D70564B08228FB034
:1065C0001A7007F003F900231A460D2107F006F9A7
:1065D00007F0FCF8002329461A4607F007F94E4B4E
:1065E000002464229C811A611C754C4B4C4A1C602F
:1065F0009C809C719A60022003F0BAFD21462846D7
:1066000003F0CEFD2946042003F0F8FA454B1A4664
:10661000191D42F8091BA3F809409470424A1D75E0
:10662000C3E903445A601C7207F0ACF923460146E3
:106630004FF40052304602F047F83C4B336007F00D
:10664000A1F9692201463A4800F03EFE2146394848
:1066500004F0F0FB4FF0FF31374801F0D1FBCDE9FA
:106660000144039406F0F0FF344C064601A904A847
:10667000FFF76CFF274604A907A8FFF767FF304B19
:1066800047F8043B07A90AA8FFF760FF0AAA2946B2
:10669000384605F090FC0AA8FFF714FC07A8FFF79E
:1066A00011FC284B2360266204A8FFF70BFC264B45
:1066B000236006F0C9FF4FF4165106F0B5FF05F050
:1066C0001FF9214605F009FC01A8FFF7FBFB1F4B52
:1066D0001F4E204C0A930AAA2B464FF47A711E488B
:1066E0000D960C94FEF7A0FB0AA8FEF72BFB1B4BA4
:1066F0001B490A930AAA2B461A48CDE90C46FEF715
:1067000093FB0AA8FEF71EFB0FB0F0BDF4E10320D7
:1067100014E30320F5E10320ECE20320D8E1032099
:106720000000FFFFB8E20320100003003C090E0048
:1067300004E2032024E3032040E2032060E303207B
:106740000C090E0014120E0024090E00A34B0D00BC
:10675000894B0D008D4B0D00D0E203207D4B0D00C9
:1067600000DD6D0024E403202DE9F04F2F4930486F
:1067700085B0FEF7C7FB002401A8CDE90144ADF8C0
:106780000C4004F080F8204603F070FA43F6972A94
:1067900005464FF0000B002003F068FAB0EB050847
:1067A00061EB0409CB4508BFC24505D303F07AFD70
:1067B00010B103F067FDEEE71E4C03F073FD606857
:1067C0000022022103F0CEFD002360681A4619461C
:1067D00003F0E0FD002003F049FA4FF0000A0546FF
:1067E00047F22F584FF00009002003F03FFA461BF4
:1067F00061EB0A07B94508BFB04506D3204605F04E
:1068000019FF10B903F03EFDEEE70A4805F012FF4C
:10681000094B0022DA70094B012404201C7004F09B
:10682000BDFC204605B0BDE8F08F00BFBA060E00E3
:1068300044E5032070E40320D8E3032004E40320AC
:106840002DE9F043884D894C2B78894FDFF874820D
:10685000013B97B0072B3AD8DFE813F0D2020800CB
:106860008D003601AC01590270023B03814B1B784D
:10687000022B01D0FFF78CFAA37953B103F0E6F9AC
:106880007D4B1B68C01A7D4B1B68984284BF042354
:106890002B707B4B1B780BB108232B7006F0AEFDE1
:1068A000784B06460021186806F00AFC86421CBF99
:1068B00006232B7006F0A2FD637F984202DB0323C0
:1068C0002B7004E006F09AFD237F9842F7DB6E4BB5
:1068D0001B780BB1FFF712FA6C4801F0EBF902F0EC
:1068E00063F902F051F898F800303BB15F4A68480C
:1068F0000121FFF7FAFA002388F800303B783BB11A
:106900001823644A6248502101F075FF00233B7050
:10691000614B1B68002B1FDB604A402106A803F077
:1069200099FD5F4806A9FEF7EDFAE37873B1FEF72B
:1069300084F900238DF800305A4B5B491B7803A87B
:1069400006AAFEF7CDF904A8FEF7ECFE4FF4FA60B4
:1069500003F0D0FD06F0F6FAE3784BB103F0A2FCA9
:1069600030B90523E07051494D482B70FEF7CAFA43
:1069700017B0BDE8F0833F4B1B78032B01D0FFF726
:1069800007FAE378002B68D0FFF7EEFEE3780BB14F
:10699000FFF7EAFE00213D484FF0020985F800901C
:1069A00000F090FD06F019FD4FF4616690FBF6F3E0
:1069B00003FB16063E4BC6F561661A7DB6F5616FA0
:1069C000A8BF4FF461660AB183F808900022042141
:1069D0003748FEF7CBF94FF47A717143FEF7FAF9B5
:1069E000334903A806F0B2FA4FF0FF31274800F010
:1069F00069FD304804F0DAFA039BE3B19A88012A72
:106A000019D19B89042B16D12B4906A806F013F93E
:106A100006A8FEF7EDFF06A806F0C2F806F0EEFCA9
:106A2000237F984207DB06F0E9FC637F9842BCBFF6
:106A30004FF4C053A38306F0E1FC637F984280F2D9
:106A4000AC8006F0DBFC237F9842C0F2A6800B4BA3
:106A50001A4A1A6002232B709FE0194805F0EAFDDC
:106A6000002891D092E700BFCDE30320D8E30320B4
:106A700004E3032094E30320D4E30320D0E30320C2
:106A800010E303205CE3032020E4032004E203205E
:106A900014E30320ECE2032080E003208B080E00C7
:106AA00044E50320F4E10320AA080E00B1080E001B
:106AB000B8E2032024E303207C040E00905F010071
:106AC00070E4032004E40320A84B1B78042B01D0BE
:106AD000FFF75EF9A64B1B7803F0FF01002B7FF454
:106AE000F6AEA44B986800285ED1E3781BB9A248A3
:106AF00005F0A0FD08B9FFF737FEE3780BB1FFF70B
:106B000033FE9E4B9E484FF47A7200214FF00209EB
:106B10001A6085F8009000F0D5FC06F05EFC4FF49A
:106B2000616690FBF6F303FB1606964BC6F56166AD
:106B30001A7DB6F5616FA8BF4FF461660AB183F89C
:106B40000890002204218F48FEF710F94FF47A7163
:106B50007143FEF73FF98B4903A806F0F7F94FF0B0
:106B6000FF31874800F0AEFC874804F01FFA039B12
:106B7000002B3FF46FAF9A88012A7FF46BAF9B899B
:106B8000042B7FF467AF814906A806F054F806A8E5
:106B9000FEF72EFF06A806F003F8039800283FF43E
:106BA00096AE03F037FC92E603F010F800287FF46D
:106BB0008EAE9AE76D4B1B78052B35D0744E337033
:106BC00000232385FFF7E4F8E37853B9E379DBB1D9
:106BD000042006F07BFEB8B16E496F48FEF792F9CB
:106BE0004FE003F05FFB0028F0D06C496A48FEF7E5
:106BF00089F9624B6A4A1A6003F028F8694B1860F9
:106C00000623337007235BE6A379002B3BD103F007
:106C10001DF8654B18605848002340681A4619460D
:106C200003F0B0FB03F036FB03F010F85E4B1B687B
:106C3000C01A4FF47A73B0FBF3F0208503F032FBF7
:106C4000002837D00123E37006F0C7FB4B4B544AB2
:106C50001A60606202F0FAFF524B1860FEF778FD8E
:106C600052494D48FEF74EF90023009350494FF02A
:106C7000FF330222042004F067FA454B1B78062BF1
:106C8000C0D002231CE6042006F020FE0028BED05F
:106C9000A368322B08DDA368412BB8DC06F0AEFBFD
:106CA000C307B4D5434998E706F0A8FB8207F2D0A2
:106CB000414992E7414B228D1B689A427FF607AE0D
:106CC0003F4BE07002229A60FEF742FD3D49324898
:106CD000FEF718F9FFF748FD63794BB13A4906A86A
:106CE00005F0A9FF06A8FEF783FE06A805F058FFE9
:106CF00006F073FB636AC01A42F630239842C0D98B
:106D000001232B7002F0A2FF304B1860DFE5174B18
:106D10001B78062B01D0FFF73BF806F05EFB2C4BEF
:106D20001860FEF7B7FE06F069FB237F984201D199
:106D3000FFF76CF8FEF776F90523C1E50B4B254EFE
:106D40001B78072B07D002F081FF234B186001232B
:106D50003370FFF71DF83378002B3FD102232B70DF
:106D600001233B7088F80030B1E500BF94E30320B5
:106D7000BCE30320D0E2032070E40320D0E303202F
:106D800004E20320B8E2032024E303207C040E0085
:106D9000F6E103200A070E0044E50320E3060E0097
:106DA000905F0100D4E30320FCE1032093070E0071
:106DB0007D4B0D0061070E0030070E0074E00320CC
:106DC000ECE20320AF070E00FA010E00B8E3032047
:106DD0005CE303200FE30320F8E1032002F036FF19
:106DE0005A4B1B68C01A47F230539842B8D902F088
:106DF0002DFF574B1860574B03229A600123AEE7D3
:106E0000554B1B78012B01D0FEF7C2FF02F01EFF8D
:106E10004F4B1B6803F5EA4330338342BFF457AD51
:106E200006F0DBFA636AC01AB0F5E15F13D906F029
:106E3000D4FA6062FFF798FC484A49480121FFF7FD
:106E400054F848484849FEF774F8642003F052FBB0
:106E500006F078F83BE52269E378032A13DC7BB17E
:106E6000FDF7EBFE414B424A1B788DF80030414B59
:106E700041491B7806A8FDF733FF07A8FEF752FC2F
:106E80004FF4FA60E2E77BB1FDF7D7FE374B3B4AA0
:106E90001B788DF80030374B37491B7806A8FDF773
:106EA0001FFF07A8FEF73EFC4FF4FA6003F022FB39
:106EB000FFF75AFC0023294A294823610121FFF7E3
:106EC00014F8642003F016FB1E212D4800F054FC3A
:106ED000FDE4214B1B78082B09D002F0B7FE294BAB
:106EE000294918601F48FEF70DF8FEF751FF274BA0
:106EF0001B780BB9264970E602F0A8FE214B1B68EF
:106F0000C01A244B98427FF6E2AC124E2249154833
:106F10004FF00509FDF7F6FFC6F8089006F05DFA98
:106F20001E4A00904B46402106A803F093FA01F058
:106F30003BFE00238DF800300E4B19491B7806AA42
:106F4000FEF70EF8337D013333759AE6F8E103203E
:106F5000B8E30320ECE2032094E30320D8E303200A
:106F600014E3032044E50320CD070E00F5E10320E0
:106F7000FA070E00F4E1032015080E001B080E00AE
:106F800004E2032000E203203A080E0010E303208D
:106F900057080E00BF27090071080E002F020E00CF
:106FA00051020E0008B502F051FEB0F57A7F34BFF1
:106FB0000020012008BD08B5002003F09BF928B18E
:106FC00003F070F980F00100C0B208BD0120FCE7B9
:106FD00038B506F01FFA054606F030FA044606F00A
:106FE00025FA231F062B0ED9E31E082B0DD80138D6
:106FF0002D1A04D50B2C14BF0020012038BD072DFD
:1070000003DD032CF7E70120F8E70020F6E7000096
:107010002DE9F047CAB0804603F044F910B10020D2
:1070200003F060F9002002F021FE4FF0000A8146D3
:1070300047F22F560027002002F018FEB0EB09049B
:1070400061EB0A05AF4208BFA64205D3FFF7B3FFC5
:1070500010B903F017F9EEE7FFF7ADFFD8F800001D
:107060000A2203A908F066FF00F10C03DBB2182B1B
:1070700059D844B207EE904A2F4FB8EEE70A0125DF
:1070800087ED050A06F040F82C4B1D7006F0DEF97E
:10709000064606F0A2F9301A08F01AF824A3D3E93C
:1070A000002308F0A9F9264ACDE9000125480A2164
:1070B00003F0D0F9FB78002B37D02346224C234A2B
:1070C0004FF480710AA803F0C5F923788DF80030D9
:1070D00006A81F493C230AAA03F0ECFC07A8FEF708
:1070E00021FBFFF75FFF10B903F0CCF8F9E7FFF7DA
:1070F00059FF06F072F90246C31706A806F06AF8AF
:107100002378069A12498DF8003004A83C2303F036
:10711000D1FC05A8FEF706FB06A805F041FD0120FD
:107120004AB0BDE8F0870020FAE72846F8E700BF3C
:10713000000000000020AC40D8E3032004E403205A
:107140009F060E0005E3032040E40320BC090E0067
:10715000D0090E000000000030B52DED028BCBB041
:10716000044606F03AF90A22054603A9206808F009
:10717000E1FEC3B2022B67D843B208EE103AB8EE74
:10718000C88AB0EE480A05F0DFFF354B83ED068A6A
:10719000344B01221A7018EE100A07F0ABFF324A86
:1071A000CDE900014FF480710AA803F053F906F00D
:1071B000F7F820B1FFF70CFF58B305F0E3FF06F036
:1071C00045F9044606F009F9201A07F081FF22A3C9
:1071D000D3E9002308F010F9244ACDE900010A217F
:1071E000234803F037F903F05DF858B3214C2249E6
:1071F00023788DF8003006A83C230AAA03F05AFC35
:1072000007A8FEF78FFAFFF7CDFE28B903F03AF88A
:10721000F9E705F0C3FFD2E7FFF7C4FE2A46EB17F4
:1072200006A805F0D7FF2378069A13498DF8003099
:1072300004A83C2303F03EFC05A8FEF773FA06A859
:1072400005F0AEFC012000E000204BB0BDEC028B4D
:1072500030BD00BFAFF30080000000000020AC4054
:10726000D8E3032004E40320D5090E009F060E0096
:1072700005E3032040E40320D0090E00014B012266
:107280001A70704740E40320704710B5202104466F
:1072900006F0C0FB204610BD0EB410B58DB00FAA8D
:1072A000016852F8044B039200232020CDE9040327
:1072B000CDE90042012004AA02F030FF0DB0BDE884
:1072C000104003B07047000010B50272FF224281E7
:1072D0000022C0E9032242610276C261024A034CE5
:1072E0001060C0E9004110BD48E40320380C0E00D6
:1072F0002DE9F8439DF820800446894616461F462E
:10730000B8F1000F02D0406803F00AFF217A6068EC
:1073100003F0E0FE6068036849469B689847606830
:10732000002103F0F6FE054600BB0123217A6068C8
:107330003A4603F0BAFE8742034609D13744BE42BB
:107340001CD0606803685B69984706F8010BF6E794
:107350000B490C484A46FDF7ECFDB8F1000F02D08E
:10736000606803F0E6FE2846BDE8F8830346064958
:1073700004484A46FDF7DDFD0025EEE70125ECE770
:10738000E6090E0044E403200B0A0E0007B5009343
:107390000123FFF7ADFF03B05DF804FB73B543892C
:1073A000FF2B044610D0194E194D02F04FFCB0F5DA
:1073B0007A7F09D2608906F089FA012804D0314623
:1073C0002846FDF79FFDF0E701230DF10702282174
:1073D0002046FFF7DBFF30B90D480E49FDF792FD5F
:1073E000002002B070BD9DF80730182BF4D10123A6
:1073F0000DF1070229212046FFF7C8FF0028EBD036
:107400009DF80730052BE7D1EBE700BF2F0A0E00F0
:1074100044E40320440A0E0007B5134600228DF809
:1074200007200DF10702FFF7B1FF9DF8070003B039
:107430005DF804FB2DE9F0419DF8188004460F46E5
:1074400015461E46B8F1000F02D0406803F068FEF2
:10745000217A606803F03EFE6068036839469B68E5
:1074600098472E44B542606805D0036815F8011BA3
:107470009B689847F6E7012103F04BFE034670B185
:10748000084909483A46FDF754FD0025B8F1000FB8
:1074900002D0606803F04DFE2846BDE8F08101256A
:1074A000F4E700BF510A0E0044E403201FB58DF835
:1074B0000F2000930DF10F020123FFF7BBFF05B072
:1074C0005DF804FBF8B50A460C4605461A491B4808
:1074D000FDF718FD002CB8BFEC687CB901232246EB
:1074E0001B212846FFF7E2FF1549024606461348CE
:1074F000FFF7D2FEEC606C613046F8BD032C19DD5D
:10750000A7101F2FA8BF1F27BA0062F07C0201231B
:10751000D2B21B212846FFF7C9FF3A460346094964
:1075200006460648FFF7B8FE4FF4FA635F43EC6087
:107530006F61E1E70127E7E7760A0E0044E40320E4
:10754000800A0E009C0A0E000B4607490246086896
:1075500048B1002B08BFB2F5006F04D1C36813B166
:107560000021FFF7AFBF704748E403202DE9FF413A
:107570009DF82880054616461F46B8F1000F04D036
:107580004068019103F0CCFD0199019100230DF1B8
:107590000F022846FFF7FAFE044660B19DF80F304F
:1075A00003EA06023A43934205D001990023284694
:1075B000FFF77CFF0446B8F1000F02D0686803F0C3
:1075C000B8FD204604B0BDE8F08113B514460DF1B6
:1075D0000702FFF7DBFE28B19DF807301C420CBF05
:1075E0000120002002B010BD13B514460DF10702B2
:1075F000FFF7CCFE28B19DF807301C4214BF0120D4
:10760000002002B010BD07B5D2430093D2B20023D0
:10761000FFF7ACFF03B05DF804FB000037B50123B2
:107620000DF107020F210446FFF7B0FE054638B9F9
:107630001E491F48AD22FDF77CFC284603B030BD33
:107640009DF8073013F0200F4FF001030BD02022DC
:10765000E3610F212046FFF7D6FF164A164914486A
:10766000FDF750FCE9E7082217212046FFF7BCFF91
:1076700018B10223114AE361F0E79DF807301A07B9
:1076800009D50323E361082201230F212046FFF7D8
:10769000BAFF0B4AE2E75B07CFD50422E261012380
:1076A0000F212046FFF7AFFF064AD7E7EF0A0E008B
:1076B00044E40320C00A0E000E0B0E00C90A0E009F
:1076C000D90A0E00E90A0E0007B500931346FF22FF
:1076D000FFF74CFF03B05DF804FB0000F8B50F4660
:1076E0001646012300220F210546FFF7DFFE044660
:1076F00038B94FF425721E491E48FDF71AFC204682
:10770000F8BD0123232218212846FFF7CFFE0446A7
:1077100010B940F29B22EEE7FF2FA8BFFF27012FF1
:10772000B8BF01270123FAB219212846FFF7BEFE90
:10773000044610B94FF42A72DDE701230822122112
:107740002846FFF7C1FF044610B940F2AF22D2E746
:10775000002E4FF0010314BF8322822218212846F5
:10776000FFF7A4FE04460028C9D140F2B922C2E7BF
:107770001F0B0E0044E403202DE9F7430A4605469B
:107780000F464F484F49FDF7BDFB00212846FFF744
:1077900099FE044648B940F2F7124B494848FDF7B4
:1077A000C8FB204603B0BDE8F08301231A46302110
:1077B0002846FFF789FF044610B940F20522ECE79E
:1077C0001022012311462846FFF71DFF044610B979
:1077D0004FF40372E1E70123262213212846FFF725
:1077E00065FE044610B940F21322D6E70126009642
:1077F0003346FC2211212846FFF7B8FE044610B993
:1078000040F21B22C9E7002239462846FFF766FFEF
:10781000044610B940F22222BFE7009602237722E5
:1078200010212846FFF7A2FE044610B940F22B2291
:10783000B3E7334604221C212846FFF745FF0446E0
:1078400010B940F23222A8E700961823E322112152
:107850002846FFF78BFE044610B940F239229CE718
:107860003346C02217212846FFF720FE044610B9F0
:107870004FF4107291E702F0E9F9DFF85490DFF865
:1078800040804FF47A7106464F4302F0DFF9801BC7
:10789000B8420ED2012217212846FFF7BDFD494606
:1078A00002464046FDF72EFB4FF47A7002F022FEAE
:1078B000EBE706490248FDF73CFB05F043FB70E7A8
:1078C00044E403204A0B0E003F0B0E00700B0E0029
:1078D0005B0B0E002DE9F3479DF828A005460C46EA
:1078E00091461F46BAF1000F02D0406803F018FC21
:1078F00007B3202F3E4628BF20267F2C26D83319D9
:10790000802B01D9C4F18006012304223F2128469F
:10791000FFF779FE002364F07F0100934A46334667
:10792000C9B22846FFF7E4FC804628B13444BF1BA7
:10793000B144DDE74FF00108BAF1000F02D06868EA
:1079400003F0F7FB404602B0BDE8F08701230422B4
:107950003F212846FFF7B8FEDCE72DE9F3479DF805
:1079600028A005460C4691461F46BAF1000F02D0EA
:10797000406803F0D5FB07B31F2F3E4628BF1F26E4
:107980007F2C26D83319802B01D9C4F1800601231E
:1079900004223F212846FFF736FE002364F07F01D2
:1079A00000934A463346C9B22846FFF743FD804656
:1079B00028B13444BF1BB144DDE74FF00108BAF1F0
:1079C000000F02D0686803F0B4FB404602B0BDE887
:1079D000F087012304223F212846FFF775FEDCE7EC
:1079E00030B585B00D68D1E9043203954D68029534
:1079F0008D680195C96800910133044902F26C72E7
:107A0000044605F031FA204605B030BD820B0E0069
:107A100003110A2200F00F0002FB0300704738B583
:107A2000044600781546FFF7F3FF08606078FFF71B
:107A3000EFFF4860A078FFF7EBFF8860E078FFF782
:107A4000E7FFC8602079FFF7E3FF013808612DB92F
:107A5000651D2878FFF7DCFF886138BD6079FFF786
:107A6000D7FF6430A51D4861F3E7000070B501231E
:107A700088B00D461A4610210446FFF7A6FDF0B166
:107A800008230126204600960DEB03020021FFF794
:107A90002FFC044698B1324629460DF10900FFF744
:107AA000BEFF04A8FFF79CFF0848049A0849FDF7A9
:107AB00029FA04A805F074F8204608B070BD242205
:107AC0000021284608F008F90024F5E744E40320E3
:107AD000A00B0E0030B58BB00D4601A9FFF7C6FF15
:107AE000044620B101A802F0FDFCC5E900012046D2
:107AF0000BB030BD10B5044688B011B1406803F03A
:107B0000B7FA2046FFF74AFC70B32046FFF786FD20
:107B100001231A4610212046FFF757FDD8B105F082
:107B20003FFCC0B902A92046FFF7D4FFDDE90201FE
:107B300005F03CFB0F4B10491B68009304A8DDE9DE
:107B4000022305F0EBFB0D48049A0D49FDF7DAF925
:107B500004A805F025F80B4A002300214FF400602B
:107B600002F016FB08B010BD07490448FDF7E1F923
:107B7000F1E700BF1CE1032098E5032044E4032063
:107B8000AE0B0E0049750D00CB0B0E000A2290FBC8
:107B9000F2F302FB130093FBF2F102FB113140EA16
:107BA0000110C0B2704770B5054600680C46164615
:107BB000FFF7ECFF20706868FFF7E8FF6070A868C7
:107BC000FFF7E4FFA070E868FFF7E0FFE0702869C6
:107BD0000130FFF7DBFF20712EB9661DA869FFF7A2
:107BE000D5FF307070BD6A69642392FBF3F003FB2C
:107BF0001020FFF7CBFFA61D6071EFE7F0B587B04F
:107C0000054602A816460C46FFF7EAFE1E48029AF1
:107C10001E49FDF777F902A804F0C2FF16B16868A3
:107C200003F07EFA204601220DF1090100278DF8AC
:107C30000870FFF7B8FF01231A4610212846FFF706
:107C400043FD0446E8B1082300970DEB03023946D3
:107C50002846FFF7EFFB044660B101231A461021C6
:107C60002846FFF7D0FC16B1686803F062FA204698
:107C700007B0F0BD4FF48D7205490348FDF759F97F
:107C8000F1E74FF48F72F7E744E40320E30B0E00B3
:107C9000F10B0E0013B504466846CDE9002307F04A
:107CA000E1FF9DF8102001462046FFF7A7FF02B034
:107CB00010BD0000F0B5057E89B0044675BB05F027
:107CC0006FFB58B30026002704A92846CDE90467B6
:107CD00002F018FB10B30125257605F07EFB009518
:107CE0000246C3172046CDE90223FFF7D3FF02A9BE
:107CF0002046CDE90267FFF7EDFE124B12491B68E3
:107D0000009304A8DDE9022305F008FB0F48049A5C
:107D10000F49FDF7F7F804A804F042FF636973B157
:107D200001F094FF2369C01A6369984207D301F0F8
:107D30008DFF4FF0FF3120612046FFF7C3FB09B0F4
:107D4000F0BD00BF1CE1032098E5032044E40320BC
:107D50000C0C0E00014B024A1A60704744E40320E9
:107D6000220C0E0002F0C6BBF8B5074614461D46AD
:107D70000E4605F007FE394603F0ACF905F002FEA9
:107D8000036831469B6898472544AC4207D005F00C
:107D9000F9FD036814F8011B9B689847F5E705F0A7
:107DA000F1FD03F0BAF90020F8BDF8B50646154616
:107DB0001C460F4605F0E6FD314603F08BF905F051
:107DC000E1FD036839469B68984705F0DBFD03F049
:107DD000A4F905F0D7FDE2B2314603F078F9844208
:107DE0000AD12C44AC4209D005F0CCFD03685B6994
:107DF000984705F8010BF5E70120F8BD0020FCE7E6
:107E000001770549FF220A7004490A7004490A7083
:107E1000002202610275704759E4032058E40320F0
:107E20005AE4032010B50123044680F86430A37C93
:107E3000407C88B00BB140F00400E37C0BB140F013
:107E40000200237C0BB140F01000237D0BB140F009
:107E5000C80004F120010191FCF752FB019910B117
:107E6000002008B010BD08460191FCF70AFB00286D
:107E7000F6D101990DF10A00FCF7BCFCBDF80A002F
:107E8000400002F037FB019903A8FCF7E7FC00284B
:107E9000E6D1637C73B3BDF9100007F019F91A4BF2
:107EA000002207F0A9FA07F075FCA37C20601BB341
:107EB000069807F0FDF8154B002207F09DFA07F031
:107EC00069FCE37CA060CBB1DDED057AF8EE677A62
:107ED000207DC4ED017AA0B19DF80C30DB0645BFD2
:107EE000DDED077AF8EE677A0023C4ED037A58BF18
:107EF000E360B6E70648D8E70548E2E7DFED057A34
:107F0000E6E70120ADE700BF0000594000408F4088
:107F10000000C07F0000C07F10B504462DED028B2D
:107F2000B0EE408AFFF77EFFD4ED016A9FED147A30
:107F3000C6EE877AC7EE887A17EE900A07F0DAF86D
:107F40009FED0B1B41EC100B05F076FD0D4953EC3A
:107F5000102B002006F06EFF07A3D3E9002307F0E3
:107F600021F907F017FCBDEC028B00EE100A10BDE2
:107F7000EBE2361AC05BC83F0000000040A5E540B8
:107F80000000C8420000F03FA0F86010A0F8622096
:107F900001B12AB9002380F85E30037501207047D3
:107FA0000123F8E70529034607D880F85910012076
:107FB00009B95974704758747047002070470529F3
:107FC000034607D880F85810012009B99974704702
:107FD00098747047002070470529034607D880F839
:107FE0005A10012009B9D9747047D874704700201D
:107FF00070470729034607D880F85B10012009B9AC
:1080000019747047187470470020704713B50B4CF3
:108010002178BFF35B8F11F001010BD12046019154
:10802000FCF74AF8019928B1054804F001FD204603
:10803000FCF747F8024802B010BD00BF4CE4032033
:1080400050E403202DE9F0471B4D95F90030013332
:10805000804606D1FFF7DAFF4146BDE8F04704F05D
:1080600099BDDFF85890DFF858A00024072695F94D
:108070000000002180B205F010FC012799F90000F2
:1080800007FA06F101EA080180B205F006FC95F94D
:108090000000394680B205F000FC9AF90000640047
:1080A00080B2E4B205F012FC00B13C43013EDED2E6
:1080B0002046BDE8F08700BF5AE4032059E40320BE
:1080C00058E4032008B5FFF7A1FFBDE8084004F01D
:1080D000B9BC000038B50446417590F91C00421C3B
:1080E0000D4622D105F04EFC02F0C2FF012384F8B8
:1080F0002230264BA366264B84F82150E366254B9D
:10810000236704F12000FCF7E4F800283BD1224B60
:10811000A3654FF0013301202361204B84F85E00FA
:108120002075236684F8640038BD012180B205F013
:10813000B4FB94F91C00012180B205F09DFB184BA3
:1081400093F90000431C0BD1FFF7BCFF237F84F899
:108150002130002384F82230124BA366124BCDE766
:10816000012180B205F088FB104B93F9000001213A
:1081700080B205F081FB0E4B93F90000002180B224
:1081800005F07AFBE2E70020CEE700BFAB7D0D00F3
:10819000697D0D00657D0D0002040302400196001B
:1081A0005AE40320B5810D002D820D0059E403200F
:1081B00058E403202DE9F0411B4F88460021144666
:1081C0001D46064605F069FB97F90020013210D1E3
:1081D000FFF778FFFFF71AFF402104F0B5FCFFF727
:1081E00015FF012104F03FFCFFF710FF002104F010
:1081F0004DFC4046FFF726FF2544AC4205D0002049
:10820000FFF720FF04F8010BF7E797F9003001337F
:1082100003D1FFF7FBFE04F04CFC3046012105F0D2
:108220003CFB0020BDE8F0815AE403202DE9F04139
:108230001B4F8846002114461D46064605F02DFBBF
:1082400097F90020013210D1FFF73CFFFFF7DEFE67
:10825000402104F079FCFFF7D9FE012104F003FC72
:10826000FFF7D4FE002104F011FC4046FFF7EAFEC0
:108270002544AC4204D014F8010BFFF7E3FEF8E705
:1082800097F90030013303D1FFF7C0FE04F011FC71
:108290003046012105F001FB0020BDE8F08100BF60
:1082A0005AE40320022A06D0032A02D0012A00D170
:1082B0000160002070470B680360FAE710B50123E6
:1082C00003748368044643B1C0689847012363740C
:1082D0000020BDE8104001F081BC00680028F5D006
:1082E00083680BB905F0A2FBC368EEE738B50568F3
:1082F000044635B12846FCF725FD1021284605F037
:1083000089FB20461421BDE8384005F083BB10B539
:1083100003680446ABB1586801F0D8FB88B92368FC
:108320005A7C12B9586801F0E1FB2368586801F0E3
:10833000E5FB20680023236018B1BDE81040FFF77B
:10834000D5BF10BD054A026000224260027380F86A
:10835000BD22C0F8C822C0F8D0227047640C0E00BD
:1083600010B5074C236843B94FF43570FBF793FE03
:10837000034608B1FFF7E6FF2360206810BD00BF89
:108380005CE4032038B50446406890B102232373AF
:10839000FFF7BDFF656855B12846FFF7B8FF2868AD
:1083A00008B1FFF7A3FF0421284605F033FB0023A3
:1083B000636038BD10B5054B03600446FFF7E2FF6C
:1083C00004F53070FCF7BEFC204610BD640C0E00B6
:1083D00010B50446FFF7EEFF20464FF4357105F067
:1083E00019FB204610BDF0B5044689B000F10D061A
:1083F00000F14E07237B1BB9012002F07BF8F9E75F
:10840000237B022B62D0A06801F0B0FBA06801F0D2
:10841000B5FB94F8BD328DF800303A463C23314626
:1084200006A802F047FB069D6B7833B9237B022B2D
:1084300003D0012002F05EF8F5E7D4F8C8321BB390
:10844000002001F0BDFE20B16B7813B901F01AFFD6
:10845000FAE72B78D4F8D0220592591E4B424B41B3
:108460008DF80B30D4F8C832CDE903670BB905F0AD
:10847000DDFA05AB0093D4F8CC5204AB03AA0DF19E
:108480000B0104F53070A847A06801F06FFB237B57
:10849000022B15D0D4F8C8320025C4F8D05233B11D
:1084A00004F53071032208469847C4E9B255002309
:1084B000A068237301F062FB07A8FDF733F999E781
:1084C000A06801F05BFB07A8FDF72CF909B0F0BD2F
:1084D0000068FFF788BF13B50B460246D0E90001DC
:1084E0006C4684E8030093E8030082E8030094E804
:1084F000030083E8030002B010BD00002DE9F7433C
:1085000006468846142026491746994605F084FAFF
:10851000044630B10022C0E90022C0E90222027400
:1085200042743460002C31D01D49102005F074FADB
:10853000054668B10023836001463846FFF7CBFF4C
:10854000BB68AA68BA60AB60EA68FB68EB60FA6077
:108550002768256037B13846FCF7F4FB1021384610
:1085600005F058FA3068036883B10A9B4A46CDE9A2
:10857000000341460B4B043001F0A0FA30B93368D8
:108580001B7C4BB9012001F051FBF8E73068002358
:10859000336008B1FFF7AAFE304603B0BDE8F083B0
:1085A00068130E00BD820D0030B5436887B00446E5
:1085B000C3B9083001F0D2FA0B4B059304200B4BE2
:1085C00002940493FBF767FD054638B14FF440630E
:1085D00000930749022302AAFFF790FF656002A8F3
:1085E000FCF7B0FB07B030BDD1840D00A5820D00B3
:1085F000480C0E002DE9F043044685B080680C9FBE
:1086000098460D46164601F0B1FA63681BB1237B0C
:1086100003F0FF0933B1A06801F0B0FA002005B003
:10862000BDE8F083A06801F0A9FA002D3DD04122F9
:10863000294604F10D0007F0DCFB84F84D908EB361
:1086400040F26F22314604F14E0007F0D2FB84F86D
:10865000BC9200230293BB6804F530753BB1022243
:10866000394668469847FB680393BB6802932946DE
:108670006846FFF730FF029BD4F8C822C4F8C8321E
:10868000039B02926846D4F8CC22C4F8CC32039201
:10869000FCF758FB0D9BC4F8D032012084F8BD8252
:1086A0002073BCE784F84E60D3E72846B7E77047ED
:1086B00010B51021044605F0ADF9204610BD036841
:1086C000C9B29B681847000030B5034DC0E90223CA
:1086D000C0E9005130BD00BFA00C0E00406802F0A0
:1086E000C7BC10B50446006802F023FD204610BD4B
:1086F0002DE9F0418AB004464068019002F010FD77
:108700001E22002102A8A76807F0E6FA0026EFB1B2
:1087100023681E2FB84628BF4FF01E08DD6802AA46
:10872000434631462046A847054658B90A480B49F2
:108730003246FCF7E7FB01A8FFF7D3FF28460AB053
:10874000BDE8F081A7EB08074644E0E701A8FFF782
:10875000C8FF0125F2E700BF44E503206C0C0E00C2
:108760002DE9F7430446406801900D4616461F4622
:1087700002F0D6FCA7B1E168606841F0500102F058
:10878000ADFC290A6068FFF79AFF29466068FFF789
:1087900096FF6068002102F0BCFC48B1002400E0B4
:1087A000012401A8FFF79DFF204603B0BDE8F08338
:1087B000202F217B6068B84628BF4FF02008012396
:1087C000424641F0500102F070FC05F0DBF803680E
:1087D0001B6998474045E1DB06EB080905F0D2F834
:1087E00003685B69984706F8010B4E45F6D145448E
:1087F000A7EB0807BEE72DE9F74F04464068019054
:108800000E4690461D4602F08BFC4FF00109B9F16F
:10881000000F2AD04DB3E168606841F0500102F0CA
:108820005DFC310A6068FFF74AFF60683146FFF778
:1088300046FFA5F11E0A4746A6EB080B606817F82D
:10884000011B0368013D9B68984755450BEB0706E4
:10885000B84601D0002DF1D16068012102F059FC29
:108860000028D7D04FF00009D1E701A8FFF739FF62
:10887000484603B0BDE8F08F2DE9F0438BB00E46BB
:1088800015468046406801901C4602F049FCAE4205
:1088900029D2264425448CB11E2C2746D8F8003016
:1088A00028BF1E27F61BD3F8089002AA3B46314684
:1088B0004046ED1BC84748B9002400E0012401A848
:1088C000FFF70FFF20460BB0BDE8F083D8F800306B
:1088D00002AAD3F80C9029463B464046C8470028D8
:1088E000EAD0E41BD7E7E9D9002CE7D0D8F800306C
:1088F0001E2C274628BF1E27D3F8089002AA3B4605
:1089000031464046C8470028D6D0D8F8003002AAE1
:10891000D3F80C9029463B464046C8470028CBD0A8
:108920003E443D44E41BDFE703680A7883F8B12046
:10893000012183F8B0107047022A06D0032A02D022
:10894000012A00D10160002070470B680360FAE73C
:10895000012A034602D1016000207047022A04BFA9
:10896000D1E90001C3E90001F6E710B4426803460B
:10897000541001EB6200D20748BF0A591B685DF82A
:10898000044B48BFD3581847D0F8C83001461BB134
:10899000D0F8CC30C030184770470000F8B5124D01
:1089A0000846002A18BF15460F461E4607F007FA6C
:1089B000402817D8284607F002FA40F26E23984262
:1089C00010D84330FBF769FB044648B1394600F83C
:1089D000016B07F0CEF9294604F1420007F0C9F90E
:1089E0002046F8BD0024FBE7DD110E00F0B59FB076
:1089F0000A4600230E46011D08A800F0F1FD089864
:108A0000002107F0BBFA054608A804F0C9F8002DBC
:108A100060D008A9284607F09FFA0C9B2E492F48E2
:108A20003246FEF739FC00221146284607F09CFA30
:108A3000082206A9284607F0B5FA0C9F4A2F39DD0F
:108A4000274B069A9A4235D1264B079A9A4231D142
:108A5000A7F1080210460592FBF71FFB0446C0B1C0
:108A600027440146059A284607F09CFA17F8093C66
:108A7000ABB9631C1846059307F0A1F93F28059B85
:108A80000DD804F142020092174914483246FEF70D
:108A900003FC284607F058FA20461FB0F0BD1349E2
:108AA0000E483246FEF7F8FB4321204604F0B2FFA1
:108AB0000024EEE7BDF81E3002939DF81D300193AF
:108AC0009DF81C3000930A49069B04483246FEF785
:108AD000E3FBEDE72C46DFE7B40C0E0060E4032077
:108AE0006376B63101084100C80C0E00EA0C0E0096
:108AF000180D0E002DE9F8438046294B48F8043B39
:108B00000446404600F084FC022264230025C4E9A8
:108B10001B230823E367C4E92055C4E92255C4E9AF
:108B20002455C4E92655A5672020FBF7B4FAE66F63
:108B3000A067013E760800EB860907464FF40070F7
:108B4000FBF7A9FA00F50073C4E92503C4F88830DF
:108B50004FF4FA614FF47A73C4E92D1347F230539E
:108B600047F82600C4F88400C4F88000C4F89000D8
:108B7000C4E92855C4E92A550A49C4F88C90C4F8B8
:108B80009C90A4F8B05084F8B250C4F8BC30C4F83B
:108B9000C850404600F082FC2046BDE8F88300BF84
:108BA0005C0F0E005D0D0E0038B5064C23683BB916
:108BB000D020FBF770FA054608B1FFF79BFF256050
:108BC000206838BD64E4032010B5D1E9002386B0E5
:108BD0000021044604910AB9D90705D5CDE902233D
:108BE0000F4B05930F4B049302AB93E803006A46C7
:108BF00082E8030094E8030083E8030092E803009E
:108C0000049A84E80300A168A260059A04911846BA
:108C1000E168E2600591FCF795F8204606B010BDCA
:108C20006B890D0051890D0013B5044601F03AFB24
:108C300080B101F00BF8D4F8B430C4F8AC30064B76
:108C4000C4F8A80000936946002304F1C000019312
:108C5000FFF7BAFF02B010BD958D0D0010B5036887
:108C60000446586F00F0AAFF204610BD10B50269F7
:108C70008368043A9342044602D00433A36010BDD3
:108C8000C068FBF70CFA63691A1D62615B68E360F8
:108C900003F500722261F1E72DE9F04F87B0044639
:108CA0000190406FDFF8A890DFF8A8A000F07EFFE9
:108CB000DFF8A4B0D4F88030D4F89020934205D1E6
:108CC00001A8FFF7CBFF07B0BDE8F08F04F17800F3
:108CD00004F104081F68FFF7C9FF404600F074FE66
:108CE000002302464146064602A800F079FC02989D
:108CF00040F2022107F042F9054602A803F050FFB6
:108D0000CDB108220DEB02012846CDE9029A07F009
:108D10005BF907F1420007F052F8394600F14302CF
:108D2000284607F051F9284607F00EF90748324661
:108D30005946FEF7B1FA3146404600F085FE002F55
:108D4000B8D04321384604F065FEB1E760E4032063
:108D50006376B631010841006B0D0E00002908BF93
:108D6000B0F5006F38B505D0002908BF40280BD1F9
:108D7000092A09D105490648FEF78EFAFFF714FFC4
:108D8000BDE83840FFF788BF38BD00BF880D0E0032
:108D900060E4032070B586B0044601F083FA48B958
:108DA000404B02A9CDE9023004F1C000FFF70CFFEF
:108DB00006B070BD00F04AFFD4F8A830C01AD4F84D
:108DC000AC309842F4D394F8B2100029F0D1261DAB
:108DD000304600F005FE0146C4F8A400002850D03B
:108DE0002046FFF703FE0546C4F8A000002833D054
:108DF00000F02CFF02AD00262B4BC4F8A80029463A
:108E000004F1C00002930396FFF7DEFED4E9283098
:108E100003F1420200922549254AA4F8B060B0420D
:108E200008BF0A46013323492348FEF735FAFFF706
:108E300097FAD4F8A020214B0593CDE900561146AE
:108E40001F4B0294049311F8013B4232FFF7D2FB0F
:108E50002846FBF777FFABE7D4F8A420194916485A
:108E6000FCF750F80121304600F0BAFDD4F8A41008
:108E70002A46304600F0F0FBD4F8A030002BB7D1E2
:108E800096E7D4F88030D4F890209A4207D01B6837
:108E9000C4F8A03004F17800FFF7E8FEECE7C4F86E
:108EA000A00085E7298C0D0045920D00B70D0E003E
:108EB00058100E00D80D0E0060E4032029890D0023
:108EC00039890D00BB0D0E00C368CA689B1A9B1040
:108ED0005A1ED0E900301B1A9B1003EBC21388689E
:108EE0000A68801A03EBA000704700002DE9F341E7
:108EF00004460190406F00F059FE04F1800104F136
:108F00009000FFF7E1FFE36E834202D22046FFF7B5
:108F1000C3FEDFF84880104F261D304600F0AEFD3E
:108F2000236F984205DC01A8FFF798FE02B0BDE868
:108F3000F0810121304600F053FD05460028ECD0B9
:108F400001460022304600F087FB2A46414638465B
:108F5000FBF7D8FFE1E700BF60E40320F70D0E0048
:108F600010B5D0F8C830C16604460A4633B104488B
:108F70000449FEF791F92046FFF7B8FF204610BDDF
:108F800060E403200A0E0E0010B5D0F8C830016767
:108F900004460A4633B104480449FEF77DF92046E9
:108FA000FFF7A4FF204610BD60E403201F0E0E0053
:108FB00013B50446002001F013F9012805D0124929
:108FC0001248FBF7B6FF02B010BD04F1740000F0C8
:108FD000DDFD0F4A002300214FF4046001F0D8F8B2
:108FE000FFF7BEF9FFF7E0FA201D00F075FC204600
:108FF000FFF77CFF074B00936946002304F1C00094
:109000000193FFF7E1FDDEE7350E0E0060E403207B
:109010005D8D0D00298C0D0070B50368044663B1A9
:10902000436A45691E1DAE4204D955F8040BFBF78F
:1090300036F8F8E72068FBF732F8204670BD2DE9D6
:10904000F04706468946406A71697368471A09EB1A
:10905000A7050135B3EB450F144627D95D1B6D08F5
:109060003268AD000CB14FEA89042C441444031D4E
:10907000A142A3EB010213D9994202D0204606F087
:1090800011FE74612368F36003F500733361E31923
:109090007362E359F36103F500733362BDE8F0874F
:1090A0009942EED0381D801A2044E8E703F1020807
:1090B0004B452CBF9844C844B8F1005F01D304F07D
:1090C000AFFC4FEA8800FAF7E6FFA8EB05056D084C
:1090D0008246AD000CB14FEA8904726A71690432AC
:1090E0002C449142544403D0521A204606F0DAFD33
:1090F0003068FAF7D4FFC6E900A8C2E72DE9F041CD
:1091000086B004469DF830509DF834302B430F460E
:109110001646FFF743FC0546002842D0434B44491E
:109120004448002E18BF33463A46FEF7B5F8606F44
:10913000059400F03BFDD4F89820D4F89030043A20
:10914000934204F1780804F1900604F180072BD0D3
:1091500003B11D60D4F890300433251DC4F890305D
:10916000284600F08BFC394603903046FFF7ACFEF2
:10917000029001F097F8DDE9023200902E492D4867
:10918000FEF78AF8284600F079FC00283ED02046F9
:10919000FFF782FD2046FFF7A9FE05A8FFF75EFD59
:1091A000012006B0BDE8F08139463046FFF78CFE5D
:1091B0006FF06043984202D1204804F034FCD4F8A8
:1091C0009C30A26F9A1AE36FA3EBA203012B04D881
:1091D000002201214046FFF732FF4FF40070D4F81F
:1091E0009C80FAF758FFC8F80400D4F8903003B117
:1091F0001D60D4F89C301A1DC4F89C205B68C4F82C
:10920000943003F50072C4F89820A6E7394630463A
:10921000FFF75AFEE36E8342B9D301F043F800280A
:10922000B5D007490348FEF737F8B3E7DD110E0064
:10923000580E0E0060E40320B00E0E00800E0E00EB
:10924000DC0E0E0073B590F8B0300446002B41D010
:1092500090F8B130D0F8A420002B3DD052495348AB
:10926000FEF71AF8D4F8A430D3B1261D00213046F9
:1092700000F0B6FBD4F8A430984205460DD1012188
:10928000304600F0ADFB00222946304600F0E4F9FC
:10929000474946482A46FDF7FFFF0023C4F8A4309B
:1092A000D4F8A00010B1432104F0B4FB0023C4F8AB
:1092B000A030D4F8B830C4F8AC303E4B00936946C7
:1092C000002304F1C0000193FFF77EFC00F0BEFC18
:1092D000C4F8A80002B070BD37493448FDF7DCFF80
:1092E000D4F8BC30C4F8AC30D4F8A4304BB1D4F8C6
:1092F000A00010B1432104F08DFB0023C4F8A0307E
:10930000DBE7606F009400F051FCD4E92032934217
:1093100013D0D4F8A02043F8042CD4F88030043BB8
:10932000C4F880306846FFF799FC24491F48FDF7D0
:10933000B3FF2046FFF7B0FCBFE704F1800104F162
:109340009000FFF7C1FD6FF06043984204F178058B
:1093500002D11B4804F067FBD4F88C20A36F9A421B
:1093600004D1012211462846FFF769FE4FF4007030
:10937000D4F88C50FAF78FFE45F8040CD4F88C30F2
:109380001A1FC4F88C2053F8043CC4F8843003F549
:109390000072C4F8882003F5FE72C4F88020D4F867
:1093A000A020C3F8FC21BDE7EF0E0E0060E403200F
:1093B000020F0E00958D0D00120F0E00240F0E00EF
:1093C000800E0E00014B024A1A60704760E40320D1
:1093D0004B0F0E0010B5074B044640F8C03BFBF79F
:1093E000B1FC04F17800FFF717FE201D00F0B2F980
:1093F000204610BD5C0F0E0010B50446FFF7EAFFD3
:109400002046D02104F006FB204610BD0120704705
:10941000F8B51F4D1F4B0446294640F8043B03F0A6
:109420000AFC1D4904F1140003F005FC294604F16F
:10943000240003F000FC0023C4E90E33C4E9123316
:10944000C4E91433C4E91633C4E9183384F834305A
:109450002364082363642020FAF71DFE656C2064F2
:10946000013D6D0800EB850706464FF40070FAF7E2
:1094700012FE00F50073C4E9170346F82500E06406
:10948000A064A0656765236567662046F8BD00BFD8
:10949000DD110E0068100E00680F0E007FB5051D6F
:1094A0000446284603F025FC0E49684603F0C3FB3A
:1094B0006946284603F08AFC0646684603F070FBBE
:1094C0006EB1E3680022013B2946684603F0ACFC1C
:1094D0006946284603F005FC684603F061FB204618
:1094E00004B070BD6D0F0E0010B5C36B044613B908
:1094F0003C3000F033FBE06BBDE8104000F036BBC1
:10950000C06B00F03BBB000010B596B06946044646
:1095100000F004FDD0B9019B5B04224606D5154935
:109520001548FBF7EFFC012016B010BD1248134997
:10953000FBF7FFFC204606F03FFD40F2FF112046FE
:1095400000F0F4FC80B90E492246E9E700F0A2FFE2
:109550000368022BF1D000F09DFF0A49026806481B
:10956000FBF7E7FC0020DFE700F094FF0649026804
:10957000F5E700BF7A0F0E0068E40320970F0E0096
:10958000C80F0E00B40F0E00D70F0E0038B51546E9
:10959000044603F050FB4DB12B783BB10449204603
:1095A00003F0D0FB2946204603F0CCFB204638BD13
:1095B000DC120E007FB505460E461C46496968461A
:1095C00003F052FC009904B9746A22462846FFF75A
:1095D000DDFF684603F0E4FA284604B070BD0000E1
:1095E00070B50C468EB01A49CDE90032054603F03D
:1095F00022FBE069E16801440431284603F0EEFAF9
:10960000211D06A803F062FB124902A803F013FB18
:1096100002A906A803F0A7FBDDE9003206462146B1
:109620000AA8FFF7C7FF0AA9304603F09CFB0146D2
:10963000284603F03CFB0AA803F0B2FA02A803F0A4
:10964000AFFA06A803F0ACFA28460EB070BD00BF12
:10965000DD110E006D0F0E002DE9F04713468EB0A0
:1096600005460F46002A4AD0406800F06FFC0646C7
:10967000002841D0DFF8B0A0DFF8A490DFF8A48084
:10968000304600F06BFC002833D0827A082AF7D1EC
:1096900000F10B04696901AA204600F0D3FE0128FD
:1096A000EED1019B9F42EBD1291D06A803F00EFBD2
:1096B00051460AA803F0BFFA0AA906A803F053FB13
:1096C000214603F05CFB014602A803F0FFFA0AA85A
:1096D00003F066FA06A803F063FA029806F06CFC41
:1096E0004046029A4946FDF7D7FD02A803F058FA12
:1096F000C6E7304600F03AFC0EB0BDE8F0870A46F7
:1097000001460AA8FFF76CFF0A9806F055FC0A9A72
:1097100003490448FDF7C0FD0AA803F041FAEBE74E
:109720006F0F0E0068E403206D0F0E0070B5036824
:10973000044663B1436A45691E1DAE4204D955F81B
:10974000040BFAF7ACFCF8E72068FAF7A8FC20460F
:1097500070BD000010B5094B044640F8403BFFF7D0
:10976000E5FF04F1240003F01BFA04F1140003F0F8
:1097700017FA201D03F014FA204610BD68100E00E1
:1097800010B50446FFF7E6FF2046682104F042F9D1
:10979000204610BDC368CA689B1A9B105A1ED0E9A8
:1097A00000301B1A9B1003EBC21388680A68801AEA
:1097B00003EBA000704700002DE9F04704468846FF
:1097C00000F108011830FFF7E5FF6FF060439842A1
:1097D00002D1374804F027F9626A20686368111AD9
:1097E000A3EBA101012921D86169571ABE10B51C4C
:1097F000B3EB450F36D95D1B6D0800EB8505131DD6
:10980000A942A3EB010227D9994202D0284606F0CB
:1098100049FA65612B68E36003F500732361EB1976
:109820006362EB59E36103F5007323624FF4007048
:10983000656AFAF730FC6860A36913B1D8F80020B4
:109840001A60636A1A1D62625B68E36103F5007265
:109850002262A361BDE8F0879942DAD0381D801AF0
:109860002844D4E703F10209012B2CBF994409F1E4
:109870000109B9F1005F01D304F0D2F84FEA890081
:10988000FAF709FC626A6169A9EB050504326D0803
:109890009142824600EB850503D0521A284606F015
:1098A00001FA2068FAF7FBFBC4E900A9B1E700BFA1
:1098B000800E0E0038B5056A8269043DAA4203464F
:1098C00006D00AB1096811609A6904329A6138BDFC
:1098D000FFF772FFFBE700002DE9F047C368012B9B
:1098E00086B0044608D834493448FBF722FB0026EA
:1098F000304606B0BDE8F0874068FFF705FE064633
:109900000028F4D0636962682D492C48FDF7C4FC37
:10991000606800F01BFB07460028E8D00023DFF852
:10992000A490DFF89880A363384600F017FB054643
:10993000002839D0837A082BF6D10B35616901AA4A
:10994000284600F07FFD0128EED1E36A7BB129466D
:1099500002A803F070F904F1240102A803F036FA1A
:10996000824602A803F01CF9BAF1000FDCD023688C
:1099700029469B68204698470028D5D0019AA36BBA
:109980009342B8BFA2632B4649464046FDF784FC8C
:109990002046FFF7A9FD04F1400001A9FFF78AFF67
:1099A0002046FFF7ADFDBFE7384600F0DFFA0123A0
:1099B00084F834309CE700BFED0F0E0068E403200C
:1099C00002100E001E100E0010B590F83430044640
:1099D0000BB9FFF781FFA06B0130A06310BD000041
:1099E00070B590F8343004460E460BB9FFF774FF9B
:1099F0002046FFF779FDA36CA26D93421ED01D682F
:109A00002EB1226D043A93420CD00433A364204655
:109A1000FFF776FD25B10A490A482A46FDF73CFCC6
:109A2000284670BDE06CFAF73AFB636D1A1D62655B
:109A30005B68E36403F500722265E7E70025E6E76B
:109A400034100E0068E4032013B590F8343001910F
:109A500004460BB9FFF740FF019BA26B9A42B8BFC7
:109A6000A3632046FFF740FD01A904F14000FFF782
:109A700021FF2046FFF744FD02B010BD38B5044673
:109A8000FFF732FD04F1480104F15800FFF782FEB0
:109A900005462046FFF734FD284638BD014B024AF3
:109AA0001A60704768E4032051100E0008B5024B9D
:109AB0001B685B6C019308BD7402030008B5024B80
:109AC0001B685B68019308BD4802030008B5024BA0
:109AD0001B689B68019308BD4802030008B5024B50
